:100000000C947D000C948C0B0C94B90B0C94E60BA7
:100010000C94130C0C94400C0C946D0C0C949A0CD6
:100020000C94C70C0C94B2060C945F050C948506D6
:100030000C94FE050C942B060C9432050C94C20013
:100040000C94A5000C94A5000C94EA160C94A50041
:100050000C9485160C94A5000C94A5000C94A50096
:100060000C9458060C9466070C94DF060C940C074D
:100070000C9439070C94D1050C94BE160C94A50071
:100080000C9457160C94A5000C94A5006215063923
:10009000652C033AA23B593C1EBAE03D633BF43E5B
:1000A00075FF4E3F3172113F800000000540B504DE
:1000B000F441A0000141E2463241A0000040E24686
:1000C000303F8000000541778C4F40C32CE2411740
:1000D000BF24C1A48DD9C0E1D8A1C05B6782000054
:1000E00001000800400000010004000001000800B9
:1000F0002000400080000001000411241FBECFEF4B
:10010000D0E1DEBFCDBF11E0A0E0B1E0ECE6FBE363
:1001100000E00BBF02C007900D92AC38B107D9F7D1
:1001200014E0ACE8B1E001C01D92A731B107E1F7DE
:1001300010E0CEE8D0E004C02297FE010E94981D96
:10014000CC38D107C9F70C9412020C94000086B782
:10015000836086BF87B7826087BF87B78E7F87BF80
:1001600080B7886080BF12BE80E281BF89E083BF14
:1001700080B7992787709070892BD1F786B78360F5
:1001800086BF08951F920F920FB60F9211248F937E
:100190009F93AF93BF938091CF039091D003A09191
:1001A000D103B091D2030196A11DB11D8093CF035D
:1001B0009093D003A093D103B093D2038091D30343
:1001C0009091D403A091D503B091D6030196A11DBF
:1001D000B11D8093D3039093D403A093D503B09320
:1001E000D603BF91AF919F918F910F900FBE0F904B
:1001F0001F9018956091D3037091D4038091D5031B
:100200009091D60308959B01AC0112BE1092CF03CA
:100210001092D0031092D1031092D2038091CF0399
:100220009091D003A091D103B091D203821793078C
:10023000A407B50799F70895019749F0880F991F0A
:10024000880F991F0297F8940197F1F77894089511
:10025000E82FE695E695E695A82FBB27613081F457
:10026000FF27EE0FFF1FEA5EFE4F0190F081E02DA9
:10027000A770B070A050BF4F80819C91892B10C097
:10028000FF27EE0FFF1FEA5EFE4F0190F081E02D89
:10029000A770B070A050BF4F9C919095808189232A
:1002A00080830895A82F20E030E0E82FE695E695BA
:1002B000E695FF27EE0FFF1FEC5DFE4F0190F081EA
:1002C000E02DBB27A770B070A050BF4F80819C91DC
:1002D000892311F021E030E0C9010895E82FE69567
:1002E000E695E695A82FBB27613081F4FF27EE0F36
:1002F000FF1FE85FFE4F0190F081E02DA770B07006
:10030000A050BF4F80819C91892B10C0FF27EE0F1A
:10031000FF1FE85FFE4F0190F081E02DA770B070E5
:10032000A050BF4F9C919095808189238083089530
:10033000E82FFF27613051F4EE0FFF1FEA5EFE4FFA
:100340000190F081E02D8FEF80830895EE0FFF1F65
:10035000EA5EFE4F0190F081E02D10820895E82FB3
:10036000FF27EE0FFF1FEC5DFE4F0190F081E02DA7
:10037000808199270895E82FFF27EE0FFF1FE85F80
:10038000FE4F0190F081E02D608308957727992733
:10039000982F8827862B972B089510926100109232
:1003A000620080E487B987EE86B90895CF92DF9224
:1003B000EF92FF920F931F93CF93DF93E82EF62EC9
:1003C000C42ED22EC0E0D0E007E010E06D2D7727DC
:1003D000CC2039F40C2E02C0759567950A94E2F78B
:1003E00006C0002E02C0759567950A94E2F7617009
:1003F0008E2D0E946E0161E08F2D0E946E0160E0E3
:100400008F2D0E946E01219601501040C830D105F9
:10041000E9F6DF91CF911F910F91FF90EF90DF9060
:10042000CF900895CFEFD0E1DEBFCDBF0E94A700EF
:10043000E0911C01F0911D018FEF8083E0911E017E
:10044000F0911F01808378940E9447180E94EB1757
:10045000FDCF982F80913201813051F410926100CC
:100460001092620080E487B987EE86B9109232015B
:1004700080913301981721F4349A34990EC0FDCF3E
:100480009093330187B1807E9770892B87B9349A16
:10049000349BFECF349A349BFECF84B195B108953E
:1004A000853031F48FB580688FBD8FB58F7B07C0E5
:1004B000843039F48FB580628FBD8FB58F7E8FBD4C
:1004C0000895833031F48FB588608FBD8FB58B7FF1
:1004D000F6CF823049F480918B00806880938B0046
:1004E00080918B008F7B0AC0813059F480918B0002
:1004F000806280938B0080918B008F7E80938B0035
:100500000895882351F480918B00886080938B003C
:1005100080918B008B7F80938B0008958EB5887FB0
:1005200083608EBD1DBC1CBC87B7846087BF0895E7
:1005300085B5887F826085BD14BC87B7806487BF1E
:100540001092DF031092E0031092E1031092E20395
:100550001092DB031092DC031092DD031092DE0395
:100560000895EAE8F0E08081887F836080831092BC
:10057000890010928800EDE7F0E08081846080833C
:1005800008959EB5987F982B9EBD089595B5987F48
:10059000982B95BD0895EAE8F0E09081987F982B1C
:1005A000908308958E3040F4E82FFF27EE0FFF1F51
:1005B000E357FE4F718360830895E3B7FF27E77029
:1005C000F070EE0FFF1FE252FF4F85919491089556
:1005D000EEB5FF27E770F070EE0FFF1FE252FF4FFE
:1005E000859194910895E5B5FF27E770F070EE0FBF
:1005F000FF1FE252FF4F859194910895E0918A0088
:10060000FF27E770F070EE0FFF1FE252FF4F85915A
:10061000949108958E3040F4E82FFF27EE0FFF1FCE
:10062000E357FE4F118210820895DF92EF92FF92FE
:100630000F931F937C01D4B41092D7031092D80368
:100640001092D9031092DA030E94F3029C0144270E
:10065000552760E074E284EF90E00E947B1D293B07
:100660008DE8380786E0480780E0580798F481E174
:10067000E81687E2F80670F4B701882799270E94E8
:100680003A1D28EE33E040E050E00E94591D790108
:100690008A0110C000271127CA01B90128EE33E0F2
:1006A00040E050E00E94591DC801B7010E943A1D68
:1006B0007B018C018091D7039091D803A091D9033D
:1006C000B091DA0324B5BA2FA92F982F88273327A2
:1006D00044275527822B932BA42BB52BA8019701D8
:1006E0002D0D311D411D511D82179307A407B5071C
:1006F00008F31F910F91FF90EF90DF9008951092F3
:10070000E7031092E8031092E9031092EA031092B3
:10071000E3031092E4031092E5031092E6030895B8
:100720006091E7037091E8038091E9039091EA03F7
:1007300008951092DF031092E0031092E1031092EB
:10074000E2031092DB031092DC031092DD0310929F
:10075000DE0308956091DF037091E0038091E1036F
:100760009091E2030895893031F48FB582608FBD96
:100770008FB58E7F0AC08A3019F48FB5826002C0AF
:100780008FB58D7F8FBD8FB581608FBD1BBC1ABCAF
:1007900019BC18BC109279001092780008958FB59A
:1007A00080688FBD8FB58F7B8FBD08958FB58062B8
:1007B0008FBD8FB58F7E8FBD08958FB588608FBD3B
:1007C0008FB58B7F8FBD08958FB58F778FBD8FB518
:1007D0008F7B8FBD08958FB58F7D8FBD8FB58F7E39
:1007E0008FBD08958FB5877F8FBD8FB58B7F8FBDF0
:1007F0000895292F33272BBD8ABD0895292F33272C
:1008000029BD88BD0895292F33272093790080932F
:1008100078000895893049F480918B00826080933C
:100820008B0080918B008E7F0EC08A3021F48091E6
:100830008B00826003C080918B008D7F80938B0042
:1008400080918B00816080938B00109287001092C2
:1008500086001092850010928400109283001092FE
:1008600082000895EBE8F0E08081806880838081D9
:100870008F7B80830895EBE8F0E080818062808345
:1008800080818F7E80830895EBE8F0E0808188602E
:10089000808380818B7F80830895EBE8F0E0808106
:1008A0008F77808380818F7B80830895EBE8F0E0F1
:1008B00080818F7D808380818F7E80830895EBE8A7
:1008C000F0E08081877F808380818B7F80830895A3
:1008D000292F332720938700809386000895292F9E
:1008E000332720938500809384000895292F332790
:1008F00020938300809382000895EF92FF921F93CC
:10090000CF93DF93182F7B018D31B0F08F3111F42D
:1009100013E014C08E3111F414E010C08D3109F4CD
:1009200097C0853211F410E03CC0843211F411E01C
:1009300038C0833219F48EC0833098F180918C01D5
:1009400086FD0BC00E948E0278948AE00E94B30359
:1009500080918C01806480938C0180918C01C12FE7
:10096000DD2799270C2E02C0959587950A94E2F70A
:1009700080FD4AC087B3FE01EC5CFE4F9081892B5D
:1009800087BB812F0E94500220918C0181E090E072
:1009900002C0880F991FCA95E2F7282B20938C017B
:1009A00033C080918C0187FD0BC00E94B102789406
:1009B0008AE00E940A0480918C01806880938C01F7
:1009C00080918C01C12FDD2799270C2E02C09595AF
:1009D00087950A94E2F780FD1DC082B1FE01EC5CB0
:1009E000FE4F9081892B82B9812F0E945002209165
:1009F0008C0181E090E002C0880F991FCA95E2F750
:100A0000282B20938C0106C0153021F4C7010E94C9
:100A1000F90322C0143021F4C7010E94FE031CC058
:100A2000133021F4C7010E94030416C0123021F4D0
:100A3000C7010E94680410C0113021F4C7010E9450
:100A40006F040AC0112341F4C7010E94760404C058
:100A500015E074CF12E0A5CFDF91CF911F91FF90E9
:100A6000EF9008951F920F920FB60F9211242F93BB
:100A70003F934F935F936F937F938F939F93AF9326
:100A8000BF93EF93FF938091910190919201892BF5
:100A900029F0E0919101F09192010995FF91EF9178
:100AA000BF91AF919F918F917F916F915F914F9186
:100AB0003F912F910F900FBE0F901F9018951F928E
:100AC0000F920FB60F9211242F933F934F935F9382
:100AD0006F937F938F939F93AF93BF93EF93FF9306
:100AE0008091DF039091E003A091E103B091E203D4
:100AF0000196A11DB11D8093DF039093E003A093A5
:100B0000E103B093E2038091DF039091E003A091B1
:100B1000E103B091E2030097A105B10599F480913A
:100B2000DB039091DC03A091DD03B091DE0301961D
:100B3000A11DB11D8093DB039093DC03A093DD0323
:100B4000B093DE038091D7039091D803A091D9038D
:100B5000B091DA030196A11DB11D8093D703909344
:100B6000D803A093D903B093DA0380919B019091AD
:100B70009C01892B29F0E0919B01F0919C01099542
:100B8000FF91EF91BF91AF919F918F917F916F9165
:100B90005F914F913F912F910F900FBE0F901F903B
:100BA00018951F920F920FB60F9211242F933F9317
:100BB0004F935F936F937F938F939F93AF93BF9365
:100BC000EF93FF9380919F019091A001892B29F0D1
:100BD000E0919F01F091A0010995FF91EF91BF91E4
:100BE000AF919F918F917F916F915F914F913F91C5
:100BF0002F910F900FBE0F901F9018951F920F927C
:100C00000FB60F9211242F933F934F935F936F93DF
:100C10007F938F939F93AF93BF93EF93FF938091B5
:100C2000930190919401892B29F0E0919301F09127
:100C300094010995FF91EF91BF91AF919F918F9191
:100C40007F916F915F914F913F912F910F900FBEC8
:100C50000F901F9018951F920F920FB60F921124AC
:100C60002F933F934F935F936F937F938F939F93B4
:100C7000AF93BF93EF93FF9380919501909196016D
:100C8000892B29F0E0919501F09196010995FF914A
:100C9000EF91BF91AF919F918F917F916F915F91F4
:100CA0004F913F912F910F900FBE0F901F9018956D
:100CB0001F920F920FB60F9211242F933F934F93D1
:100CC0005F936F937F938F939F93AF93BF93EF93B4
:100CD000FF938091970190919801892B29F0E091E1
:100CE0009701F09198010995FF91EF91BF91AF9114
:100CF0009F918F917F916F915F914F913F912F9134
:100D00000F900FBE0F901F9018951F920F920FB665
:100D10000F9211242F933F934F935F936F937F9381
:100D20008F939F93AF93BF93EF93FF93809199011C
:100D300090919A01892B29F0E0919901F0919A0103
:100D40000995FF91EF91BF91AF919F918F917F9105
:100D50006F915F914F913F912F910F900FBE0F9028
:100D60001F9018951F920F920FB60F9211242F9378
:100D70003F934F935F936F937F938F939F93AF9323
:100D8000BF93EF93FF9380919D0190919E01892BDA
:100D900029F0E0919D01F0919E010995FF91EF915D
:100DA000BF91AF919F918F917F916F915F914F9183
:100DB0003F912F910F900FBE0F901F9018951F928B
:100DC0000F920FB60F9211242F933F934F935F937F
:100DD0006F937F938F939F93AF93BF93EF93FF9303
:100DE0008091A1019091A201892B29F0E091A101AC
:100DF000F091A2010995FF91EF91BF91AF919F9161
:100E00008F917F916F915F914F913F912F910F90B3
:100E10000FBE0F901F9018951F920F920FB60F9252
:100E200011242F933F934F935F936F937F938F93EF
:100E30009F93AF93BF93EF93FF9380919501909110
:100E40009601892B29F0E0919501F0919601099581
:100E5000FF91EF91BF91AF919F918F917F916F9192
:100E60005F914F913F912F910F900FBE0F901F9068
:100E700018951F920F920FB60F9211242F933F9344
:100E80004F935F936F937F938F939F93AF93BF9392
:100E9000EF93FF938091A5019091A601892B29F0F2
:100EA000E091A501F091A6010995FF91EF91BF9105
:100EB000AF919F918F917F916F915F914F913F91F2
:100EC0002F910F900FBE0F901F9018951F920F92A9
:100ED0000FB60F9211242F933F934F935F936F930D
:100EE0007F938F939F93AF93BF93EF93FF938091E3
:100EF000A7019091A801892B29F0E091A701F09119
:100F0000A8010995FF91EF91BF91AF919F918F91AA
:100F10007F916F915F914F913F912F910F900FBEF5
:100F20000F901F901895EDE8F1E011821082329633
:100F300081E0E93AF807C9F70E948E020E94980200
:100F40000E94B102789408958FB58D7F8FBD8FB5C3
:100F50008E7F8FBD8FB58F778FBD8FB58F7B8FBD08
:100F60008FB58F7D8FBD8FB58F7E8FBD8FB5877FFE
:100F70008FBD8FB58B7F8FBD0895EBE8F0E080814A
:100F80008D7F808380818E7F808380818F77808337
:100F900080818F7B808380818F7D808380818F7E25
:100FA00080838081877F808380818B7F8083089589
:100FB000AF92BF92CF92DF92EF92FF920F931F9367
:100FC000CF93DF9379018A01E82FE695E695E695C0
:100FD000FF27EE0FFF1FEC5DFE4F0190F081E02D2B
:100FE00090EEC92E9FEFD92ECE0EDF1E9927877067
:100FF0009070C1E0D0E0082E02C0CC0FDD1F0A9433
:10100000E2F72FEF3FEF4FEF5FE0E222F3220423FE
:101010001523A0E0B0E0662311F0A1E0B0E002C02B
:10102000AA0FBB1F8A95E2F720E030E040E050E0D5
:101030005F01BB270EC02E153F054007510729F45D
:1010400020E030E040E050E02CC02F5F3F4F4F4F9A
:101050005F4FF60180A1682F77276C237D236A17E5
:101060007B0749F720E030E040E050E004C02F5F0C
:101070003F4F4F4F5F4FF501808199278C239D2370
:1010800086179707A1F3CA01B90124E130E040E0D7
:1010900050E00E943A1D27E130E040E050E00E941D
:1010A000591DCA01B901DF91CF911F910F91FF9096
:1010B000EF90DF90CF90BF90AF90089520E432E49E
:1010C0004FE050E00E94D80708959C01892B61F001
:1010D0008091B80181608093B801220F331F309353
:1010E000B5012093B4010BC08091B8018E7F80932D
:1010F000B80182E090E09093B5018093B4018FB580
:101100008F778FBD8FB580648FBD8AB59BB52091D9
:10111000B6013091B701820F931F9BBD8ABD87B77F
:10112000806187BF08959C01892B61F08091B30194
:1011300081608093B301220F331F3093B00120935D
:10114000AF010BC08091B3018E7F8093B30182E029
:1011500090E09093B0018093AF018FB58F7D8FBDEC
:101160008FB580618FBD88B599B52091B10130915F
:10117000B201820F931F99BD88BD87B7886087BF72
:1011800008959C01892B61F08091AE01816080936C
:10119000AE01220F331F3093AB012093AA010BC085
:1011A0008091AE018E7F8093AE0182E090E09093BB
:1011B000AB018093AA018FB5877F8FBD8FB5846007
:1011C0008FBD80917800909179002091AC01309191
:1011D000AD01820F931F90937900809378008091E6
:1011E0007D00816080937D000895853021F4CB01DE
:1011F0000E9465080895843021F4CB010E94930871
:101200000895833019F4CB010E94C108089580919C
:10121000B80181608093B8011092B5011092B401B9
:1012200008958091B30181608093B3011092B00161
:101230001092AF0108958091AE0181608093AE015C
:101240001092AB011092AA0108958091B40190917F
:10125000B50101969695879508958091AF0190917B
:10126000B00101969695879508958091AA01909175
:10127000AB0101969695879508958091B401909160
:10128000B501892BC1F08AB59BB52091B60130918B
:10129000B701820F931F9BBD8ABD8091B80180FF6B
:1012A00013C08091B4019091B50101979093B5015D
:1012B0008093B40108958FB58F778FBD8FB58F7BE5
:1012C0008FBD87B78F7E87BF08958091AF019091C2
:1012D000B001892BC1F088B599B52091B101309149
:1012E000B201820F931F99BD88BD8091B30180FF29
:1012F00013C08091AF019091B00101979093B0011C
:101300008093AF0108958FB58F7D8FBD8FB58F7E90
:101310008FBD87B7877F87BF08958091AA0190917D
:10132000AB01892BE1F080917800909179002091B8
:10133000AC013091AD01820F931F9093790080939F
:1013400078008091AE0180FF15C08091AA01909134
:10135000AB0101979093AB018093AA0108958FB5DB
:10136000877F8FBD8FB58B7F8FBD80917D008E7FF6
:1013700080937D000895EF92FF920F931F937C015D
:101380000E94E802AA27BB2700271127EE0CFF1CAA
:10139000001F111FBC01CD01A80197010E943A1D39
:1013A0009B01AC0160E074E284EF90E00E94591D63
:1013B0003093AD012093AC011F910F91FF90EF90FE
:1013C0000895EF92FF920F931F937C010E94E80211
:1013D000AA27BB2700271127EE0CFF1C001F111F97
:1013E000BC01CD01A80197010E943A1D9B01AC01EF
:1013F00060E074E284EF90E00E94591D3093B201E6
:101400002093B1011F910F91FF90EF900895EF92FB
:10141000FF920F931F937C010E94E802AA27BB272B
:1014200000271127EE0CFF1C001F111FBC01CD016E
:10143000A80197010E943A1D9B01AC0160E074E293
:1014400084EF90E00E94591D3093B7012093B601BC
:101450001F910F91FF90EF900895853021F4CB01FB
:101460000E94070A0895843021F4CB010E94E1090B
:101470000895833019F4CB010E94BB09089510929E
:10148000B5011092B4011092B0011092AF01109208
:10149000AB011092AA018FB58F778FBD8FB58F7B6F
:1014A0008FBD8FB58F7D8FBD8FB58F7E8FBD8FB573
:1014B000877F8FBD8FB58B7F8FBD83E00E940A032E
:1014C00084E00E940A0385E00E940A0308950E94B6
:1014D0008E020E94A4071092B8011092B3011092DC
:1014E000AE011092B5011092B4011092B0011092A9
:1014F000AF011092AB011092AA0180E090E89093A6
:10150000B7018093B6019093B2018093B10190939B
:10151000AD018093AC016DE379E083E00E94D202DB
:1015200065E679E084E00E94D2026DE879E085E02A
:101530000E94D20208958091A90186FD07C00E94F1
:10154000670A8091A90180648093A9010895CF92D0
:10155000DF92EF92FF921F93182F7B016A010E9486
:101560009B0AB701812F0E942D0AB601812F0E948C
:10157000F5081F91FF90EF90DF90CF90089540E025
:1015800050E00E94A70A0895853029F48091B401A3
:101590009091B5010DC0843029F48091AF019091F4
:1015A000B00106C0833041F48091AA019091AB0153
:1015B00001969695879508950895853051F4809108
:1015C000B80181608093B8011092B5011092B40106
:1015D0000895843051F48091B30181608093B30108
:1015E0001092B0011092AF010895833049F48091B8
:1015F000AE0181608093AE011092AB011092AA01FE
:101600000895833089F1843028F48130B9F0823034
:1016100000F50BC08530E1F1853098F1863009F492
:1016200040C0873009F052C046C080916A008C7F6C
:10163000862B80936A0089B781603BC080916A00E5
:10164000837F660F660F862B80936A0089B782605E
:1016500030C080916A008F7C6295607F862B80937A
:101660006A0089B7846025C080916A008F73629593
:10167000660F660F607C862B80936A0089B788604E
:1016800018C08AB78C7F862B8ABF89B7806111C04A
:101690008AB7837F660F660F862B8ABF89B7806201
:1016A00008C08AB78F7C6295607F862B8ABF89B716
:1016B000806489BF08958AB78F736295660F660F3D
:1016C000607C862B8ABF89B7806889BF089588307F
:1016D00058F4E82FFF27EE0FFF1FE754FE4F7183EA
:1016E0006083642F0E94010B08958830A0F429B70D
:1016F000E82FFF2781E090E00E2E02C0880F991F8F
:101700000A94E2F78095282329BFEE0FFF1FE754C4
:10171000FE4F1182108208951F920F920FB60F9202
:1017200011242F933F934F935F936F937F938F93E6
:101730009F93AF93BF93EF93FF938091B9019091E3
:10174000BA01892B29F0E091B901F091BA0109950C
:10175000FF91EF91BF91AF919F918F917F916F9189
:101760005F914F913F912F910F900FBE0F901F905F
:1017700018951F920F920FB60F9211242F933F933B
:101780004F935F936F937F938F939F93AF93BF9389
:10179000EF93FF938091BB019091BC01892B29F0BD
:1017A000E091BB01F091BC010995FF91EF91BF91D0
:1017B000AF919F918F917F916F915F914F913F91E9
:1017C0002F910F900FBE0F901F9018951F920F92A0
:1017D0000FB60F9211242F933F934F935F936F9304
:1017E0007F938F939F93AF93BF93EF93FF938091DA
:1017F000BD019091BE01892B29F0E091BD01F091CE
:10180000BE010995FF91EF91BF91AF919F918F918B
:101810007F916F915F914F913F912F910F900FBEEC
:101820000F901F9018951F920F920FB60F921124D0
:101830002F933F934F935F936F937F938F939F93D8
:10184000AF93BF93EF93FF938091BF019091C0013D
:10185000892B29F0E091BF01F091C0010995FF911A
:10186000EF91BF91AF919F918F917F916F915F9118
:101870004F913F912F910F900FBE0F901F90189591
:101880001F920F920FB60F9211242F933F934F93F5
:101890005F936F937F938F939F93AF93BF93EF93D8
:1018A000FF938091C1019091C201892B29F0E091B1
:1018B000C101F091C2010995FF91EF91BF91AF91E4
:1018C0009F918F917F916F915F914F913F912F9158
:1018D0000F900FBE0F901F9018951F920F920FB68A
:1018E0000F9211242F933F934F935F936F937F93A6
:1018F0008F939F93AF93BF93EF93FF938091C30117
:101900009091C401892B29F0E091C301F091C401A9
:101910000995FF91EF91BF91AF919F918F917F9129
:101920006F915F914F913F912F910F900FBE0F904C
:101930001F9018951F920F920FB60F9211242F939C
:101940003F934F935F936F937F938F939F93AF9347
:10195000BF93EF93FF938091C5019091C601892BAE
:1019600029F0E091C501F091C6010995FF91EF9131
:10197000BF91AF919F918F917F916F915F914F91A7
:101980003F912F910F900FBE0F901F9018951F92AF
:101990000F920FB60F9211242F933F934F935F93A3
:1019A0006F937F938F939F93AF93BF93EF93FF9327
:1019B0008091C7019091C801892B29F0E091C7015E
:1019C000F091C8010995FF91EF91BF91AF919F915F
:1019D0008F917F916F915F914F913F912F910F90D8
:1019E0000FBE0F901F9018952F923F924F925F92CB
:1019F0006F927F928F929F92AF92BF92CF92DF921F
:101A0000EF92FF920F931F93CF93DF93CDB7DEB783
:101A100024970FB6F894DEBF0FBECDBF3B014C013B
:101A200019012A01A6019501698D7A8D8B8D9C8DF6
:101A30000E94771A69837A838B839C83A201910128
:101A4000C401B3010E94771A3B014C01A20191012C
:101A5000C801B7010E94771A9B01AC01C401B30110
:101A60000E94BA1A9B01AC0169817A818B819C81A9
:101A70000E94B01B9B01AC01C601B5010E94781AFF
:101A800024960FB6F894DEBF0FBECDBFDF91CF9185
:101A90001F910F91FF90EF90DF90CF90BF90AF908C
:101AA0009F908F907F906F905F904F903F902F907E
:101AB0000895EF92FF920F931F937B018C0120E01A
:101AC00030E040E050E00E94401B882329F460E0B1
:101AD00070E080E090E014C00E94AD19AA2797FD45
:101AE000A095BA2FBC01CD010E941D1B20E03EEF46
:101AF0004FEF56E40E94BA1AA80197010E94B01B4A
:101B00001F910F91FF90EF900895AF92BF92CF92E7
:101B1000DF92EF92FF920F931F937B018C0159018B
:101B20006A010E94431B87FF10C0A8019701C601EC
:101B3000B5010E94771A0E94590D9B01AC01C801A2
:101B4000B7010E94781A7B018C01C801B7011F916F
:101B50000F91FF90EF90DF90CF90BF90AF900895DE
:101B6000009711F00E94B2190895FC0177FD0CC096
:101B7000828193816817790738F40190F081E02D14
:101B8000E60FF71F808101C080E0992787FD9095BF
:101B90000895FC01828193816817790730F40190E0
:101BA000F081E02DE60FF71F40830895FC0180814E
:101BB00091810895FC01808191810895DC0120E0EC
:101BC00030E008C0ED91FC911197E20FF31F1082F5
:101BD0002F5F3F4FFD01848195812817390790F3CE
:101BE0000895EF92FF920F931F93CF93DF937C01A1
:101BF000C0E0D0E00FC0F701008111810C0F1D1F64
:101C0000F8018081992787FD90950E94A21DF80117
:101C100080832196F70182819381C817D90758F3F1
:101C2000DF91CF911F910F91FF90EF900895EF9268
:101C3000FF920F931F93CF93DF937C01C0E0D0E01E
:101C40000FC0F701008111810C0F1D1FF801808169
:101C5000992787FD90950E949C1DF801808321960D
:101C6000F70182819381C817D90758F3DF91CF918B
:101C70001F910F91FF90EF9008950F931F93FC0118
:101C8000062F142F0190F081E02D01C01083602FEA
:101C9000772767FD7095CF010E94DA19FC01892B27
:101CA000A9F71F910F910895CF93DF93FC018281D3
:101CB00093814817590760F4C081D181772767FD68
:101CC0007095CE01840F951F0E94DA19009719F4C0
:101CD0008FEF9FEF02C08C1B9D0BDF91CF9108957A
:101CE00040E050E00E94540E0895CF93DF93DC0152
:101CF000FB01EC012A813B818281938128173907FE
:101D000018F4C0E0D0E010C0C0E0D0E06081718184
:101D1000281B390B8D919C91820F931F0E94E6190D
:101D2000892B11F4C1E0D0E0CE01DF91CF9108956D
:101D30001F93FC0110E0808191810E94E619892B9C
:101D400009F411E0812F99271F9108950F931F9394
:101D5000CF93DF938C01DC01CD91DC91DE0101C0DA
:101D600011968C918930E1F38D30D1F38A30C1F333
:101D70008032B1F38131A1F3FE0101900020E9F737
:101D80003197EC1BFD0BAF01BD01CE010E94BD19C7
:101D9000E801E881F981DF010D900020E9F7AE1B31
:101DA000BF0B129702C010821197E801E881F981F8
:101DB000EA0FFB1F80818930B1F38D30A1F38A30A7
:101DC00091F3803281F3813171F3DF91CF911F91D3
:101DD0000F910895EF92FF920F931F938C017B0157
:101DE000CB0101960E946018F80191838083F582EF
:101DF000E48213821282C8010E94DE0D1F910F91AE
:101E0000FF90EF900895EF92FF920F931F938C0134
:101E10007B01CB0101960E946018F80191838083B9
:101E2000F582E48213821282C8010E94DE0D1F91A6
:101E30000F91FF90EF900895AF92BF92CF92DF92F3
:101E4000EF92FF920F931F937B018C015A0181E265
:101E500090E00E9460186C019501AC01C801B701C7
:101E60000E942A1AC6011F910F91FF90EF90DF90F8
:101E7000CF90BF90AF900895AB01AA2797FDA09592
:101E8000BA2FBC01CD010E941C0F0895CF93DF93A0
:101E9000DC01FB019A0142815381EC018A819B8123
:101EA000841B950B8217930718F4C0E0D0E00EC096
:101EB000C0E0D0E0608171818D919C91820F931F71
:101EC0000E94F019892B11F4C1E0D0E0CE01DF911E
:101ED000CF910895CF93DF93DC01FB01EC012A81C0
:101EE0003B81828193812817390718F480E090E0C4
:101EF00006C040E050E0CD010E94460F9927DF91D7
:101F0000CF910895CF93DF93FC01DB018281938110
:101F10004817590758F4C081D1816D917C91CE0149
:101F2000840F951F0E940D1A009719F48FEF9FEFF1
:101F300002C08C1B9D0BDF91CF91089540E050E0D3
:101F40000E94820F0895FC01808191810E940D1AE8
:101F5000009711F081E090E008950F931F93CF93C5
:101F6000DF93EC014A815B814F5F5F4F88819981EC
:101F70000E94FE19E881F9818A819B81E80FF91F8F
:101F80001082DF91CF911F910F910895EF92FF92F0
:101F90000F931F938C017B01FB0182819381F801D8
:101FA000958384839383828301960E946018F8014D
:101FB00091838083C8010E94DE0DF70160817181E9
:101FC000C8010E94AD0F1F910F91FF90EF900895EF
:101FD000EF92FF920F931F938C017B01FB01828193
:101FE0009381F801958384839383828301960E9471
:101FF0006018F80191838083C8010E94DE0DF7010B
:1020000060817181C8010E94AD0F1F910F91FF90F7
:10201000EF900895EF92FF920F931F93CF93DF936A
:102020008C017B01672B21F48AE3E82E81E0F82EF6
:10203000F70101900020E9F73197EE19FF09E80157
:10204000FB83EA83FD83EC83CF0101960E94601835
:1020500099838883C8010E94DE0DB701C8010E94E0
:10206000AD0FDF91CF911F910F91FF90EF900895E9
:10207000CF92DF92EF92FF921F93CF93DF936C0189
:102080007B01E9012417350714F4EA01A901F701DE
:10209000828193818C179D0720F481E090E00E945B
:1020A000B51DD701ED91FC911197EC0FFD1F10812B
:1020B00010826D917C91640F751FC6010E940A10F9
:1020C000D701ED91FC91EC0FFD1F1083C601DF914C
:1020D000CF911F91FF90EF90DF90CF9008950F93D5
:1020E0001F938C01FB01228133810E943810C801AB
:1020F0001F910F910895EF92FF920F931F93CF932B
:10210000DF93CDB7DEB726970FB6F894DEBF0FBECC
:10211000CDBF7C01FB01608171818E010F5F1F4F7C
:10212000C8010E940A10B801C7010E947B109927BC
:1021300026960FB6F894DEBF0FBECDBFDF91CF91CC
:102140001F910F91FF90EF900895EF92FF920F93E0
:102150001F93CF93DF938C017B01672B21F49AE3CC
:10216000E92E91E0F92EF70101900020E9F731976F
:10217000EE19FF09E801FB83EA83FD83EC83CF01BD
:1021800001960E94601899838883C8010E94DE0D21
:10219000B701C8010E94AD0FDF91CF911F910F9140
:1021A000FF90EF900895FF920F931F93CF93DF93CB
:1021B000EC01F62E2A813B818C819D8128173907FD
:1021C000A1F408811981C9010196880F991F9D8387
:1021D0008C8301960E94601899838883B801CE0190
:1021E0000E94AD0FC8010E940319EA81FB81A881FA
:1021F000B981AE0FBF1FFC923196FB83EA838881C1
:102200009981E80FF91F1082CE01DF91CF911F91C4
:102210000F91FF9008950E94D31008950F931F937C
:10222000CF93DF93EC018B01672B11F40AE311E0EC
:10223000F80101900020E9F73197E01BF10BFB83D7
:10224000EA838C819D818E179F0768F4FD83EC8360
:10225000888199810E9403198A819B8101960E943D
:10226000601899838883CE010E94DE0DB801CE01EB
:102270000E94AD0FDF91CF911F910F9108950F93A1
:102280001F93CF93DF93EC018B018617970729F1FA
:10229000FB01228133818C819D818217930770F429
:1022A000888199810E940319F801828193819D831D
:1022B0008C8301960E94601899838883F80182813B
:1022C00093819B838A83CE010E94DE0DF801608199
:1022D0007181CE010E94AD0F8E01C801DF91CF91B7
:1022E0001F910F910895EF92FF920F931F93CF9339
:1022F000DF93CDB7DEB726970FB6F894DEBF0FBEDB
:10230000CDBF7C0160E170E08E010F5F1F4FC801FF
:102310000E94EA0EB801C7010E943F1126960FB62F
:10232000F894DEBF0FBECDBFDF91CF911F910F910B
:10233000FF90EF900895EF92FF920F931F93CF932A
:10234000DF93CDB7DEB726970FB6F894DEBF0FBE8A
:10235000CDBF7C0160E170E08E010F5F1F4FC801AF
:102360000E94EA0EB801C7010E943F1126960FB6DF
:10237000F894DEBF0FBECDBFDF91CF911F910F91BB
:10238000FF90EF900895EF92FF920F931F93CF93DA
:10239000DF93EC017B012A813B81FB0182819381E8
:1023A000280F391F3B832A838C819D8182179307D5
:1023B00088F4088119813D832C83C90101960E940C
:1023C000601899838883B801CE010E94AD0FC801BF
:1023D0000E940319F70160817181888199810E94AF
:1023E000CF19E881F9818A819B81E80FF91F10825A
:1023F000CE01DF91CF911F910F91FF90EF90089543
:102400000E94C3110895EF92FF920F931F93CF93F1
:10241000DF93EC017B01672B21F43AE3E32E31E0FB
:10242000F32E2A813B81F70101900020E9F73197D3
:10243000EE19FF092E0F3F1F3B832A838C819D815C
:102440008217930788F4088119813D832C83C90181
:1024500001960E94601899838883B801CE010E947A
:10246000AD0FC8010E940319B701888199810E94AC
:10247000CF19E881F9818A819B81E80FF91F1082C9
:10248000CE01DF91CF911F910F91FF90EF900895B2
:10249000EF92FF920F931F937C01CB01BA01A90128
:1024A0000E941C0F8C01BC01C7010E940312C801CD
:1024B0000E940319C7011F910F91FF90EF9008959B
:1024C0000F931F938C012AE030E00E944812C8014C
:1024D0001F910F9108950F931F938C01AB016627F5
:1024E00057FD6095762F2AE030E00E944812C8011F
:1024F0001F910F9108950F931F938C019A018827C4
:1025000077FD8095982FAB01BC01C8010E9448124D
:10251000C8011F910F9108950F931F938C012AE01A
:1025200030E00E944812C8011F910F9108950F9347
:102530001F938C01AB01662757FD6095762F2AE02B
:1025400030E00E944812C8011F910F9108950E9427
:1025500003120895DC01ED91FC910190F081E02DD2
:10256000099508950E94AA1208950F931F93CF937F
:10257000DF938C01EB0104C02196C8010E94B212C6
:1025800068816623C9F7DF91CF911F910F9108955C
:102590000F931F938C016DE00E94B2126AE0C80194
:1025A0000E94B2121F910F9108950F931F938C01F7
:1025B0000E94B212C8010E94C8121F910F91089583
:1025C0000F931F938C010E94B512C8010E94C8127C
:1025D0001F910F9108950F931F938C010E94AA12CF
:1025E000C8010E94C8121F910F9108952F923F9227
:1025F0004F925F926F927F928F929F92AF92BF9213
:10260000CF92DF92EF92FF920F931F93CF93DF93BE
:10261000CDB7DEB7A0970FB6F894DEBF0FBECDBF23
:102620001C016A017B01411551056105710521F409
:1026300060E30E94B2123EC0882499245401422EC5
:1026400055246624772401E010E00C0F1D1F080DAF
:10265000191DC701B601A30192010E94591DF8017D
:1026600060830894811C911CA11CB11CC701B60198
:10267000A30192010E94591D69017A0121153105BA
:102680004105510591F0DFCF089481089108A10818
:10269000B108FE01E80DF91D61816A3010F4605D3A
:1026A00001C0695CC1010E94B21281149104A104AD
:1026B000B10451F7A0960FB6F894DEBF0FBECDBFA0
:1026C000DF91CF911F910F91FF90EF90DF90CF900E
:1026D000BF90AF909F908F907F906F905F904F9042
:1026E0003F902F9008952AE00E94F61208950F93CC
:1026F0001F938C010E947313C8010E94C8121F917E
:102700000F910895AB01662777270E9473130895F0
:102710000F931F938C010E948213C8010E94C8125C
:102720001F910F910895EF92FF920F931F93CF93F4
:10273000DF93EC017A018B0177FF0BC06DE20E9401
:10274000B21210950095F094E094E11CF11C011D6B
:10275000111D2AE0B801A701CE010E94F612DF91F7
:10276000CF911F910F91FF90EF9008950F931F93BA
:102770008C010E949313C8010E94C8121F910F91EF
:1027800008952115310521F4642F0E94B212089595
:102790002A30310519F40E94931308950E94F6120D
:1027A00008950F931F938C010E94C113C8010E94CA
:1027B000C8121F910F9108950E94C11308950F939D
:1027C0001F938C010E94DC13C8010E94C8121F9144
:1027D0000F910895EF92FF920F931F937B019A013F
:1027E00000271127B801A7010E94C1131F910F9163
:1027F000FF90EF9008950F931F938C010E94EA13AE
:10280000C8010E94C8121F910F910895EF92FF9284
:102810000F931F937B019A010027F7FC0095102F5F
:10282000B801A7010E94C1131F910F91FF90EF9073
:1028300008950F931F938C010E940614C8010E94F3
:10284000C8121F910F910895AB01662757FD60953F
:10285000762F0E94931308950F931F938C010E946B
:102860002414C8010E94C8121F910F9108955F920D
:102870006F927F928F929F92AF92BF92CF92DF9290
:10288000EF92FF920F931F93CF93DF93EC013A01E6
:102890004B01522E622F772767FD7095872F972F58
:1028A0000E941D1B57FE06C020E030E040E853E4C4
:1028B0000E94781A9B01AC0160E070E080E291E434
:1028C0000E94F81B7B018C019B01AC01C401B30188
:1028D0000E94BA1A0E94271B5B016C01A801970194
:1028E0000E94B01B9B01AC01C401B3010E94771A86
:1028F000A80197010E94BA1A3B014C01C601B5011B
:102900000E94001BAB01BC01CE010E9493136BE33C
:1029100071E0CE010E94B51227C020E030E040E215
:1029200051E4C401B3010E94B01B0E94271B7B012C
:102930008C010E94001BCE010E94241420E030E094
:1029400040E251ECC801B7010E94BA1A9B01AC01E8
:10295000C401B3010E94781A20E030E040E251E463
:102960000E94B01B3B014C015A948FEF5816A9F6F8
:10297000DF91CF911F910F91FF90EF90DF90CF905B
:10298000BF90AF909F908F907F906F905F900895D1
:10299000AF92BF92CF92DF92EF92FF920F931F936D
:1029A0005C017A018B016901B901882777FD809567
:1029B000982F0E941D1B9B01AC0160E070E080E23B
:1029C00091E40E94F81B9B01AC01C801B7010E9471
:1029D000B01BAB01BC012C2DC5010E9437141F9107
:1029E0000F91FF90EF90DF90CF90BF90AF90089540
:1029F0000F931F938C010E94C814C8010E94C81233
:102A00001F910F9108950F931F938C01CB01BA0171
:102A100020E030E048EC52E40E94B01BAB01BC0166
:102A200022E0C8010E9437141F910F9108950F935F
:102A30001F938C010E940315C8010E94C8121F91A8
:102A40000F9108950F931F938C01CB010E94DA0D13
:102A5000BC01C8010E94B5121F910F9108950F93F8
:102A60001F938C010E942215C8010E94C8121F9159
:102A70000F910895FC0181E491E0918380836623A6
:102A800011F41282089581E082830895FC0181E4AB
:102A900091E091838083662311F41282089581E08E
:102AA00082830895019769F46F5F7F4F51F460E06E
:102AB00089EC91E00E94461561E08CEC91E00E9467
:102AC000461508956FEF7FEF81E090E00E94521568
:102AD0000895FC0182810E945F170895CF93DF93D0
:102AE000CDB7DEB721970FB6F894DEBF0FBECDBFCE
:102AF000698341E0BE016F5F7F4FFC0182810E94CC
:102B0000131721960FB6F894DEBF0FBECDBFDF912D
:102B1000CF910895FC0182810E94B2160895FC01B4
:102B200082810E94491699270895FC0182810E94A2
:102B300081170895FC018FB7F89457834683118657
:102B400010867183608373836283758364838FBF10
:102B50000895DC017FB7F894FC01208531858681DA
:102B6000978128173907D8F4ED91FC91119761935B
:102B70001196FC93EE93FD018085918501969187D6
:102B800080874481558186819781840F951F2D917F
:102B90003C9111972817390710F04D935C937FBF34
:102BA0000895CF93DF93DC014FB7F894EC0188854B
:102BB0009985009711F45FEF14C0ED01EA81FB8164
:102BC0005191FB83EA830197998788872C813D8106
:102BD0008E819F81820F931FE817F90710F03B83C6
:102BE0002A834FBF852F992787FD9095DF91CF913D
:102BF0000895FC018FB7F8948FBF808599270895B9
:102C0000FC012FB7F89480859185892B11F480E021
:102C100004C00280F381E02D80812FBF99270895A1
:102C2000EF92FF921F93CF93DF93DC011FB7F894CD
:102C3000EC01488559854115510509F1EA81FB816F
:102C4000ED90FC90119770E017C080818617C1F05D
:102C50007F5F872F99278417950788F49F012F5F3F
:102C60003F4FED01EC81FD818E819F818E0F9F1F73
:102C70008217930708F0F901EE15FF0531F760E0C0
:102C80001FBF862F9927DF91CF911F91FF90EF9063
:102C90000895882331F48FEF93E00E94F915992766
:102CA00008958BEE93E00E94F915992708951F92DD
:102CB0000F920FB60F9211242F933F934F935F9370
:102CC0006F937F938F939F93AF93BF93EF93FF93F4
:102CD00089E094E00E94F915882331F089E094E0BE
:102CE0000E94D11580939C00FF91EF91BF91AF910D
:102CF0009F918F917F916F915F914F913F912F9114
:102D00000F900FBE0F901F9018951F920F920FB645
:102D10000F9211242F933F934F935F936F937F9361
:102D20008F939F93AF93BF93EF93FF9385EF93E0C0
:102D30000E94F915882329F085EF93E00E94D115B0
:102D40008CB9FF91EF91BF91AF919F918F917F913E
:102D50006F915F914F913F912F910F900FBE0F9008
:102D60001F901895882329F48FEF93E00E94D115C6
:102D700008958BEE93E00E94D11508951F920F9253
:102D80000FB60F9211242F933F934F935F936F933E
:102D90007F938F939F93AF93BF93EF93FF93609134
:102DA0009C0080919B0084FD04C08BEE93E00E9408
:102DB000A915FF91EF91BF91AF919F918F917F9155
:102DC0006F915F914F913F912F910F900FBE0F9098
:102DD0001F9018951F920F920FB60F9211242F93E8
:102DE0003F934F935F936F937F938F939F93AF9393
:102DF000BF93EF93FF936CB15C9904C08FEF93E0A6
:102E00000E94A915FF91EF91BF91AF919F918F9172
:102E10007F916F915F914F913F912F910F900FBED6
:102E20000F901F901895FF920F931F93CF93DF93EE
:102E3000EB01042F4423E9F1FFB6F8948823A9F1AC
:102E400036C0FE01E10FF11D608185EF93E00E9425
:102E5000A9151F5F1017A9F75E9A5D9BFECF85EF3E
:102E600093E00E94D1158CB91AC0FE01E10FF11D4B
:102E7000608189E094E00E94A9151F5F1017A9F7EF
:102E800080919B00806480939B0080919B0085FFD4
:102E9000FCCF89E094E00E94D11580939C008FB70D
:102EA00090E8F9228F298FBF04C010E0CACF10E04C
:102EB000DCCFDF91CF911F910F91FF900895882370
:102EC00079F440E850E06FEC71E08FEF93E00E94FE
:102ED0009A1540E850E06FE472E085EF93E00EC091
:102EE00040E850E06FEC72E08BEE93E00E949A15A0
:102EF00040E850E06FE473E089E094E00E949A15A6
:102F00000895DF92EF92FF920F931F93D82E7A01CC
:102F10008B01F4E0EE0CFF1C001F111FFA95D1F796
:102F200060E074E284EF90E0A80197010E94591DCF
:102F3000A80197015695479537952795621773070E
:102F40008407950748F060E074E284EF90E0A80100
:102F500097010E94591D0AC060E074E284EF90E07E
:102F6000A80197010E94591D21503040832F9927B5
:102F7000DD20A1F48093900029B988ED8AB940E85A
:102F800050E06FEC71E08FEF93E00E949A1540E8FB
:102F900050E06FE472E085EF93E015C080939800F5
:102FA0002093990088ED80939A0040E850E06FEC00
:102FB00072E08BEE93E00E949A1540E850E06FE4D7
:102FC00073E089E094E00E949A151F910F91FF90A1
:102FD000EF90DF90089560917F017091800140E053
:102FE00050E089EC91E00E94061463E471E089EC02
:102FF00091E00E94B51260917F017091800189EC8F
:1030000091E00E9424146BE471E089EC91E00E944D
:10301000B51260917F017091800140E150E089EC30
:1030200091E00E94061463E571E089EC91E00E9452
:10303000B51260917F017091800148E050E089EC09
:1030400091E00E9406146BE571E089EC91E00E942A
:10305000B51260917F017091800142E050E089ECEF
:1030600091E00E94191480917F01909180018E3728
:10307000910509F4FFCF01969093800180937F0121
:1030800064E670E080E090E00E94030108950F93F1
:103090001F9309EC11E040E855E260E070E0C801E0
:1030A0000E94951563E671E0C8010E94E01264E693
:1030B00070E080E090E00E9403011F910F9108955D
:1030C000CF93DF93AC01029710F442E050E0A0915F
:1030D0001504B0911604FD01C0E0D0E020E030E01E
:1030E00020C0808191818417950769F48281938142
:1030F000209719F09B838A8304C0909316048093D1
:103100001504CF0132C04817590738F4211531058D
:1031100019F08217930708F49C01EF010280F381F4
:10312000E02D3097F1F62115310589F1C901841B95
:10313000950B049708F4A901E0E0F0E026C08D911A
:103140009C91119782179307E9F44817590779F46E
:10315000ED018A819B81309719F09383828304C0AB
:103160009093160480931504CD01029649C0841BE8
:10317000950BFD01E80FF91F4193519302978D9331
:103180009C933AC0FD01A281B3811097C1F6809152
:10319000130490911404892B41F480918301909140
:1031A000840190931404809313042091850130913D
:1031B00086012115310541F42DB73EB7809181017B
:1031C00090918201281B390BE0911304F0911404B3
:1031D0002E1B3F0B2417350788F0CA0102962817CB
:1031E000390760F0CF01840F951F02969093140465
:1031F0008093130441935193CF0102C080E090E08B
:10320000DF91CF910895CF93DF93009709F44EC0DB
:10321000EC0122971B821A82A0911504B09116042A
:10322000109711F140E050E001C0DC01AC17BD0780
:1032300000F1BB83AA83FE0121913191E20FF31FBC
:10324000EA17FB0771F42E5F3F4F8D919C91119708
:10325000820F931F99838883FD01828193819B83D1
:103260008A834115510559F4D0931604C09315046F
:103270001DC0FD0182819381AD010097B1F6FA0175
:10328000D383C28321913191E20FF31FEC17FD0725
:1032900069F42E5F3F4F88819981820F931FFA0155
:1032A000918380838A819B8193838283DF91CF91F5
:1032B0000895AF92BF92CF92DF92EF92FF920F9359
:1032C0001F93CF93DF93EC01E880F9800A811B8183
:1032D000C801B7012DE133EF41E050E00E94591DD4
:1032E00027EA31E440E050E00E943A1D5B016C01A6
:1032F000C801B7012DE133EF41E050E00E94591DB4
:10330000CA01B90124E13BE040E050E00E943A1DCF
:10331000A61AB70AC80AD90A1A141B041C041D04E9
:1033200044F08FEF9FEFAFEFBFE7A80EB91ECA1EA4
:10333000DB1EA882B982CA82DB82C5019F77DF913A
:10334000CF911F910F91FF90EF90DF90CF90BF90A2
:10335000AF9008950E945919089587E891E00E945E
:1033600059190895AA27BB27809387019093880154
:10337000A0938901B0938A0108956817790768F4CA
:10338000FB01DC01E40FF51FA40FB51F02C0029082
:103390000E9241505040D8F708950C945E1AFB01EC
:1033A000DC010D900020E9F7119701900D920020AB
:1033B000E1F70895FC010190061629F00020D9F7E5
:1033C0008827992708953197CF010895FB01DC01E3
:1033D0008D910190801911F40020D1F7990B089577
:1033E000FB01DC014150504030F08D91019080197B
:1033F00019F40020B9F7881B990B0895FB01DC0133
:103400004150504048F001900D920020C9F701C092
:103410001D9241505040E0F70895DC01FB014191BD
:10342000442309F40895FB0141912D91222369F071
:103430002417CD01D1F74191442351F02C9122233F
:1034400021F0241781F71196F6CF88279927089540
:1034500001970895FA01CF93FF93EF93223044F13F
:10346000253234F5C22FE894CA3049F497FB3EF474
:1034700090958095709561957F4F8F4F9F4F2C2F22
:10348000332744275527FF93EF930E94591DEF914F
:10349000FF91605D6A330CF0695D6193B901CA0107
:1034A000605070408040904051F716F4CDE2C193D7
:1034B00010828F919F91CF910C94671AFB01DC01D0
:1034C00002C001900D9241505040D8F70895DC01A0
:1034D000FC0101900020E9F73297AE17BF0730F4E6
:1034E0007C916081708331976D93F7CF0895505828
:1034F000192E08D101D0EBC0BA17620773078407F1
:103500009507B1F188F40EF410940B2EBA2FA02D6C
:10351000062E622F202D072E732F302D082E842F7C
:10352000402D092E952F502DFF275523B9F0591BFB
:1035300049F0573E98F0469537952795A795F04066
:103540005395C9F776F0BA0F621F731F841F30F4CA
:10355000879577956795B795F040939517FA0F2E55
:103560000895BF1BBB27BA0B620B730B840BF6CFFE
:10357000DEF6F4C0C7D001D0AAC0552359F0992374
:1035800069F09F575F57951B33F442F4903811F45C
:10359000915805C0B4C091589F3F09F4DFC0BB27C4
:1035A000112462177307840730F4660F771F881F92
:1035B000BB1F915098F311D00F920FD00F920DD0E6
:1035C000A0E82617370748071B0609F0A048BA2FBE
:1035D000602D7F918F9100240895A0E80024621748
:1035E00073078407B10528F0621B730B840BB109C4
:1035F0000A2A660F771F881FBB1FA69581F70895BB
:1036000097FB8CD09F3738F0FEE9F91B982F872F56
:10361000762F6B2F05C09FC09695879577956795F8
:10362000F150D0F73EF490958095709561957F4F5D
:103630008F4F9F4F0895E89403C097FB0EF4F3DF7C
:10364000B62F672F782F892F9EE9002440C074D0B1
:103650009F3760F40EF07FC09FEB80E877276627E6
:103660000895869577956795B11D93959639C8F31A
:103670002EF4BB2319F06F5F7F4F8F4FBB2727C0FE
:103680000ED05EF004C00BD026F001C008D019F0B7
:1036900020F48FEF089580E0089581E0089597FB6E
:1036A000092E052600F8689430D0E89407FC07C07E
:1036B000621773078407950721F008F400940794B4
:1036C000989408959A95BB0F661F771F881F112441
:1036D0009923A1F08823B2F79F3F59F0BB0F48F41C
:1036E00021F4002011F460FF04C06F5F7F4F8F4F03
:1036F0009F4F881F9795879597F908952CC09FEF46
:1037000080EC0895052E092607FA440F551F5F3FE8
:1037100079F0AA27A51708F051E04795880F991F5F
:103720009F3F31F0BB27B91708F091E087950895C6
:103730009F919F911124E3CF97FB880F991F9F3F83
:1037400031F0BB27B91708F091E0879508959F9154
:103750009F911124D4CF662777278827992708952A
:10376000D1DF01D0B4CF992339F0552329F09F57E9
:103770005F57950F13F49AF1F1CF91589F3FE1F302
:10378000629FA12D0F92BB27639FA00DB11DEE2755
:10379000729FA00DB11DEE1FAF93AA27649FB00DBD
:1037A000E11D739FB00DE11DAA1F6627829FB00D1A
:1037B000E11DA61F5527749FE00DA11D551F839F76
:1037C000E00DA11D561F849FA00D511D852F7A2F3E
:1037D0006E2F1F900F9088231AF4939539F48FCF92
:1037E000000C111CBB1F661F771F881F012808953E
:1037F0003CD038F02ED060F186F021F436D009F0BC
:103800003EF57DCF5F934F933F932F93CBD02F9176
:103810003F914F915F91A4DF34C027D098F389F096
:103820000894E795D901AA2329F4AB2FBE2FF85F9E
:10383000D0F3E8CFFF5F30F7A695E0F7F73908F34C
:1038400009F09F779F939F77DDDFEF91E0789E27C8
:103850000895E894FC01EE0FFF1F30966105710595
:1038600019F0F395F14097FB0895E894FA01EE0FF3
:10387000FF1F30962105310519F0F395F14057FBF4
:103880000895092E99234AF052E441EB32E768315A
:1038900073078407950758F032CF9F7752E44EEABA
:1038A0003CEA603573078407950708F054CF0F9200
:1038B0005FE348EB3AEA2BE353DFFF92EF92DF92AC
:1038C000CF9250E04CE097D0EEE8F0E026D05F2DAC
:1038D0004E2D3D2D2C2DCF90DF90EF90FF90FEE9E7
:1038E0004595441F551FF51B5527406804C0469554
:1038F000379527955795FA95D2F7452F550F550BC4
:103900003FD00F9007FC01C008959B01AC019FE3DD
:1039100080E8772766270C94BA1AFF92EF92DF921D
:10392000CF92BF926B017C01B59016D0B590BB20B1
:1039300069F09F938F937F936F93B601C7010CD06B
:103940002F913F914F915F910E94BA1ABF90CF90F3
:10395000DF90EF90FF9008957ED002C09601A701FE
:10396000EF93FF930E94B01BFF91EF9174D0EF9300
:10397000FF930E94781AFF91EF91BA9479F7089516
:10398000DBDE992359F0AA27940FA51F43F032F0EC
:103990004FEF50E09417A50714F499CEDCCE0EF04B
:1039A00064C05EC097FDABCEC7DE992309F4A7CEF5
:1039B000FF92EF92DF92CF92C92E9FE38F77ECEACE
:1039C000F0E0ABDF0C2CC92ED82EE72EF62E602DA2
:1039D0006E57770B872F972F30DE5FE341E332E797
:1039E00028E1BEDE5C2D4D2D3E2D2F2DCF90DF909A
:1039F000EF90FF907DCDA0DECF93DF93D52FC42F26
:103A000055274427332722279923D9F09F37C8F019
:103A1000F92F5DDE592F482F372F262FF63968F4FE
:103A2000EFDD0BDEC030CD0721F0699379938993E8
:103A300099939058DF91CF915BCD9927882777276D
:103A40006627C030CD0721F02993399349935993C4
:103A5000DF91CF913CCE55914591359125910895B7
:103A60009FEF80E870E060E008959FE780E870E0F5
:103A700060E00895629FD001739FF001829FE00D86
:103A8000F11D649FE00DF11D929FF00D839FF00DDD
:103A9000749FF00D659FF00D9927729FB00DE11D89
:103AA000F91F639FB00DE11DF91FBD01CF01112466
:103AB0000895A1E21A2EAA1BBB1BFD010DC0AA1F6F
:103AC000BB1FEE1FFF1FA217B307E407F50720F087
:103AD000A21BB30BE40BF50B661F771F881F991F02
:103AE0001A9469F760957095809590959B01AC014B
:103AF000BD01CF01089597FB092E05260ED057FD75
:103B000004D0D7DF0AD0001C38F45095409530958A
:103B100021953F4F4F4F5F4F0895F6F79095809551
:103B2000709561957F4F8F4F9F4F0895EE0FFF1F48
:103B30000590F491E02D09948F930CD08F9109F0AA
:103B4000806208958F9306D08F9109F08F7D08953C
:103B500085FD08C08062911105C08136ECF38B377A
:0C3B6000DCF70895992788270895FFCF0F
:103B6C000102040810204080320035003B00380070
:103B7C00230062006500310034003A003700220057
:103B8C006100640030003300390036002100200051
:103B9C00630001FF201008804020002E0000000070
:103BAC00006E152C206465633A20002C2068657823
:103BBC003A20002C206F63743A20002C2062696E2E
:103BCC003A20004153434949205461626C65207E80
:103BDC0020436861726163746572204D61700021CD
:0C3BEC0000200017040000010000000091
:00000001FF
