:100000000C9463000C94B9030C94E6030C948B00DD
:100010000C948B000C948B000C948B000C948B0034
:100020000C948B000C948B000C948B000C948B0024
:100030000C948B000C948B000C948B000C948B0014
:100040000C9465010C948B000C94FF0E0C948B00A7
:100050000C948B000C948B000C948B000C948B00F4
:100060000C948B000C948B000000000024002700EF
:100070002A0000000000250028002B0000000000DE
:1000800023002600290004040404040404040202DA
:100090000202020203030303030301020408102007
:1000A0004080010204081020010204081020000012
:1000B0000007000201000003040600000000000029
:1000C00000008904581011241FBECFEFD4E0DEBF1A
:1000D000CDBF11E0A0E0B1E0EAEAFAE202C005908B
:1000E0000D92AC36B107D9F713E0ACE6B1E001C030
:1000F0001D92A333B107E1F710E0C6ECD0E004C0D5
:100100002297FE010E944F15C23CD107C9F70E94F9
:100110005E010C9453150C9400000F931F93DF9312
:10012000CF93CDB7DEB7C054D0400FB6F894DEBF42
:100130000FBECDBF0E949906882371F08AE060E06F
:100140000E94F00262E370E080E090E00E94E6012D
:1001500080E00E949C067CC000916C0110916D01B2
:1001600081E00E945A02800F911F62E070E00E94BD
:10017000E91470936D0160936C0100916E01109110
:100180006F0182E00E945A02800F911F62E070E0CE
:100190000E94E91470936F0160936E0100917001E9
:1001A0001091710183E00E945A02800F911F62E05A
:1001B00070E00E94E91470937101609370010091E6
:1001C00072011091730184E00E945A02800F911F06
:1001D00062E070E00E94E914709373016093720111
:1001E00080917401909175018530910514F1CE01D3
:1001F00001960E946E040E94E20464E670E080E0D2
:1002000090E00E94E6011092750110927401109224
:100210006D0110926C0110926F0110926E0110929C
:1002200071011092700110927301109272010E947C
:100230009F068091740190917501019690937501CC
:100240008093740164E670E080E090E00E94E60133
:10025000C05CDF4F0FB6F894DEBF0FBECDBFCF91AD
:10026000DF911F910F91089580E895E20E94930617
:1002700081E067EC76E040E050E00E94890381E095
:1002800060E00E94D10282E060E00E94D10283E03F
:1002900060E00E94D10284E060E00E94D1028AE026
:1002A00061E00E94F0020E9444068AE090E065E06E
:1002B00070E042E350E00E94130408950E941D0282
:1002C0000E9434010E948D00FDCF1F920F920FB645
:1002D0000F9211242F933F938F939F93AF93BF93CC
:1002E00080917A0190917B01A0917C01B0917D0178
:1002F00030917E010196A11DB11D232F2D5F2D3759
:1003000020F02D570196A11DB11D20937E018093F1
:100310007A0190937B01A0937C01B0937D01809141
:10032000760190917701A0917801B09179010196C1
:10033000A11DB11D8093760190937701A093780160
:10034000B0937901BF91AF919F918F913F912F9180
:100350000F900FBE0F901F9018958FB7F8942091B3
:100360007A0130917B0140917C0150917D018FBFDA
:10037000B901CA0108956FB7F89486B590E0A0E07E
:10038000B0E0A89B08C00097A105B10521F480E06A
:1003900091E0A0E0B0E020917601309177014091AA
:1003A0007801509179016FBF542F432F322F2227AC
:1003B000280F391F4A1F5B1F82E0220F331F441F83
:1003C000551F8A95D1F7B901CA010895EF92FF929E
:1003D0000F931F937B018C018FB7F89420917A01C2
:1003E00030917B0140917C0150917D018FBF6FB7AF
:1003F000F89480917A0190917B01A0917C01B09159
:100400007D016FBF821B930BA40BB50BE816F90699
:100410000A071B0760F71F910F91FF90EF90089557
:10042000019751F0880F991F880F991F02972FB7D6
:10043000F8940197F1F72FBF0895789484B58260FE
:1004400084BD84B5816084BD85B5826085BD85B578
:10045000816085BDEEE6F0E0808181608083E1E827
:10046000F0E0808182608083808181608083E0E829
:10047000F0E0808181608083E1EBF0E08081846046
:100480008083E0EBF0E0808181608083EAE7F0E048
:1004900080818460808380818260808380818160AC
:1004A00080838081806880831092C100089580934A
:1004B000000108958770909100019295990F990F0E
:1004C000907C982B90937C0080917A00806480933C
:1004D0007A0080917A0086FDFCCF209178003091DF
:1004E0007900932F80E030E0282B392BC901089543
:1004F0001F93CF93DF93182FEB0161E00E94D1028D
:10050000E12FF0E0E255FF4F8491833051F4809168
:100510008000806880938000D0938900C093880019
:100520003CC0843051F480918000806280938000D0
:10053000D0938B00C0938A0030C0813039F420976B
:1005400029F184B5806884BDC7BD27C0823039F4E5
:100550002097E1F084B5806284BDC8BD1EC086309E
:1005600041F48091B00080688093B000C093B300E4
:1005700014C0873041F48091B00080628093B00055
:10058000C093B4000AC0C038D1051CF4812F60E0CC
:1005900002C0812F61E00E94F002DF91CF911F9194
:1005A0000895282F30E0C90186569F4FFC01949191
:1005B000F901EA57FF4FE491EE2389F0F0E0EE0FE6
:1005C000FF1FE859FF4FA591B491662329F48C9140
:1005D000909589238C9308958C91892B8C93089501
:1005E000482F50E0CA0182559F4FFC0194919A0117
:1005F00026563F4FF9012491FA01EA57FF4FE49143
:10060000EE23C9F1992331F1933021F490918000C8
:100610009F7705C0943031F4909180009F7D909336
:10062000800018C0913019F494B59F7704C09230BF
:1006300021F494B59F7D94BD0DC0963021F4909126
:10064000B0009F7705C0973029F49091B0009F7D4E
:100650009093B000F0E0EE0FFF1FEE58FF4FA59112
:10066000B491662329F48C91209582238C9308956C
:100670008C91822B8C930895282F30E0C9018255EC
:100680009F4FFC019491A90146565F4FFA01449196
:10069000F901EA57FF4FE491EE2319F420E030E02E
:1006A00036C0992331F1933021F4909180009F77E7
:1006B00005C0943031F4909180009F7D909380002C
:1006C00018C0913019F494B59F7704C0923021F48A
:1006D00094B59F7D94BD0DC0963021F49091B000EB
:1006E0009F7705C0973029F49091B0009F7D90933B
:1006F000B000F0E0EE0FFF1FE458FF4FA591B4915A
:100700008C9120E030E0842311F021E030E0C90139
:1007100008958230E8F4E82FF0E0EE0FFF1FE15873
:10072000FE4F71836083813041F0809169008C7F3E
:10073000842B80936900E89A089580916900440FA2
:10074000551F440F551F837F842B80936900E99ABE
:100750000895823068F4813011F0E89801C0E9987A
:10076000E82FF0E0EE0FFF1FE158FE4F11821082DC
:1007700008951F920F920FB60F9211242F933F935B
:100780004F935F936F937F938F939F93AF93BF9399
:10079000EF93FF9380917F0190918001009729F062
:1007A000E0917F01F09180010995FF91EF91BF9158
:1007B000AF919F918F917F916F915F914F913F91F9
:1007C0002F910F900FBE0F901F9018951F920F92B0
:1007D0000FB60F9211242F933F934F935F936F9314
:1007E0007F938F939F93AF93BF93EF93FF938091EA
:1007F000810190918201009729F0E0918101F091AF
:1008000082010995FF91EF91BF91AF919F918F91D7
:100810007F916F915F914F913F912F910F900FBEFC
:100820000F901F901895BF92CF92DF92EF92FF9298
:100830000F931F93CF93DF93182FEB01CC0FDD1F86
:1008400001E0BB24B3946A01EE24D7FCE094FE2CB3
:100850000AC0812F602F0E94F0020B25C701B6014C
:100860000E94E60121971C161D069CF3DF91CF9193
:100870001F910F91FF90EF90DF90CF90BF90089560
:10088000EF92FF921F93CF93DF93182FEB017A0122
:1008900064177507D4F4812FBE010E94780269E1C4
:1008A00070E080E090E00E94E6012596CE15DF051D
:1008B00094F30EC0812FBE010E94780269E170E0BE
:1008C00080E090E00E94E6012597EC16FD0694F387
:1008D000DF91CF911F91FF90EF90089520E130E0DC
:1008E000E0911302F0911402E20FF31FDC01A20F5A
:1008F000B31F4C9140832150304091F7E091130297
:10090000F0911402118A08958091100290911102C1
:1009100008950F931F93CF93DF9383E891E00E9494
:10092000680AC7E0D2E0CE0140E052EA63E170E03D
:100930000FEE1BEE28E030E40E94E70A85E592E026
:100940000E94CE068EE592E00E94B40881E792E014
:100950000E94DB0840911302509114028EE792E04E
:10096000BE0122E00E94E90C83E992E00E94E208C5
:10097000DF91CF911F910F910895AF92BF92CF92C7
:10098000DF92EF92FF920F931F93CF93DF935B0160
:100990006C0179018A01C7E0D2E0CE01B601A50160
:1009A0000E94FB0ACE01B801A7010E94070BDF914C
:1009B000CF911F910F91FF90EF90DF90CF90BF905C
:1009C000AF90089583E891E06EE772E00E94CB0D4E
:1009D00083E891E064EF71E00E94CA0E882361F120
:1009E00083E891E00E947E0A0E94CF06893879F55B
:1009F00083E891E00E947E0A63E972E00E948F071B
:100A000083E992E00E94E908882359F489E090E0A4
:100A100065E070E042E350E00E94130421E030E022
:100A200017C088E090E063E070E044EF51E00E947E
:100A3000130420E030E00CC088E090E062E070E059
:100A400042E350E00E9413042FEF3FEF01C00895EE
:100A5000C9010895EF92FF920F931F93DF93CF93F5
:100A6000CDB7DEB7E2970FB6F894DEBF0FBECDBFAD
:100A70007E010894E11CF11CC70140E050E060E0F9
:100A800070E00FEF1FE020E030E00E94E70A4091A5
:100A9000130250911402CE010996B70122E00E9480
:100AA000E90C8B85809380028C85809381028D85F3
:100AB000809382028E859F85909384028093830227
:100AC0008889998990938602809385028A899B8977
:100AD00090938802809387028C8980938902AAE888
:100AE000B2E0FE01759688E001900D928150E1F729
:100AF0008D8D809392020EE712E0C80168E00E949B
:100B00004B0D0E94E204F82EE92E40911302509101
:100B10001402CE014E9667E072E022E00E94E90CDA
:100B200088A1F801828389A183838AA184838BA110
:100B30009CA1968385838DA19EA1908787838FA199
:100B400098A59287818789A58387D8011C96FE0185
:100B5000BA9688E001900D928150E1F78AA98093BE
:100B600092028F2D9E2DE2960FB6F894DEBF0FBE37
:100B7000CDBFCF91DF911F910F91FF90EF9008951E
:100B8000CF93DF9383E891E00E94200E83E891E009
:100B90000E947E0AE5E5F2E0DC0189E00D90019219
:100BA0008150E1F785E592E00E94F306882309F47D
:100BB00068C085E592E00E94CF06813839F085E56E
:100BC00092E00E94CF06803809F053C085E592E09C
:100BD0000E94CF06813801F585E592E063E772E077
:100BE0000E946E0981E792E00E94300980930F0213
:100BF000C0911002D091110281E792E060E070E0B4
:100C00000E945C08FC0180818883C0911002D09111
:100C1000110281E792E01FC085E592E060E672E094
:100C20000E9494098EE592E00E94300980930F02A1
:100C3000C0911002D09111028EE592E060E070E068
:100C40000E945C08FC0180818883C0911002D091D1
:100C500011028EE592E061E070E00E945C08FC0108
:100C60008081898389E090E061E070E04AE050E0B3
:100C700006C088E090E061E070E049E150E00E9449
:100C80001304DF91CF910895DF93CF93CDB7DEB7F3
:100C900062970FB6F894DEBF0FBECDBFDE0111968E
:100CA000E7E0F1E082E101900D928150E1F7CE01A1
:100CB00001960E946E0462E370E080E090E00E9482
:100CC000E6010E942A050E94C005809110029091C1
:100CD000110261E071E00E94C912009769F48EE58B
:100CE00092E00E948E08E7E0F2E0DC0188E00D90DF
:100CF00001928150E1F70EC088E061E00E94F002AD
:100D000064EF71E080E090E00E94E60188E060E03E
:100D10000E94F00262960FB6F894DEBF0FBECDBF00
:100D2000CF91DF910895BC0183E891E00E94F40E19
:100D3000089580919C02089580939C02089581E01B
:100D400080939C02089564E170E080E090E00E944E
:100D5000E60183B7817F846083BF83B7816083BFEF
:100D600081E067EC76E040E050E00E94890383B7C1
:100D7000816083BF889583B78E7F83BF83B78E7F63
:100D800083BF80E00E94A90310929C0208958AE02C
:100D900061E00E94F0020895FFCF08950895FC01DC
:100DA00082810895FC01628308959C012D5F3F4F6D
:100DB000C9010895FC01638308959C012C5F3F4F96
:100DC000C9010895FC01648308959C012B5F3F4F86
:100DD000C9010895FC0165830895FC018681089589
:100DE000FC0166830895FC0187810895FC016783F7
:100DF0000895FC0180850895FC0160870895FC0139
:100E0000DB01828112968C931297878117968C93BF
:100E10001797858115968C931597808518968C93D6
:100E20001897868116968C931697838113968C93C8
:100E30001397848114968C9314970895DF93CF931E
:100E4000CDB7DEB728970FB6F894DEBF0FBECDBF83
:100E5000DC0187E491E011969C938E931B96FE0132
:100E6000319698E001900D929150E1F728960FB6D7
:100E7000F894DEBF0FBECDBFCF91DF910895DF9311
:100E8000CF93CDB7DEB728970FB6F894DEBF0FBE6D
:100E9000CDBFDC0187E491E011969C938E931B9665
:100EA000FE01319698E001900D929150E1F728965D
:100EB0000FB6F894DEBF0FBECDBFCF91DF9108957E
:100EC00008950895DC01ED91FC91119780810895BA
:100ED000DC01ED91FC911197318120E08281280F96
:100EE000311DC9010895DC01ED91FC9111978381B9
:100EF0000895DC01ED91FC91119784810895DC0146
:100F0000ED91FC91119785810895FC0180E001909D
:100F1000F081E02D9481992309F481E00895FC018A
:100F2000DB018081918111969C938E938281129630
:100F30008C931297878117968C93179785811596B6
:100F40008C931597808518968C93189786811696A2
:100F50008C931697838113968C93139784811496A0
:100F60008C93149708959C01255F3F4FC901089504
:100F7000DC011296ED91FC911397308520E081857C
:100F8000280F311DC9010895DC011296ED91FC91E5
:100F90001397828508958BE008951F93DC011696C0
:100FA0001C911697ED91FC910190F081E02D09952F
:100FB0001150181B812F1F910895CF93DF93FC01CF
:100FC000DB01EB012297808191819B838A8382815F
:100FD00012968C931297878117968C931797858119
:100FE00015968C931597808518968C931897868103
:100FF00016968C931697838113968C9313978481FE
:1010000014968C930190F081E02D2381808190E0F3
:10101000A0E0B0E0B82FAA2799278827820F911D5A
:10102000A11DB11D218130E040E050E0A90133272E
:101030002227820F931FA41FB51F328120E040E0BA
:1010400050E0820F931FA41FB51F8B879C87AD872D
:10105000BE87848190E0A0E0B0E0B82FAA2799274E
:101060008827258130E040E050E0A901332722277E
:10107000820F931FA41FB51F2781820F911DA11DF1
:10108000B11D368120E040E050E0820F931FA41F85
:10109000B51F8F87988BA98BBA8BDF91CF9108955D
:1010A00023E531E0FC0131832083089523E531E01D
:1010B000FC013183208308950F931F93CF93DF9317
:1010C0008B01DC011296CD91DC911397ED91FC918F
:1010D0000190F081E02D0995080F111D0C0F1D1FC7
:1010E000C801DF91CF911F910F9108952FE331E057
:1010F000FC013183208308952FE331E0FC0131832B
:1011000020830895DC011296ED91FC911397818163
:10111000308120E0280F311DC90108959C01255F11
:101120003F4FC9010895DF93CF93CDB7DEB728971E
:101130000FB6F894DEBF0FBECDBFDC018FE291E0A9
:1011400011969C938E931B96FE01319698E0019028
:101150000D929150E1F728960FB6F894DEBF0FBEBE
:10116000CDBFCF91DF910895DF93CF93CDB7DEB799
:1011700028970FB6F894DEBF0FBECDBFDC018FE21B
:1011800091E011969C938E931B96FE01319698E008
:1011900001900D929150E1F728960FB6F894DEBFBA
:1011A0000FBECDBFCF91DF91089527E331E0FC0161
:1011B00031832083089527E331E0FC0131832083CC
:1011C000089508950895DC01ED91FC9111978081B7
:1011D0000895DC01ED91FC91119781810895FC0146
:1011E00080E00190F081E02D9181992309F481E064
:1011F0000895FC01DB018081918111969C938E936F
:10120000828112968C931297878117968C931797E9
:10121000858115968C931597808518968C931897D1
:10122000868116968C931697838113968C931397C9
:10123000848114968C9314970895CF93DF93DC01E7
:101240001296CD91DC911397ED91FC910280F38180
:10125000E02D0995C80FD11D8881DF91CF910895A8
:10126000CF93DF93DC011296CD91DC911397ED9132
:10127000FC910280F381E02D0995C80FD11D898171
:10128000DF91CF9108950E94300990E0969587955F
:10129000817008950E94300990E096958795969503
:1012A0008795817008951F93DC0116961C911697FF
:1012B000ED91FC910190F081E02D09951150181BE2
:1012C000812F1F910895DC01ED91FC910280F38143
:1012D000E02D09958E5F089582E00895FC01DB0101
:1012E0008081918111969C938E93828112968C932A
:1012F0001297878117968C931797858115968C93F3
:101300001597808518968C931897868116968C93DE
:101310001697838113968C931397848114968C93DC
:101320001497089588E00895CF93DF93FC01DB01C3
:10133000EB012297808191819B838A83828112961F
:101340008C931297878117968C93179785811596A2
:101350008C931597808518968C931897868116968E
:101360008C931697838113968C931397848114968C
:101370008C930190F081E02D2381808190E0A0E0AA
:10138000B0E0B82FAA2799278827820F911DA11DA9
:10139000B11D218130E040E050E0A9013327222730
:1013A000820F931FA41FB51F328120E040E050E060
:1013B000820F931FA41FB51F8B879C87AD87BE87A5
:1013C000848190E0A0E0B0E0B82FAA279927882771
:1013D000258130E040E050E0A90133272227820F29
:1013E000931FA41FB51F2781820F911DA11DB11D41
:1013F000368120E040E050E0820F931FA41FB51F0C
:101400008F87988BA98BBA8BDF91CF910895089520
:101410000895FC01808191810895FC01DB018081A8
:10142000918111969C938E93828112968C93129740
:10143000878117968C931797858115968C931597AE
:10144000808518968C931897868116968C9316979C
:10145000838113968C931397848114968C9314979D
:101460000895FC01848190E00895FC0180819181C0
:101470000895FC01718360830895FC011782108632
:1014800015820895FC01178210861282138214823D
:101490001582168280E090E0A081B181A80FB91F6B
:1014A0001C92019684369105B9F70895FC011286C5
:1014B00011860E94420A0895FC0112861186148644
:1014C00015861782108615820E9691838083089563
:1014D000FC011286118614861586178210861582E5
:1014E0000E96918380830895FC0185858F5F8587A3
:1014F000882311F481E08587858508950895FC018E
:10150000DB01838113968C931397848114968C93BB
:101510001497828112968C931297868116968C93DB
:1015200016978081918111969C938E930895EF92E6
:101530000F931F93FC018DE491E09183808362837C
:1015400043833087278312870187E3861F910F919A
:10155000EF900895EF920F931F93FC018DE491E0BB
:101560009183808362834383308727831287018737
:10157000E3861F910F91EF900895FC016383089516
:10158000FC0183810895FC01818592850895FC0109
:1015900083850895FC01768365830895FC01858128
:1015A00096810895FC01878108950895089508950E
:1015B00008950F931F93FC014083518362837383CB
:1015C00004831583268337831F910F9108950F930A
:1015D0001F93FC01408351836283738304831583CB
:1015E000268337831F910F910895FC0160817181DB
:1015F000828193810895FC014083518362837383C8
:101600000895FC0164817581868197810895FC01AC
:1016100044835583668377830895AF92CF92EF9288
:10162000FF920F93CF93DF93FC0180E18283A3822B
:101630008CE090E090878783F286E186C38689E21A
:1016400091E091838083EF012C96862F972FDC0108
:1016500088E00D9009928150E1F7558B448B268BE1
:10166000078BDF91CF910F91FF90EF90CF90AF90CC
:101670000895AF92CF92EF92FF920F93CF93DF93A3
:10168000FC0180E18283A3828CE090E090878783D5
:10169000F286E186C38689E291E091838083EF013F
:1016A0002C96862F972FDC0188E00D9009928150AF
:1016B000E1F7558B448B268B078BDF91CF910F91F0
:1016C000FF90EF90CF90AF900895CF93DF93FC0100
:1016D00080E1828381E083838CE090E09087878340
:1016E00052874187238789E291E091838083EF01CC
:1016F0002C96862F972FDC0188E00D90099281505F
:10170000E1F78EEF9FEF958B848B168A178ADF9116
:10171000CF910895CF93DF93FC0180E1828381E034
:1017200083838CE090E0908787835287418723876B
:1017300089E291E091838083EF012C96862F972F89
:10174000DC0188E00D9009928150E1F78EEF9FEF68
:10175000958B848B168A178ADF91CF910895FC01AF
:10176000A581B681878515968C93A581B6818685DE
:1017700016968C93A581B681858517968C93A58145
:10178000B681848518968C93A581B6818389199634
:101790008C93A581B68182891A968C93A581B68196
:1017A00081891B968C93A581B68180891C968C9328
:1017B000A581B68185891D968C93A581B681848982
:1017C0001E968C93A581B68186891F968C93A581E0
:1017D000B681878950968C93509708959C01245F19
:1017E0003F4FC9010895FC01848995890895FC0142
:1017F00086890895FC0187890895DC011C96862F4F
:10180000972FFC0188E001900D928150E1F7089537
:10181000FC01758B648B0895FC01668B0895FC01B7
:10182000678B0895EF920F93FC0181E08283E3823E
:1018300083E090E09087878332872187038783E264
:1018400091E0918380837587648746870F91EF903D
:101850000895EF920F93FC0181E08283E38283E09D
:1018600090E09087878332872187038783E291E026
:10187000918380837587648746870F91EF900895E1
:10188000FC0181E08283838383E090E090878783FB
:1018900052874187238783E291E091838083758714
:1018A000648716860895FC0181E08283838383E048
:1018B00090E09087878352874187238783E291E076
:1018C000918380837587648716860895FC01A581BE
:1018D000B681858515968C93A581B68184851696EB
:1018E0008C93A581B681868517968C93179708955A
:1018F000FC01848595850895FC01758764870895AA
:10190000FC0186850895FC0166870895EF920F9388
:10191000CF93DF93FC011282E38289E090E090870D
:1019200087833287218703878DE191E091838083CC
:10193000EF012C96862F972FDC0188E00D900992FD
:101940008150E1F7448BDF91CF910F91EF90089593
:10195000EF920F93CF93DF93FC011282E38289E031
:1019600090E0908787833287218703878DE191E01C
:1019700091838083EF012C96862F972FDC0188E0DE
:101980000D9009928150E1F7448BDF91CF910F9137
:10199000EF900895CF93DF93FC01128281E083835F
:1019A00089E090E0908787835287418723878DE184
:1019B00091E091838083EF012C96862F972FDC0195
:1019C00088E00D9009928150E1F7148ADF91CF9160
:1019D0000895CF93DF93FC01128281E0838389E035
:1019E00090E0908787835287418723878DE191E03C
:1019F00091838083EF012C96862F972FDC0188E05E
:101A00000D9009928150E1F7148ADF91CF910895EA
:101A1000FC01A581B681878515968C93A581B68139
:101A2000868516968C93A581B681858517968C93AD
:101A3000A581B681848518968C93A581B68183890A
:101A400019968C93A581B68182891A968C93A5816B
:101A5000B68181891B968C93A581B68180891C965D
:101A60008C93A581B68184891D968C931D970895CA
:101A70009C01245F3F4FC9010895DC011C96862F0D
:101A8000972FFC0188E001900D928150E1F70895B5
:101A9000FC0184890895FC01648B0895CF93DF9342
:101AA000EC01ED81FE818EE78083ED81FE818B85E7
:101AB00090E002962F81820F911D9183ED81FE812E
:101AC0008B858E5F9F81890F8283E881F9810190E8
:101AD000F081E02DCE010995ED81FE818A8183831D
:101AE000ED81FE818B8184839F81492F50E04F5F80
:101AF0005F4F20E030E080E06D817E81FB01E20FEE
:101B0000F31FE3818E0F2F5F3F4F42175307A4F758
:101B10004B85442379F020E030E050E008C0E985AF
:101B2000FA85E20FF31FE0818E0F2F5F3F4F2417DE
:101B30003507ACF3690F711D8095FB018583DF913B
:101B4000CF910895CF93DF93EB014423B9F08881BF
:101B5000982F9D57923020F0813111F0833171F42C
:101B600081E293E04DE750E060E070E020E030E09B
:101B70000E940112488180E2482701C0488150E05C
:101B800060E070E081E293E020E030E00E9401122A
:101B9000DF91CF910895EF92FF920F931F93CF9310
:101BA000DF938C01EB018E589F4F9E838D83CB0179
:101BB0000E944E0DEE24FF2411C06D817E81E11440
:101BC000F10419F4C80140E004C06E0D7F1DC80186
:101BD00041E00E94A20D0894E11CF11C8F8190E06D
:101BE00004968E159F054CF78B85882399F0EE247B
:101BF000FF240BC069857A856E0D7F1DC80141E009
:101C00000E94A20D0894E11CF11C8B8590E0E8165F
:101C1000F90684F38F8190E005966D817E81680FCF
:101C2000791FC80141E00E94A20D81E293E00E9469
:101C30003410DF91CF911F910F91FF90EF90089595
:101C4000DF92EF92FF920F931F93CF93DF93EC01FC
:101C50008F81882321F48885882309F477C0CE01F9
:101C60000E94560A73C081E293E00E9410108B8795
:101C70009A85992329F08E3719F4CE010E94560ACD
:101C80008A85882391F08B858D3779F481E293E002
:101C90000E94FA0F882339F081E293E00E9410102D
:101CA00081278B8702C0098759C08985882321F045
:101CB0008B8581278B8719868A85833020F08C85D8
:101CC0009B85890F8C878A85813061F0813028F06F
:101CD000823061F0833091F40DC08B858E37F1F541
:101CE0000A873CC08B858B83DA8638C08B858C83D2
:101CF000EA8634C08B858A83FA8630C0853618F030
:101D000081E0888732C090E02C8130E02D5F3F4F2A
:101D10008217930781F48C858F3F29F48B858D83FF
:101D200081E08F8302C081E088878A8584508E831A
:101D30001A861C861AC0E881F981E80FF91F3497CA
:101D40008B8580838A858F5F8A8708C0A2E0DA2E20
:101D500001E0F3E0EF2EE4E0FE2E10E281E293E0FA
:101D60000E94FA0F882309F07ECFDF91CF911F9157
:101D70000F91FF90EF90DF900895CF93DF93EC01E8
:101D800003C0CE010E94200E8F818823D1F3DF9102
:101D9000CF910895CF92DF92EF92FF920F931F930E
:101DA000CF93DF93EC018B0177FD14C00E94AD014E
:101DB0006B017C0108C0CE010E94200E8F81882318
:101DC00011F081E008C00E94AD016C197D09601717
:101DD00071078CF380E0DF91CF911F910F91FF90FD
:101DE000EF90DF90CF900895CB01AC01662757FDAF
:101DF0006095762F81E293E00E94990F08951F92DB
:101E00000F920FB60F9211242F933F934F935F932E
:101E10006F937F938F939F93AF93BF93EF93FF93B2
:101E20004091C60020911D0330911E03C901019607
:101E300060E870E00E94E914BC0180911F0390915A
:101E400020036817790741F023563D4FF90140837D
:101E500070931E0360931D03FF91EF91BF91AF91AB
:101E60009F918F917F916F915F914F913F912F91B2
:101E70000F900FBE0F901F9018958F92AF92CF9238
:101E8000DF92EF92FF920F931F93DF93CF93CDB723
:101E9000DEB7FC0189E591E09183808373836283DF
:101EA000558344833783268311870087F386E28630
:101EB000D586C486A68687868D85808B8E85818B08
:101EC000CF91DF911F910F91FF90EF90DF90CF9016
:101ED000AF908F9008958F92AF92CF92DF92EF9252
:101EE000FF920F931F93DF93CF93CDB7DEB7FC0123
:101EF00089E591E091838083738362835583448372
:101F00003783268311870087F386E286D586C486C9
:101F1000A68687868D85808B8E85818BCF91DF917C
:101F20001F910F91FF90EF90DF90CF90AF908F9027
:101F30000895CF92DF92EF92FF920F931F93CF936A
:101F4000DF93EC017A018B01CC80DD80CB01BA01FB
:101F500022E030E040E050E00E941E15CA01B901C5
:101F6000605C7D4B804F9F4FA80197010E941E151A
:101F7000C901DA019C01AD01215030404040504080
:101F8000232F342F452F552747FD5A95F6012083DF
:101F9000EE81FF8181508083EA85FB85808121E08D
:101FA00030E0A9010E8402C0440F551F0A94E2F7E5
:101FB000842B8083EA85FB858081A9010F8402C080
:101FC000440F551F0A94E2F7842B8083EA85FB8532
:101FD0008081088802C0220F331F0A94E2F7822B07
:101FE0008083DF91CF911F910F91FF90EF90DF9051
:101FF000CF900895FC0122813381F901E058FF4F11
:102000008081918180589F4F2E573F4FF901208149
:102010003181821B930B60E870E00E94E9140895FF
:10202000DC0112962D913C911397F901EE57FF4F69
:1020300080819181D901A058BF4F4D915C9111973A
:102040004817590719F42FEF3FEF0CC0280F391F1D
:10205000D9012C91019660E870E00E94E914918307
:10206000808330E0C9010895DC0112968D919C9126
:102070001397FC01E058FF4F8E579F4FDC018D9165
:102080009C911197918380830895FC01A085B1856F
:1020900021898C9190E0022E02C0959587950A9433
:1020A000E2F780FFF6CF0484F585E02D6083089584
:1020B00089E591E090932203809321038DE992E0DA
:1020C000909324038093230385EC90E09093260360
:1020D0008093250384EC90E090932803809327035A
:1020E00080EC90E090932A038093290381EC90E0A8
:1020F00090932C0380932B0386EC90E090932E0317
:1021000080932D0384E080932F0383E0809330033A
:1021100087E08093310385E08093320308950F9325
:102120001F93CF93DF93EC018B0109C00F5F1F4F0B
:10213000E881F9810190F081E02DCE010995F80147
:102140006081662399F7DF91CF911F910F910895D8
:10215000EF92FF920F931F93CF93DF93EC018B01CC
:102160007A010DC0F80161918F01E881F981019038
:10217000F081E02DCE0109950894E108F108E11401
:10218000F10481F7DF91CF911F910F91FF90EF90B4
:102190000895DC01ED91FC910190F081E02D09950D
:1021A00008950E94C9100895DC01ED91FC91028010
:1021B000F381E02D09950895CF93DF93EC016DE055
:1021C0000E94C910CE016AE00E94C910DF91CF9130
:1021D0000895CF93DF93EC010E94C910CE010E94B5
:1021E000DC10DF91CF910895CF93DF93EC010E9433
:1021F000D410CE010E94DC10DF91CF910895CF93CF
:10220000DF93EC010E94C910CE010E94DC10DF9127
:10221000CF9108952F923F924F925F926F927F924B
:102220008F929F92AF92BF92CF92DF92EF92FF92E6
:102230000F931F93DF93CF93CDB7DEB7A2970FB65F
:10224000F894DEBF0FBECDBF2C015A016B014115C2
:1022500051056105710521F460E30E94C9104CC06D
:10226000EE24FF248701622E7724882499241E01FE
:102270000894211C311CC1018E0D9F1D9AA389A3B6
:10228000C601B501A40193010E94FC14E9A1FAA1C1
:1022900060830894E11CF11C011D111DC601B501EC
:1022A000A40193010E94FC14A22EB32EC42ED52E9D
:1022B000A114B104C104D104F1F6D801C7010197FA
:1022C000A109B109280E391E12C00894E108F108CD
:1022D00001091109F10160816A3010F4605D01C0EB
:1022E000695CC2010E94C910089421083108E114F8
:1022F000F1040105110549F7A2960FB6F894DEBF67
:102300000FBECDBFCF91DF911F910F91FF90EF9046
:10231000DF90CF90BF90AF909F908F907F906F9005
:102320005F904F903F902F9008952AE00E940A11ED
:102330000895CF93DF93EC010E949511CE010E9486
:10234000DC10DF91CF910895AB0160E070E00E9456
:1023500095110895CF93DF93EC01AB0160E070E03D
:102360000E949511CE010E94DC10DF91CF9108955B
:10237000EF92FF920F931F93CF93DF93EC017A01BB
:102380008B0177FF0BC06DE20E94C910109500957C
:10239000F094E094E11CF11C011D111DCE01B80167
:1023A000A7012AE00E940A11DF91CF911F910F919E
:1023B000FF90EF900895CF93DF93EC010E94B81146
:1023C000CE010E94DC10DF91CF9108959B01A901FD
:1023D000662757FD6095762F0E94B8110895CF9318
:1023E000DF93EC01CB01AC01662757FD6095762F9A
:1023F000CE010E94B811CE010E94DC10DF91CF9176
:1024000008952115310521F4642F0E94C910089503
:102410002A30310519F40E94B81108950E940A115A
:102420000895CF93DF93EC010E940112CE010E9428
:10243000DC10DF91CF9108958F929F92AF92BF925F
:10244000CF92DF92EF92FF920F931F93CF93DF9380
:10245000EC016A017B01122FCB01BA0120E030E0D0
:1024600040E050E00E943713882344F4CE016DE22F
:102470000E94C910F7FAF094F7F8F09400E050E0E9
:1024800040E030E02FE311C0DA01F9016B2F742F27
:102490008F2F922F20E030E040E251E40E943B1366
:1024A000562F472F382F292F0F5F011768F3C701C9
:1024B000B601DA01F9012B2F342F4F2F5E2F0E9426
:1024C000D3127B01082FA92E7F2D0E94A813B62EB0
:1024D000D72E882EC92ECE014B2D5D2D682D7C2D3B
:1024E0000E949511112329F0CE016FE571E00E9441
:1024F000D4106B2D7D2D882D9C2D0E94D4139B0113
:10250000AC016E2D7F2D802F9A2D0E94D21223C0F8
:1025100020E030E040E251E40E948614F62EC72EFF
:10252000082FE92E0E94A3134B01AA2497FCA09424
:10253000BA2CCE01B501A4010E94B811C501B401A5
:102540000E94D6139B01AC016F2D7C2D802F9E2DF8
:102550000E94D21211501123D9F6DF91CF911F9111
:102560000F91FF90EF90DF90CF90BF90AF909F9032
:102570008F90089522E00E941C120895CF93DF935C
:10258000EC010E94BA12CE010E94DC10DF91CF91C3
:102590000895FB01DC018D91019080190110D9F3A0
:1025A000990B08955058BB27AA270ED075C166D144
:1025B00030F06BD120F031F49F3F11F41EF45BC179
:1025C0000EF4E095E7FB51C1E92F77D180F3BA17FC
:1025D000620773078407950718F071F49EF58FC1A1
:1025E0000EF4E0950B2EBA2FA02D0B01B90190012E
:1025F0000C01CA01A0011124FF27591B99F0593F72
:1026000050F4503E68F11A16F040A22F232F342FB9
:102610004427585FF3CF469537952795A795F04007
:102620005395C9F77EF41F16BA0B620B730B840B1C
:10263000BAF09150A1F0FF0FBB1F661F771F881FD4
:10264000C2F70EC0BA0F621F731F841F48F487952C
:1026500077956795B795F7959E3F08F0B3CF93951B
:10266000880F08F09927EE0F979587950895D9D090
:1026700008F481E008950CD00FC107D140F0FED0DE
:1026800030F021F45F3F19F0F0C0511139C1F3C0AF
:1026900014D198F39923C9F35523B1F3951B550B26
:1026A000BB27AA2762177307840738F09F5F5F4F25
:1026B000220F331F441FAA1FA9F333D00E2E3AF066
:1026C000E0E830D091505040E695001CCAF729D080
:1026D000FE2F27D0660F771F881FBB1F26173707CF
:1026E0004807AB07B0E809F0BB0B802DBF01FF27FF
:1026F00093585F4F2AF09E3F510568F0B6C000C165
:102700005F3FECF3983EDCF3869577956795B79538
:10271000F7959F5FC9F7880F911D9695879597F953
:102720000895E1E0660F771F881FBB1F62177307CC
:102730008407BA0720F0621B730B840BBA0BEE1FE1
:1027400088F7E095089504D06894B111D9C0089530
:10275000BCD088F09F5790F0B92F9927B751A0F0BF
:10276000D1F0660F771F881F991F1AF0BA95C9F725
:1027700012C0B13081F0C3D0B1E00895C0C0672F5E
:10278000782F8827B85F39F0B93FCCF386957795D5
:102790006795B395D9F73EF49095809570956195BE
:1027A0007F4F8F4F9F4F0895E89409C097FB3EF4E9
:1027B00090958095709561957F4F8F4F9F4F99238E
:1027C000A9F0F92F96E9BB279395F695879577950C
:1027D0006795B795F111F8CFFAF4BB0F11F460FFCC
:1027E0001BC06F5F7F4F8F4F9F4F16C0882311F024
:1027F00096E911C0772321F09EE8872F762F05C038
:10280000662371F096E8862F70E060E02AF09A95D2
:10281000660F771F881FDAF7880F9695879597F9C7
:102820000895990F0008550FAA0BE0E8FEEF161661
:102830001706E807F907C0F012161306E407F507B4
:1028400098F0621B730B840B950B39F40A2661F028
:10285000232B242B252B21F408950A2609F4A140CB
:10286000A6958FEF811D811D089597F99F6780E8D8
:1028700070E060E008959FEF80EC089500240A94D2
:102880001616170618060906089500240A9412164B
:102890001306140605060895092E0394000C11F47E
:1028A000882352F0BB0F40F4BF2B11F460FF04C02B
:1028B0006F5F7F4F8F4F9F4F089557FD9058440F84
:1028C000551F59F05F3F71F04795880F97FB991F8F
:1028D00061F09F3F79F0879508951216130614064C
:1028E000551FF2CF4695F1DF08C0161617061806D9
:1028F000991FF1CF86957105610508940895E894B4
:10290000BB2766277727CB0197F908950BD0C4CF53
:10291000B5DF28F0BADF18F0952309F0A6CFABCFCA
:102920001124EECFCADFA0F3959FD1F3950F50E0AD
:10293000551F629FF001729FBB27F00DB11D639F71
:10294000AA27F00DB11DAA1F649F6627B00DA11D17
:10295000661F829F2227B00DA11D621F739FB00DBD
:10296000A11D621F839FA00D611D221F749F33272D
:10297000A00D611D231F849F600D211D822F762FC6
:102980006A2F11249F5750408AF0E1F088234AF0C3
:10299000EE0FFF1FBB1F661F771F881F915050400F
:1029A000A9F79E3F510570F060CFAACF5F3FECF3CF
:1029B000983EDCF3869577956795B795F795E795FB
:1029C0009F5FC1F7FE2B880F911D9695879597F90C
:1029D000089597FB092E07260AD077FD04D049D029
:1029E00006D000201AF4709561957F4F0895F6F790
:1029F000909581959F4F0895A1E21A2EAA1BBB1BAB
:102A0000FD010DC0AA1FBB1FEE1FFF1FA217B307BA
:102A1000E407F50720F0A21BB30BE40BF50B661FD0
:102A2000771F881F991F1A9469F760957095809594
:102A300090959B01AC01BD01CF01089597FB092E34
:102A400005260ED057FD04D0D7DF0AD0001C38F47D
:102A500050954095309521953F4F4F4F5F4F0895CA
:102A6000F6F790958095709561957F4F8F4F9F4FAA
:102A70000895AA1BBB1B51E107C0AA1FBB1FA617C5
:102A8000B70710F0A61BB70B881F991F5A95A9F717
:102A900080959095BC01CD010895EE0FFF1F059024
:0A2AA000F491E02D0994F894FFCFA3
:102AAA00012F4E45575C002F3A3A3A3A4E4F555647
:102ABA004541553A3A3A3A5C0000000000080D00D8
:102ACA00000000660C00000000AF0B00000000636D
:102ADA000992090000000063096C09000000006304
:102AEA0009CC0600000000CB0700000000CC06005D
:102AFA00000000CC060000000045108F10A8102E20
:0C2B0A000000000000CC068F10A8100096
:00000001FF
