:100000000C9461000C9406010C9433010C947E0056
:100010000C947E000C947E000C947E000C947E0068
:100020000C947E000C947E000C947E000C947E0058
:100030000C947E000C947E000C947E000C947E0048
:100040000C9460010C947E000C947E000C947E0055
:100050000C947E000C947E000C947E000C947E0028
:100060000C947E000C947E00000000002400270009
:100070002A0000000000250028002B0000000000DE
:1000800023002600290004040404040404040202DA
:100090000202020203030303030301020408102007
:1000A0004080010204081020010204081020000012
:1000B0000007000201000003040600000000000029
:1000C000000011241FBECFEFD4E0DEBFCDBF11E092
:1000D000A0E0B1E0ECE5F5E002C005900D92A230A1
:1000E000B107D9F711E0A2E0B1E001C01D92A4313F
:1000F000B107E1F70E94DC000C94AD020C94000003
:1001000081E090E090930301809302010895CF93E2
:10011000DF9364E170E080E090E00E940A02C4E1B5
:10012000D0E061E0809100010E94590268EC70E02B
:1001300080E090E00E940A0260E0809100010E944D
:10014000590268EC70E080E090E00E940A0221977A
:1001500041F71092030110920201DF91CF910895AF
:1001600061E0809100010E94590268EE73E080E036
:1001700090E00E940A0260E0809100010E94590212
:1001800068EE73E080E090E00E940A028091020134
:1001900090910301892B11F00E948700089561E07E
:1001A000809100010E94340242E050E060E870E07B
:1001B00081E00E94E30008950E94D0010E94CF00D8
:1001C0000E94B000FDCF823000F5E82FFF27EE0F30
:1001D000FF1FEC5FFE4F71836083882319F081302D
:1001E000A1F408C0809169008C7F842B8093690002
:1001F000E89A089580916900837F440F551F440F4A
:10020000551F842B80936900E99A08951F920F92DD
:100210000FB60F9211242F933F934F935F936F93D9
:100220007F938F939F93AF93BF93EF93FF938091AF
:10023000040190910501892B29F0E0910401F091CE
:1002400005010995FF91EF91BF91AF919F918F911A
:100250007F916F915F914F913F912F910F900FBEC2
:100260000F901F9018951F920F920FB60F921124A6
:100270002F933F934F935F936F937F938F939F93AE
:10028000AF93BF93EF93FF93809106019091070185
:10029000892B29F0E0910601F09107010995FF9162
:1002A000EF91BF91AF919F918F917F916F915F91EE
:1002B0004F913F912F910F900FBE0F901F90189567
:1002C0001F920F920FB60F9211242F938F939F932B
:1002D000AF93BF938091080190910901A0910A0109
:1002E000B0910B010196A11DB11D8093080190935F
:1002F0000901A0930A01B0930B0180910C01909128
:100300000D01A0910E01B0910F018050904CAF4FA4
:10031000BF4F80930C0190930D01A0930E01B093F9
:100320000F0127C080910C0190910D01A0910E0149
:10033000B0910F0180589E43A040B04080930C01C3
:1003400090930D01A0930E01B0930F0180911001C5
:1003500090911101A0911201B09113010196A11D7C
:10036000B11D8093100190931101A0931201B093DD
:10037000130180910C0190910D01A0910E01B0919B
:100380000F0181589E43A040B04060F6BF91AF91ED
:100390009F918F912F910F900FBE0F901F901895E6
:1003A000789484B5826084BD84B5816084BD85B550
:1003B000826085BD85B5816085BDEEE6F0E0808117
:1003C00081608083E1E8F0E08081826080838081C9
:1003D00081608083E0E8F0E0808181608083E1EBF0
:1003E000F0E0808184608083E0EBF0E080818160D8
:1003F0008083EAE7F0E0808184608083808182608E
:100400008083808181608083808180688083109276
:10041000C1000895EF92FF920F931F937B018C010F
:100420008FB7F89440911001509111016091120121
:10043000709113018FBF2FB7F894809110019091A4
:100440001101A0911201B09113012FBF841B950BD4
:10045000A60BB70BE816F9060A071B0760F71F91F2
:100460000F91FF90EF900895282F3327C9018656EA
:100470009F4FFC01C895902D2A573F4FF901C89511
:10048000802D8823A9F0E82FFF27EE0FFF1FE859E2
:10049000FF4FC895A02D3196C895B02D662329F43D
:1004A0008C91909589238C9308958C91892B8C93B2
:1004B0000895482F5527CA0182559F4FFC01C895C2
:1004C000202DCA0186569F4FFC01C895902D4A5792
:1004D0005F4FFA01C895302D332309F43DC0222324
:1004E00031F1233021F4809180008F7705C02430D2
:1004F00031F4809180008F7D8093800018C021307E
:1005000019F484B58F7704C0223021F484B58F7D2F
:1005100084BD0DC0263021F48091B0008F7705C0D6
:10052000273029F48091B0008F7D8093B000E32FB5
:10053000FF27EE0FFF1FEE58FF4FC895A02D3196F5
:10054000C895B02D662329F48C91909589238C93BE
:0C05500008958C91892B8C930895FFCFA7
:02055C000D0090
:00000001FF
