:100000000C9462000C948A000C948A000C948A0070
:100010000C948A000C948A000C948A000C948A0038
:100020000C948A000C948A000C948A000C948A0028
:100030000C948A000C948A000C948A000C948A0018
:100040000C9472020C948A000C94F6000C948A00B2
:100050000C948A000C948A000C948A000C948A00F8
:100060000C948A000C948A000000000024002700F1
:100070002A0000000000250028002B0000000000DE
:1000800023002600290004040404040404040202DA
:100090000202020203030303030301020408102007
:1000A0004080010204081020010204081020000012
:1000B0000007000201000003040600000000000029
:1000C0000000350211241FBECFEFD4E0DEBFCDBF4C
:1000D00011E0A0E0B1E0E4E5F8E002C005900D9287
:1000E000A233B107D9F711E0A2E3B1E001C01D923C
:1000F000A43DB107E1F710E0C4ECD0E004C02297C2
:10010000FE010E942504C23CD107C9F70E94C80025
:100110000C9429040C94000062E370E080E090E00D
:100120000E941C0386EB91E00E94B101882309F133
:1001300086EB91E00E94C8018F34910561F460E084
:1001400071E086EB91E00E94670261E080912901F5
:100150000E946B0308958634910559F464E171E0BF
:1001600086EB91E00E94670260E0809129010E9485
:100170006B03089540E855E260E070E086EB91E0A3
:100180000E944C0161E0809129010E94460308957C
:100190000E94E2020E94BA000E948C00FDCF0F93E1
:1001A0001F93CF93DF93482FFB018B0100581F4F04
:1001B000D801CD91DC91CE01019660E870E00E94FB
:1001C000BF039C01EE57FF4F80819181E258F040C0
:1001D0002817390731F0CE0FDF1F4883F80131832C
:1001E0002083DF91CF911F910F9108951F920F925D
:1001F0000FB60F9211242F933F934F935F936F93FA
:100200007F938F939F93AF93BF93EF93FF938091CF
:10021000C60062E371E00E94CF00FF91EF91BF91B1
:10022000AF919F918F917F916F915F914F913F918E
:100230002F910F900FBE0F901F9018958F92AF9235
:10024000CF92DF92EF92FF920F931F93CF93DF93A2
:10025000CDB7DEB7FC018FE291E091838083738399
:100260006283558344833783268311870087F3860F
:10027000E286D586C486A68687868D85808B8E8508
:10028000818BDF91CF911F910F91FF90EF90DF90C5
:10029000CF90AF908F900895AF92BF92CF92DF92A0
:1002A000EF92FF920F931F93CF93DF936A017B012D
:1002B000EC01AC80BD80CB01BA0122E030E040E02F
:1002C00050E00E94F403205C3D4B404F5F4FCA0159
:1002D000B901A70196010E94F4032150304040402B
:1002E0005040BB2757FDBA95A52F942F832F2F5F22
:1002F0003F4F4F4F5F4FF5018083EE81FF812150CB
:100300002083EA85FB85208141E050E0CA010E840C
:1003100002C0880F991F0A94E2F7282B2083EA85F0
:10032000FB852081CA010F8402C0880F991F0A949F
:10033000E2F7282B2083EA85FB858081088802C0AC
:10034000440F551F0A94E2F7842B8083DF91CF91ED
:100350001F910F91FF90EF90DF90CF90BF90AF90E3
:100360000895CF93DF93EC01EA81FB81E058FF4FC2
:100370008191919180589F4F20813181821B930BF5
:1003800060E870E00E94BF039927DF91CF91089544
:10039000CF93DF93EC01EA81FB81EF01CE57DF4F72
:1003A00048815981E058FF4F80819181E058F040A9
:1003B0008417950719F48FEF9FEF0DC0E40FF51F19
:1003C0002081CA01019660E870E00E94BF03998312
:1003D0008883822F9927DF91CF910895FC01A08512
:1003E000B1858189282F33278C919927022E02C04D
:1003F000959587950A94E2F780FFF6CF0484F585FA
:10040000E02D608308958F92AF92CF92DF92EF92AA
:10041000FF920F931F930197F9F46F5F7F4FE1F401
:1004200085E08F9387E08F9343E0842E34E0A32E02
:1004300026ECC22ED12C91ECE92EF12C00EC10E030
:1004400024EC30E045EC50E062E371E086EB91E0B3
:100450000E941E010F900F901F910F91FF90EF903F
:10046000DF90CF90AF908F9008956FEF7FEF81E096
:1004700090E00E9403020895DC01ED91FC9101904F
:10048000F081E02D099508950E943C0208950F9394
:100490001F93CF93DF938C01EB0104C02196C80119
:1004A0000E94440268816623C9F7DF91CF911F91B2
:1004B0000F9108950F931F938C016DE00E944402E9
:1004C0006AE0C8010E9444021F910F9108950F93A2
:1004D0001F938C010E944702C8010E945A021F917B
:1004E0000F9108951F920F920FB60F9211242F9320
:1004F0008F939F93AF93BF938091C8019091C9014F
:10050000A091CA01B091CB010196A11DB11D8093AC
:10051000C8019093C901A093CA01B093CB01809107
:10052000CC019091CD01A091CE01B091CF0180502E
:10053000904CAF4FBF4F8093CC019093CD01A093CF
:10054000CE01B093CF0127C08091CC019091CD0115
:10055000A091CE01B091CF0180589E43A040B04001
:100560008093CC019093CD01A093CE01B093CF01A5
:100570008091D0019091D101A091D201B091D3018D
:100580000196A11DB11D8093D0019093D101A0933C
:10059000D201B093D3018091CC019091CD01A09173
:1005A000CE01B091CF0181589E43A040B04060F68B
:1005B000BF91AF919F918F912F910F900FBE0F9090
:1005C0001F901895789484B5826084BD84B581604D
:1005D00084BD85B5826085BD85B5816085BDEEE64B
:1005E000F0E0808181608083E1E8F0E080818260DA
:1005F0008083808181608083E0E8F0E08081816099
:100600008083E1EBF0E0808184608083E0EBF0E0C8
:10061000808181608083EAE7F0E08081846080836C
:100620008081826080838081816080838081806816
:1006300080831092C1000895EF92FF920F931F9351
:100640007B018C018FB7F8944091D0015091D1017A
:100650006091D2017091D3018FBF2FB7F894809130
:10066000D0019091D101A091D201B091D3012FBFBF
:10067000841B950BA60BB70BE816F9060A071B0798
:1006800060F71F910F91FF90EF900895282F332767
:10069000C90186569F4FFC01C895902D2A573F4FA0
:1006A000F901C895802D8823A9F0E82FFF27EE0FC8
:1006B000FF1FE859FF4FC895A02D3196C895B02D62
:1006C000662329F48C91909589238C9308958C91BD
:1006D000892B8C930895482F5527CA0182559F4F27
:1006E000FC01C895202DCA0186569F4FFC01C89574
:1006F000902D4A575F4FFA01C895302D332309F4E6
:100700003DC0222331F1233021F4809180008F7786
:1007100005C0243031F4809180008F7D809380006B
:1007200018C0213019F484B58F7704C0223021F429
:1007300084B58F7D84BD0DC0263021F48091B0003A
:100740008F7705C0273029F48091B0008F7D80938A
:10075000B000E32FFF27EE0FFF1FEE58FF4FC895A5
:10076000A02D3196C895B02D662329F48C919095D3
:1007700089238C9308958C91892B8C93089597FBF2
:10078000092E07260AD077FD04D049D006D00020D4
:100790001AF4709561957F4F0895F6F790958195BD
:1007A0009F4F0895A1E21A2EAA1BBB1BFD010DC08D
:1007B000AA1FBB1FEE1FFF1FA217B307E407F50711
:1007C00020F0A21BB30BE40BF50B661F771F881FED
:1007D000991F1A9469F760957095809590959B0183
:1007E000AC01BD01CF01089597FB092E05260ED05F
:1007F00057FD04D0D7DF0AD0001C38F4509540953F
:10080000309521953F4F4F4F5F4F0895F6F79095E4
:100810008095709561957F4F8F4F9F4F0895AA1BCC
:10082000BB1B51E107C0AA1FBB1FA617B70710F0DB
:10083000A61BB70B881F991F5A95A9F7809590950D
:10084000BC01CD010895EE0FFF1F0590F491E02D3E
:040850000994FFCF39
:1008540053657269616C3A20436F6D6D616E6465B6
:10086400204F4E0053657269616C3A20436F6D6D81
:10087400616E6465204F4646000C0000000000EEE7
:02088400010071
:00000001FF
