:100000000C9462000C948A000C948A000C948A0070
:100010000C948A000C948A000C948A000C948A0038
:100020000C948A000C948A000C948A000C948A0028
:100030000C948A000C948A000C948A000C948A0018
:100040000C9426020C948A000C944A040C948A00A6
:100050000C948A000C948A000C948A000C948A00F8
:100060000C948A000C948A000000000024002700F1
:100070002A0000000000250028002B0000000000DE
:1000800023002600290004040404040404040202DA
:100090000202020203030303030301020408102007
:1000A0004080010204081020010204081020000012
:1000B0000007000201000003040600000000000029
:1000C0000000A30511241FBECFEFD4E0DEBFCDBFDB
:1000D00011E0A0E0B1E0E2EFFBE102C005900D927B
:1000E000AA33B107D9F712E0AAE3B1E001C01D922B
:1000F000A136B107E1F710E0C4ECD0E004C02297CC
:10010000FE010E94BC0DC23CD107C9F70E941F022C
:100110000C94F70D0C9400000F931F93CF93DF9373
:100120008091AE018F5F8093AE01883209F04BC0A1
:100130001092AE0184E080939201C3E9D1E000E027
:1001400011E03DC0992787FD9095FC01EE0FFF1F40
:10015000A3E0880F991FAA95E1F7E80FF91FE45C67
:10016000FE4F8081882331F100D000D000D08DB7C0
:100170009EB70196ADB7BEB71296DC93CE9311979A
:10018000DC0113961C930E9312971596FC93EE9335
:1001900014970E94A408EDB7FEB736960FB6F894F0
:1001A000FEBF0FBEEDBF8DE392E0BE010E941F06B1
:1001B00010929301809192018150809392018091DD
:1001C000920187FFBFCF82E023C0992787FD9095DA
:1001D000FC01E858FE4F2081FC01E558FE4F60818C
:1001E000261799F0DC01AB5EBE4F621730F4129611
:1001F0008C911297962F9F5F04C012968C91962F28
:100200009150908370E00E94390380919201815057
:10021000809392018091920187FFD7CF0E941B08A3
:100220000E941508FC019093900180938F018081BA
:100230008F3209F0D1C082858C3509F0CDC0BF0165
:100240006F5F7F4F81818235B9F5BF016B5F7F4F53
:1002500081E991E041E050E00E948D0881E991E060
:100260000E94660880937F0160918F0170919001D8
:10027000695F7F4F80E891E043E050E00E948D0885
:1002800080E891E00E94660880937E0190917F0152
:10029000292F30E0923058F42B5E3E4F60E08130E1
:1002A00009F461E0D9018C910E94B1036BC02A5816
:1002B0003E4FF901808366C080913A0190913B01E5
:1002C000843091050CF05CC08EE691E049E050E08E
:1002D0000E948D0810927701C0913A01D0913B01A4
:1002E000C09392010AE012C01002C0011124845C84
:1002F0009E4F6EE671E00E948408009721F481E031
:100300008093AF0107C01150109392011091920198
:10031000111654F38091AF01882381F5CE01019627
:1003200090933B0180933A01CE01880F991F63E0BF
:10033000CC0FDD1F6A95E1F78C0F9D1F845C9E4FEB
:100340006EE671E049E050E00E948D0880913A012C
:1003500090913B01FC01EE0FFF1F9C0143E0220F37
:10036000331F4A95E1F7E20FF31FE45CFE4F11865D
:10037000019690933B0180933A0102C01092AF0125
:1003800010926E0100D000D000D0EDB7FEB73196CC
:10039000C3E8D1E0ADB7BEB71296DC93CE93119708
:1003A0008AE191E09383828380918F019091900103
:1003B0000596958384830E94A408EDB7FEB7369610
:1003C0000FB6F894FEBF0FBEEDBF8DE392E0BE0105
:1003D0000E941F060E94180862E370E080E090E02F
:1003E0000E94A702DF91CF911F910F9108958DE395
:1003F00092E040E855E260E070E00E94E40484E0AE
:100400000CC0FF27E7FDF095EB5EFE4F808161E0B9
:100410000E94920380919201815080939201E09119
:100420009201E7FFEECFE4E6F1E084E003C0108242
:1004300081503A9787FFFBCF8093920108950E94E5
:10044000DE020E94F7010E948C00FDCF1F920F92E6
:100450000FB60F9211242F933F938F939F93AF93D7
:10046000BF938091B4019091B501A091B601B09174
:10047000B7013091B8010196A11DB11D232F2D5F49
:100480002D3720F02D570196A11DB11D2093B801E5
:100490008093B4019093B501A093B601B093B701D6
:1004A0008091B0019091B101A091B201B091B301DE
:1004B0000196A11DB11D8093B0019093B101A0934D
:1004C000B201B093B301BF91AF919F918F913F91D2
:1004D0002F910F900FBE0F901F9018958FB7F89423
:1004E0002091B4013091B5014091B6015091B7010E
:1004F0008FBFB901CA0108956FB7F89486B590E02F
:10050000A0E0B0E0A89B08C00097A105B10521F4C8
:1005100080E091E0A0E0B0E02091B0013091B10125
:100520004091B2015091B3016FBF542F432F322F2E
:100530002227280F391F4A1F5B1F82E0220F331F1B
:10054000441F551F8A95D1F7B901CA010895EF924A
:10055000FF920F931F937B018C018FB7F89420912A
:10056000B4013091B5014091B6015091B7018FBFF0
:100570006FB7F8948091B4019091B501A091B60144
:10058000B091B7016FBF821B930BA40BB50BE8169C
:10059000F9060A071B0760F71F910F91FF90EF9074
:1005A0000895019751F0880F991F880F991F02979E
:1005B0002FB7F8940197F1F72FBF0895789484B579
:1005C000826084BD84B5816084BD85B5826085BD4F
:1005D00085B5816085BDEEE6F0E080818160808335
:1005E000E1E8F0E0808182608083808181608083A7
:1005F000E0E8F0E0808181608083E1EBF0E08081E1
:1006000084608083E0EBF0E0808181608083EAE7B2
:10061000F0E080818460808380818260808380813B
:10062000816080838081806880831092C1000895FA
:100630008093220108958770909122019295990FDD
:10064000990F907C982B90937C0080917A00806425
:1006500080937A0080917A0086FDFCCF209178000B
:1006600030917900932F80E030E0282B392BC9019D
:1006700008951F93CF93DF93182FEB0161E00E9441
:100680009203E12FF0E0E255FF4F8491833051F463
:1006900080918000806880938000D0938900C0930F
:1006A00088003CC0843051F4809180008062809347
:1006B0008000D0938B00C0938A0030C0813039F421
:1006C000209729F184B5806884BDC7BD27C08230DA
:1006D00039F42097E1F084B5806284BDC8BD1EC0A6
:1006E000863041F48091B00080688093B000C09360
:1006F000B30014C0873041F48091B00080628093D1
:10070000B000C093B4000AC0C038D1051CF4812FDA
:1007100060E002C0812F61E00E94B103DF91CF91C0
:100720001F910895282F30E0C90186569F4FFC0184
:100730009491F901EA57FF4FE491EE2389F0F0E03C
:10074000EE0FFF1FE859FF4FA591B491662329F4DE
:100750008C91909589238C9308958C91892B8C93FF
:100760000895482F50E0CA0182559F4FFC01949193
:100770009A0126563F4FF9012491FA01EA57FF4F9B
:10078000E491EE23C9F1992331F1933021F4909152
:1007900080009F7705C0943031F4909180009F7D58
:1007A0009093800018C0913019F494B59F7704C0DD
:1007B000923021F494B59F7D94BD0DC0963021F404
:1007C0009091B0009F7705C0973029F49091B000C8
:1007D0009F7D9093B000F0E0EE0FFF1FEE58FF4FAB
:1007E000A591B491662329F48C91209582238C9352
:1007F00008958C91822B8C930895282F30E0C901A5
:1008000082559F4FFC019491A90146565F4FFA0112
:100810004491F901EA57FF4FE491EE2319F420E0E7
:1008200030E036C0992331F1933021F4909180006B
:100830009F7705C0943031F4909180009F7D909314
:10084000800018C0913019F494B59F7704C092309D
:1008500021F494B59F7D94BD0DC0963021F4909104
:10086000B0009F7705C0973029F49091B0009F7D2C
:100870009093B000F0E0EE0FFF1FE458FF4FA591FA
:10088000B4918C9120E030E0842311F021E030E03D
:10089000C90108951F920F920FB60F9211242F9342
:1008A0003F934F935F936F937F938F939F93AF93F8
:1008B000BF93EF93FF934091C6002091390230918E
:1008C0003A02C901019660E870E00E94560DBC0131
:1008D00080913B0290913C026817790741F02754C0
:1008E0003E4FF901408370933A0260933902FF91C1
:1008F000EF91BF91AF919F918F917F916F915F9198
:100900004F913F912F910F900FBE0F901F90189510
:100910008F92AF92CF92DF92EF92FF920F931F933D
:10092000DF93CF93CDB7DEB7FC0187E291E09183EF
:10093000808373836283558344833783268311873F
:100940000087F386E286D586C486A68687868D854F
:10095000808B8E85818BCF91DF911F910F91FF90BE
:10096000EF90DF90CF90AF908F9008958F92AF92DD
:10097000CF92DF92EF92FF920F931F93DF93CF936B
:10098000CDB7DEB7FC0187E291E09183808373836A
:100990006283558344833783268311870087F386D8
:1009A000E286D586C486A68687868D85808B8E85D1
:1009B000818BCF91DF911F910F91FF90EF90DF908E
:1009C000CF90AF908F900895CF92DF92EF92FF92E9
:1009D0000F931F93CF93DF93EC017A018B01CC80AF
:1009E000DD80CB01BA0122E030E040E050E00E941F
:1009F0008B0DCA01B901605C7D4B804F9F4FA801F0
:100A000097010E948B0DC901DA019C01AD012150B3
:100A1000304040405040232F342F452F552747FD6D
:100A20005A95F6012083EE81FF8181508083EA850B
:100A3000FB85808121E030E0A9010E8402C0440FD3
:100A4000551F0A94E2F7842B8083EA85FB85808119
:100A5000A9010F8402C0440F551F0A94E2F7842BAA
:100A60008083EA85FB858081088802C0220F331FBE
:100A70000A94E2F7822B8083DF91CF911F910F912F
:100A8000FF90EF90DF90CF900895FC012281338199
:100A9000F901E058FF4F8081918180589F4F2E5778
:100AA0003F4FF90120813181821B930B60E870E098
:100AB0000E94560D0895DC0112962D913C911397DA
:100AC000F901EE57FF4F80819181D901A058BF4FA6
:100AD0004D915C9111974817590719F42FEF3FEF8B
:100AE0000CC0280F391FD9012C91019660E870E0E5
:100AF0000E94560D9183808330E0C9010895DC0186
:100B000012968D919C911397FC01E058FF4F8E57E0
:100B10009F4FDC018D919C91119791838083089563
:100B2000FC01A085B18521898C9190E0022E02C044
:100B3000959587950A94E2F780FFF6CF0484F585B2
:100B4000E02D6083089587E291E090933E028093C8
:100B50003D0289EB91E09093400280933F0285EC47
:100B600090E0909342028093410284EC90E0909355
:100B700044028093430280EC90E09093460280937D
:100B8000450281EC90E0909348028093470286EC06
:100B900090E090934A028093490284E080934B0254
:100BA00083E080934C0287E080934D0285E0809340
:100BB0004E0208950F931F93CF93DF93EC018B01A7
:100BC00009C00F5F1F4FE881F9810190F081E02D8E
:100BD000CE010995F8016081662399F7DF91CF91E5
:100BE0001F910F910895EF92FF920F931F93CF9350
:100BF000DF93EC018B017A010DC0F80161918F0147
:100C0000E881F9810190F081E02DCE0109950894E9
:100C1000E108F108E114F10481F7DF91CF911F9110
:100C20000F91FF90EF900895DC01ED91FC91019000
:100C3000F081E02D099508950E9414060895DC01C5
:100C4000ED91FC910280F381E02D09950895CF93F9
:100C5000DF93EC016DE00E941406CE016AE00E9471
:100C60001406DF91CF910895CF93DF93EC010E949A
:100C70001406CE010E942706DF91CF910895CF93ED
:100C8000DF93EC010E941F06CE010E942706DF9130
:100C9000CF910895CF93DF93EC010E941406CE010B
:100CA0000E942706DF91CF9108952F923F924F9295
:100CB0005F926F927F928F929F92AF92BF92CF92EC
:100CC000DF92EF92FF920F931F93DF93CF93CDB7F5
:100CD000DEB7A2970FB6F894DEBF0FBECDBF2C01D2
:100CE0005A016B01411551056105710521F460E35D
:100CF0000E9414064CC0EE24FF248701622E772444
:100D0000882499241E010894211C311CC1018E0DD8
:100D10009F1D9AA389A3C601B501A40193010E9456
:100D2000690DE9A1FAA160830894E11CF11C011D81
:100D3000111DC601B501A40193010E94690DA22EE7
:100D4000B32EC42ED52EA114B104C104D104F1F6E2
:100D5000D801C7010197A109B109280E391E12C097
:100D60000894E108F10801091109F10160816A3074
:100D700010F4605D01C0695CC2010E941406089411
:100D800021083108E114F1040105110549F7A29683
:100D90000FB6F894DEBF0FBECDBFCF91DF911F918C
:100DA0000F91FF90EF90DF90CF90BF90AF909F900A
:100DB0008F907F906F905F904F903F902F9008950D
:100DC0002AE00E9455060895CF93DF93EC010E941C
:100DD000E006CE010E942706DF91CF910895AB0176
:100DE00060E070E00E94E0060895CF93DF93EC018D
:100DF000AB0160E070E00E94E006CE010E94270691
:100E0000DF91CF910895EF92FF920F931F93CF93AD
:100E1000DF93EC017A018B0177FF0BC06DE20E943A
:100E2000140610950095F094E094E11CF11C011D4E
:100E3000111DCE01B801A7012AE00E945506DF91DD
:100E4000CF911F910F91FF90EF900895CF93DF9373
:100E5000EC010E940307CE010E942706DF91CF918B
:100E600008959B01A901662757FD6095762F0E9482
:100E700003070895CF93DF93EC01CB01AC01662704
:100E800057FD6095762FCE010E940307CE010E9488
:100E90002706DF91CF9108952115310521F4642FA4
:100EA0000E94140608952A30310519F40E940307A0
:100EB00008950E9455060895CF93DF93EC010E9498
:100EC0004C07CE010E942706DF91CF9108958F92A3
:100ED0009F92AF92BF92CF92DF92EF92FF920F93C9
:100EE0001F93CF93DF93EC016A017B01122FCB019B
:100EF000BA0120E030E040E050E00E94A40B8823DB
:100F000044F4CE016DE20E941406F7FAF094F7F86B
:100F1000F09400E050E040E030E02FE311C0DA014F
:100F2000F9016B2F742F8F2F922F20E030E040E2D9
:100F300051E40E94A80B562F472F382F292F0F5FFF
:100F4000011768F3C701B601DA01F9012B2F342F1D
:100F50004F2F5E2F0E94400B7B01082FA92E7F2D63
:100F60000E94150CB62ED72E882EC92ECE014B2DE1
:100F70005D2D682D7C2D0E94E006112329F0CE0105
:100F80006DE271E00E941F066B2D7D2D882D9C2D3A
:100F90000E94410C9B01AC016E2D7F2D802F9A2D5C
:100FA0000E943F0B23C020E030E040E251E40E9469
:100FB000F30CF62EC72E082FE92E0E94100C4B01C1
:100FC000AA2497FCA094BA2CCE01B501A4010E94DA
:100FD0000307C501B4010E94430C9B01AC016F2DB6
:100FE0007C2D802F9E2D0E943F0B11501123D9F68E
:100FF000DF91CF911F910F91FF90EF90DF90CF90F5
:10100000BF90AF909F908F90089522E00E94670755
:101010000895CF93DF93EC010E940508CE010E9452
:101020002706DF91CF910895FFCF8FE492E00895D6
:1010300010924F020895CF93DF930E946E02609347
:101040005B0270935C0280935D0290935E028DE37D
:1010500092E00E9445058823B1F10E946E02209122
:101060005B0230915C0240915D0250915E02621B16
:10107000730B840B950B6C3424E0720720E082071D
:1010800020E09207A8F4C0915F02D0916002CB30BB
:10109000D10574F48DE392E00E945B05FE01E15BF3
:1010A000FD4F80832196D0936002C0935F02D5CF1D
:1010B000E0915F02F0916002E15BFD4F10821092BF
:1010C000600210925F02DF91CF910895FC018827A2
:1010D0009927E89421912032E9F3293010F02E303D
:1010E000C8F32B3241F02D3239F4689404C00E94C9
:1010F0009C08820F911D219120532A30C0F31EF4C9
:10110000909581959F4F0895FB01DC018D91019091
:1011100080190110D9F3990B0895FB01DC014150AE
:10112000504048F001900D920020C9F701C01D9277
:1011300041505040E0F708957AE0979F902D879FA7
:10114000802D910D11240895AEE0B0E0EAEAF8E0B8
:101150000C94CE0D0D891E8986E08C831A83098339
:101160008FEF9FE79E838D839E01275E3F4FCE01C9
:1011700001966F89788DA9010E94C708EF81F885D3
:10118000E00FF11F10822E96E4E00C94EA0DACE023
:10119000B0E0EDECF8E00C94C10D6C012B018A017C
:1011A000FC0117821682838181FD03C02FEF3FEF80
:1011B000C1C14E010894811C911C6FE3362EF601CB
:1011C0009381F20193FD859193FF81912F018823F3
:1011D00009F4ADC1853239F493FD859193FF819176
:1011E0002F01853229F490E0B6010E94B50AE7CFBD
:1011F000EE24FF2420E02032B0F48B3269F08C32F0
:1012000028F4803251F0833271F40BC08D3239F002
:10121000803349F421602CC02260246029C02860FA
:1012200027C0206125C027FD2CC0382F30533A300D
:1012300098F426FF08C08E2D880FE82EEE0CEE0CD9
:10124000E80EE30E15C08F2D880FF82EFF0CFF0C53
:10125000F80EF30E20620CC08E3221F426FD67C119
:10126000206406C08C3611F4206802C0883649F428
:10127000F20193FD859193FF81912F01882309F05D
:10128000BACF982F9554933018F09052933020F4A1
:101290000C5F1F4F39820DC0833631F0833771F0F8
:1012A000833509F058C01EC0F801808189830E5F24
:1012B0001F4F540151E0652E712C12C0F801A0801F
:1012C000B18026FD03C06FEF7FEF02C06E2D70E08E
:1012D0000E5F1F4FC5012C870E94AA0A3C012C8576
:1012E0002F7713C0F801A080B18026FD03C06FEFF7
:1012F0007FEF02C06E2D70E00E5F1F4FC5012C877F
:101300000E949F0A3C012C85206823FF09C01FC052
:1013100080E290E0B6012C870E94B50AFA942C85F1
:101320008F2D90E06816790698F311C0F50127FD1E
:10133000859127FF81915F0190E0B6012C870E9483
:10134000B50A2C85F110FA940894610871086114AB
:10135000710461F7E9C0843611F0893649F527FF39
:1013600008C0F80160817181828193810C5F1F4FF9
:1013700009C0F80160817181882777FD8095982FD9
:101380000E5F1F4F4FE6B42EB22297FF09C0909513
:101390008095709561957F4F8F4F9F4FF0E8BF2AE2
:1013A000A4012AE030E00E94E10A782E781843C0B8
:1013B000853731F43FEEB32EB2222AE030E023C06D
:1013C00099EFB92EB2228F3661F0803720F488353C
:1013D00009F0ADC012C0803739F0883709F0A7C0D6
:1013E00005C028E030E00FC020E1B22AB4FE02C000
:1013F00084E0B82A20E130E006C0B4FE02C0E6E096
:10140000BE2A20E132E0B7FE08C0F8016081718198
:10141000828193810C5F1F4F07C0F8016081718149
:1014200080E090E00E5F1F4FA4010E94E10A782E39
:101430007818FFE7BF22B6FE0BC02EEFB2227E1453
:1014400038F4B4FE07C0B2FC05C08FEEB82202C06B
:10145000A72C01C0AE2C8B2DB4FE0DC0FE01E70DF4
:10146000F11D9081903319F4E9EEBE2207C0A394D8
:10147000B2FE04C002C0867809F0A3946B2CB3FCC2
:1014800014C0B0FE0FC0AF1410F0E72C0BC0E72C57
:10149000EF0CEA18AF2C06C080E290E0B6010E9483
:1014A000B50AA394AF14C0F304C0AF1410F4FA1833
:1014B00001C0FF2464FE0FC080E390E0B6010E94EB
:1014C000B50A62FE1DC061FC03C088E790E00EC053
:1014D00088E590E00BC0862D867891F061FE02C011
:1014E0008BE201C080E2B7FC8DE290E0B6010E9481
:1014F000B50A06C080E390E0B6010E94B50AEA94FE
:101500007E14C0F37A94F401E70DF11D808190E020
:10151000B6010E94B50A7720A9F706C080E290E0E4
:10152000B6010E94B50AFA94FF20C1F748CEF60131
:1015300026813781C9012C96E1E10C94DD0DFC0177
:101540000590615070400110D8F7809590958E0FEE
:101550009F1F0895FC016150704001900110D8F761
:10156000809590958E0F9F1F08950F931F93CF9393
:10157000DF938C01EB018B8181FF1BC082FF0DC0CB
:101580002E813F818C819D812817390764F4E88181
:10159000F9810193F983E88306C0E885F985802FF6
:1015A0000995009731F48E819F8101969F838E83E8
:1015B00002C00FEF1FEFC801DF91CF911F910F9174
:1015C0000895FA01AA27283051F1203181F1E894D9
:1015D0006F936E7F6E5F7F4F8F4F9F4FAF4FB1E026
:1015E0003ED0B4E03CD0670F781F891F9A1FA11D21
:1015F000680F791F8A1F911DA11D6A0F711D811D22
:10160000911DA11D20D009F468943F912AE0269FE6
:1016100011243019305D3193DEF6CF010895462F45
:101620004770405D4193B3E00FD0C9F7F6CF462F26
:101630004F70405D4A3318F0495D31FD405241938F
:1016400002D0A9F7EACFB4E0A6959795879577954C
:101650006795BA95C9F700976105710508959B01D3
:10166000AC010A2E06945795479537952795BA955C
:10167000C9F7620F731F841F951FA01D089550584E
:10168000BB27AA270ED075C166D130F06BD120F0F0
:1016900031F49F3F11F41EF45BC10EF4E095E7FBBB
:1016A00051C1E92F77D180F3BA1762077307840716
:1016B000950718F071F49EF58FC10EF4E0950B2E8E
:1016C000BA2FA02D0B01B90190010C01CA01A00194
:1016D0001124FF27591B99F0593F50F4503E68F1EF
:1016E0001A16F040A22F232F342F4427585FF3CF30
:1016F000469537952795A795F0405395C9F77EF401
:101700001F16BA0B620B730B840BBAF09150A1F049
:10171000FF0FBB1F661F771F881FC2F70EC0BA0FCF
:10172000621F731F841F48F4879577956795B79557
:10173000F7959E3F08F0B3CF9395880F08F099274F
:10174000EE0F979587950895D9D008F481E0089514
:101750000CD00FC107D140F0FED030F021F45F3F34
:1017600019F0F0C0511139C1F3C014D198F3992385
:10177000C9F35523B1F3951B550BBB27AA27621755
:101780007307840738F09F5F5F4F220F331F441F9A
:10179000AA1FA9F333D00E2E3AF0E0E830D09150D2
:1017A0005040E695001CCAF729D0FE2F27D0660FBF
:1017B000771F881FBB1F261737074807AB07B0E8FE
:1017C00009F0BB0B802DBF01FF2793585F4F2AF014
:1017D0009E3F510568F0B6C000C15F3FECF3983EF4
:1017E000DCF3869577956795B795F7959F5FC9F771
:1017F000880F911D9695879597F90895E1E0660FFA
:10180000771F881FBB1F621773078407BA0720F072
:10181000621B730B840BBA0BEE1F88F7E0950895DB
:1018200004D06894B111D9C00895BCD088F09F57F6
:1018300090F0B92F9927B751A0F0D1F0660F771F1C
:10184000881F991F1AF0BA95C9F712C0B13081F0FC
:10185000C3D0B1E00895C0C0672F782F8827B85F44
:1018600039F0B93FCCF3869577956795B395D9F75D
:101870003EF490958095709561957F4F8F4F9F4F67
:101880000895E89409C097FB3EF490958095709573
:1018900061957F4F8F4F9F4F9923A9F0F92F96E9BC
:1018A000BB279395F695879577956795B795F11131
:1018B000F8CFFAF4BB0F11F460FF1BC06F5F7F4FCE
:1018C0008F4F9F4F16C0882311F096E911C07723E0
:1018D00021F09EE8872F762F05C0662371F096E8E9
:1018E000862F70E060E02AF09A95660F771F881FB8
:1018F000DAF7880F9695879597F90895990F00085C
:10190000550FAA0BE0E8FEEF16161706E807F907D1
:10191000C0F012161306E407F50798F0621B730B6C
:10192000840B950B39F40A2661F0232B242B252BED
:1019300021F408950A2609F4A140A6958FEF811D90
:10194000811D089597F99F6780E870E060E0089531
:101950009FEF80EC089500240A94161617061806C7
:101960000906089500240A941216130614060506A3
:101970000895092E0394000C11F4882352F0BB0F34
:1019800040F4BF2B11F460FF04C06F5F7F4F8F4F97
:101990009F4F089557FD9058440F551F59F05F3FD2
:1019A00071F04795880F97FB991F61F09F3F79F081
:1019B00087950895121613061406551FF2CF469503
:1019C000F1DF08C0161617061806991FF1CF869585
:1019D0007105610508940895E894BB276627772769
:1019E000CB0197F908950BD0C4CFB5DF28F0BADF4B
:1019F00018F0952309F0A6CFABCF1124EECFCADFA4
:101A0000A0F3959FD1F3950F50E0551F629FF00111
:101A1000729FBB27F00DB11D639FAA27F00DB11D6A
:101A2000AA1F649F6627B00DA11D661F829F2227F3
:101A3000B00DA11D621F739FB00DA11D621F839F7A
:101A4000A00D611D221F749F3327A00D611D231F50
:101A5000849F600D211D822F762F6A2F11249F579E
:101A600050408AF0E1F088234AF0EE0FFF1FBB1FC1
:101A7000661F771F881F91505040A9F79E3F510560
:101A800070F060CFAACF5F3FECF3983EDCF3869511
:101A900077956795B795F795E7959F5FC1F7FE2B0B
:101AA000880F911D9695879597F9089597FB092EB4
:101AB00007260AD077FD04D049D006D000201AF4BA
:101AC000709561957F4F0895F6F7909581959F4F9A
:101AD0000895A1E21A2EAA1BBB1BFD010DC0AA1F6F
:101AE000BB1FEE1FFF1FA217B307E407F50720F087
:101AF000A21BB30BE40BF50B661F771F881F991F02
:101B00001A9469F760957095809590959B01AC014A
:101B1000BD01CF01089597FB092E05260ED057FD74
:101B200004D0D7DF0AD0001C38F45095409530958A
:101B300021953F4F4F4F5F4F0895F6F79095809551
:101B4000709561957F4F8F4F9F4F0895AA1BBB1BC8
:101B500051E107C0AA1FBB1FA617B70710F0A61BAD
:101B6000B70B881F991F5A95A9F780959095BC01CE
:101B7000CD010895EE0FFF1F0590F491E02D09941B
:101B80002F923F924F925F926F927F928F929F928D
:101B9000AF92BF92CF92DF92EF92FF920F931F937B
:101BA000CF93DF93CDB7DEB7CA1BDB0B0FB6F8942C
:101BB000DEBF0FBECDBF09942A88398848885F846C
:101BC0006E847D848C849B84AA84B984C884DF80DD
:101BD000EE80FD800C811B81AA81B981CE0FD11DC1
:101BE0000FB6F894DEBF0FBECDBFED010895F89497
:021BF000FFCF25
:101BF2002F25733A3332303A3235333A3835303A68
:101C02003731355C000708090A0B2F41434B3A254F
:101C1200730001000000009005DA05F3052E0000B4
:0A1C22000000001408DA05F30500C5
:00000001FF
