:100000000C9475000C94A4000C94A4000C94A4000F
:100010000C94A4000C94A4000C94A4000C94A400D0
:100020000C94A4000C94A4000C94A4000C94A400C0
:100030000C94A4000C94A4000C94A4000C94A400B0
:100040000C94EA010C94A4000C940E040C94A400EB
:100050000C94A4000C94A4000C94A4000C94A40090
:100060000C94A4000C94A4000C94A4000C94A40080
:100070000C94A4000C94A4000C94A4000C94A40070
:100080000C94A4000C94A4000C94A40000000000A4
:10009000240027002A0000000000250028002B0073
:1000A00000000000230026002900040404040404C6
:1000B0000404020202020202030303030303010217
:1000C00004081020408001020408102001020408E6
:1000D00010200000000700020100000304060000D9
:1000E0000000000000006705310811241FBECFEF9B
:1000F000D0E1DEBFCDBF11E0A0E0B1E0E6E5FFE278
:1001000000E00BBF02C007900D92A837B107D9F7E6
:1001100013E0A8E7B1E001C01D92A438B107E1F7F0
:1001200010E000E0CAEED0E040E006C022974109AE
:10013000FE014BBF0E946E17C63ED1074007B1F7C4
:100140000E94E3010C94A9170C940000EF92FF9217
:100150000F931F93CF93DF938091AF018F5F8093B5
:10016000AF01883209F04DC01092AF010E942608FD
:10017000815080939201C3E9D1E000E011E03DC0DD
:1001800082E00E94E508809192010E9429087C018A
:100190000E9459082DB73EB7285030400FB6F8944A
:1001A0003EBF0FBE2DBFEDB7FEB73196ADB7BEB7A0
:1001B0001296DC93CE93119713830283F582E48227
:1001C000978386830E945812EDB7FEB738960FB614
:1001D000F894FEBF0FBEEDBF87E492E0BE010E941F
:1001E000E3051092930181E0609192010E94E5087D
:1001F000809192018150809392016091920167FFFA
:10020000BFCF82E023C0992787FD9095FC01E85875
:10021000FE4F2081FC01E558FE4F6081261799F0C2
:10022000DC01A85FBE4F621730F412968C911297D2
:10023000962F9F5F04C012968C91962F91509083B9
:1002400070E00E94FD0280919201815080939201A2
:100250008091920187FFD7CF0E94DE070E94D807C6
:10026000FC019093900180938F0180818F3209F07F
:1002700080C082858C3509F07CC081818235B9F5DA
:10028000BF016B5F7F4F81E991E041E050E00E9448
:10029000411281E991E00E941A1280937F016091DE
:1002A0008F0170919001695F7F4F80E891E043E09A
:1002B00050E00E94411280E891E00E941A1280935F
:1002C0007E0190917F01292F30E0923058F4285F11
:1002D0003E4F60E0813009F461E0D9018C910E94C9
:1002E00075031DC02A583E4FF901808318C00E9433
:1002F00026088530A4F460918F01709190016F5FA2
:100300007F4F80EB91E049E050E00E944112109253
:10031000B90180EB91E00E948C091092B00100D0ED
:1003200000D000D0EDB7FEB73196C3E8D1E0ADB74D
:10033000BEB71296DC93CE9311978DE091E0938334
:10034000828380918F01909190010596958384839B
:100350000E945812EDB7FEB736960FB6F894FEBF5E
:100360000FBEEDBF87E492E0BE010E94E3050E944C
:10037000DB0762E370E080E090E00E946B02DF91B7
:10038000CF911F910F91FF90EF90089587E492E035
:1003900040E855E260E070E00E94A80484E00CC0F0
:1003A000FF27E7FDF095E85FFE4F808161E00E9446
:1003B000560380919201815080939201E0919201C5
:1003C000E7FFEECF08950E94A2020E94C6010E949C
:1003D000A600FDCF1F920F920FB60F9211242F93FC
:1003E0003F938F939F93AF93BF938091BE01909162
:1003F000BF01A091C001B091C1013091C20101962D
:10040000A11DB11D232F2D5F2D3720F02D570196F3
:10041000A11DB11D2093C2018093BE019093BF0125
:10042000A093C001B093C1018091BA019091BB012A
:10043000A091BC01B091BD010196A11DB11D809399
:10044000BA019093BB01A093BC01B093BD01BF91D1
:10045000AF919F918F913F912F910F900FBE0F9071
:100460001F9018958FB7F8942091BE013091BF016D
:100470004091C0015091C1018FBFB901CA010895D7
:100480006FB7F89486B590E0A0E0B0E0A89B08C0F4
:100490000097A105B10521F480E091E0A0E0B0E073
:1004A0002091BA013091BB014091BC015091BD0136
:1004B0006FBF542F432F322F2227280F391F4A1F77
:1004C0005B1F82E0220F331F441F551F8A95D1F70F
:1004D000B901CA010895EF92FF920F931F937B0118
:1004E0008C018FB7F8942091BE013091BF014091EB
:1004F000C0015091C1018FBF6FB7F8948091BE01C8
:100500009091BF01A091C001B091C1016FBF821B4A
:10051000930BA40BB50BE816F9060A071B0760F747
:100520001F910F91FF90EF900895019751F0880F60
:10053000991F880F991F02972FB7F8940197F1F729
:100540002FBF0895789484B5826084BD84B581609E
:1005500084BD85B5826085BD85B5816085BDEEE6CB
:10056000F0E0808181608083E1E8F0E0808182605A
:100570008083808181608083E0E8F0E08081816019
:100580008083E1EBF0E0808184608083E0EBF0E049
:10059000808181608083EAE7F0E0808184608083ED
:1005A0008081826080838081816080838081806897
:1005B00080831092C100089580931501089587707B
:1005C000909115019295990F990F907C982B90938B
:1005D0007C0080917A00806480937A0080917A0018
:1005E00086FDFCCF2091780030917900932F80E038
:1005F00030E0282B392BC90108951F93CF93DF9347
:10060000182FEB0161E00E945603E12FF0E0EE525B
:10061000FF4F8491833051F48091800080688093F3
:100620008000D0938900C09388003CC0843051F48E
:1006300080918000806280938000D0938B00C09373
:100640008A0030C0813039F4209729F184B5806860
:1006500084BDC7BD27C0823039F42097E1F084B54E
:10066000806284BDC8BD1EC0863041F48091B00058
:1006700080688093B000C093B30014C0873041F409
:100680008091B00080628093B000C093B4000AC033
:10069000C038D1051CF4812F60E002C0812F61E0D9
:1006A0000E947503DF91CF911F910895282F30E0AC
:1006B000C90182549F4FFC019491F901E655FF4F07
:1006C000E491EE2389F0F0E0EE0FFF1FE457FF4FB7
:1006D000A591B491662329F48C91909589238C93EC
:1006E00008958C91892B8C930895482F50E0CA016E
:1006F0008E529F4FFC0194919A0122543F4FF90171
:100700002491FA01E655FF4FE491EE23C9F19923B4
:1007100031F1933021F4909180009F7705C094309F
:1007200031F4909180009F7D9093800018C09130AB
:1007300019F494B59F7704C0923021F494B59F7D4D
:1007400094BD0DC0963021F49091B0009F7705C004
:10075000973029F49091B0009F7D9093B000F0E025
:10076000EE0FFF1FEA56FF4FA591B491662329F4BF
:100770008C91209582238C9308958C91822B8C935D
:100780000895282F30E0C9018E529F4FFC019491AB
:10079000A90142545F4FFA014491F901E655FF4F18
:1007A000E491EE2319F420E030E036C0992331F1D2
:1007B000933021F4909180009F7705C0943031F4FC
:1007C000909180009F7D9093800018C0913019F423
:1007D00094B59F7704C0923021F494B59F7D94BD69
:1007E0000DC0963021F49091B0009F7705C09730EE
:1007F00029F49091B0009F7D9093B000F0E0EE0F4F
:10080000FF1FE056FF4FA591B4918C9120E030E09E
:10081000842311F021E030E0C90108951F920F9266
:100820000FB60F9211242F933F934F935F936F93C3
:100830007F938F939F93AF93BF93EF93FF934091D9
:10084000C6002091430230914402C901019660E83C
:1008500070E00E940A17BC01809145029091460207
:100860006817790741F02D533E4FF901408370938B
:10087000440260934302FF91EF91BF91AF919F912A
:100880008F917F916F915F914F913F912F910F9039
:100890000FBE0F901F9018958F92AF92CF92DF925C
:1008A000EF92FF920F931F93DF93CF93CDB7DEB7F5
:1008B000FC018AE191E09183808373836283558395
:1008C00044833783268311870087F386E286D586A3
:1008D000C486A68687868D85808B8E85818BCF91F9
:1008E000DF911F910F91FF90EF90DF90CF90AF902D
:1008F0008F9008958F92AF92CF92DF92EF92FF92F6
:100900000F931F93DF93CF93CDB7DEB7FC018AE13E
:1009100091E091838083738362835583448337831B
:10092000268311870087F386E286D586C486A6864D
:1009300087868D85808B8E85818BCF91DF911F91EE
:100940000F91FF90EF90DF90CF90AF908F90089530
:10095000CF92DF92EF92FF920F931F93CF93DF938B
:10096000EC017A018B01CC80DD80CB01BA0122E061
:1009700030E040E050E00E943F17CA01B901605CDE
:100980007D4B804F9F4FA80197010E943F17C901DF
:10099000DA019C01AD012150304040405040232FEE
:1009A000342F452F552747FD5A95F6012083EE81B8
:1009B000FF8181508083EA85FB85808121E030E0E2
:1009C000A9010E8402C0440F551F0A94E2F7842B3C
:1009D0008083EA85FB858081A9010F8402C0440FD2
:1009E000551F0A94E2F7842B8083EA85FB8580817A
:1009F000088802C0220F331F0A94E2F7822B8083FB
:100A0000DF91CF911F910F91FF90EF90DF90CF90EA
:100A10000895FC0122813381F901E058FF4F808164
:100A2000918180589F4F2E573F4FF901208131818E
:100A3000821B930B60E870E00E940A170895DC01A6
:100A400012962D913C911397F901EE57FF4F80813B
:100A50009181D901A058BF4F4D915C9111974817D2
:100A6000590719F42FEF3FEF0CC0280F391FD90198
:100A70002C91019660E870E00E940A1791838083B0
:100A800030E0C9010895DC0112968D919C91139775
:100A9000FC01E058FF4F8E579F4FDC018D919C91D8
:100AA0001197918380830895FC01A085B1852189E8
:100AB0008C9190E0022E02C0959587950A94E2F7FA
:100AC00080FFF6CF0484F585E02D608308958AE1E8
:100AD00091E0909348028093470283EC91E09093D9
:100AE0004A028093490285EC90E090934C028093F7
:100AF0004B0284EC90E090934E0280934D0280EC88
:100B000090E09093500280934F0281EC90E090939C
:100B100052028093510286EC90E0909354028093AD
:100B2000530284E08093550283E08093560287E06D
:100B30008093570285E08093580208950F931F9386
:100B4000CF93DF93EC018B0109C00F5F1F4FE8814A
:100B5000F9810190F081E02DCE010995F8016081C5
:100B6000662399F7DF91CF911F910F910895EF922E
:100B7000FF920F931F93CF93DF93EC018B017A01C8
:100B80000DC0F80161918F01E881F9810190F08138
:100B9000E02DCE0109950894E108F108E114F10473
:100BA00081F7DF91CF911F910F91FF90EF90089502
:100BB000DC01ED91FC910190F081E02D0995089503
:100BC0000E94D8050895DC01ED91FC910280F3812B
:100BD000E02D09950895CF93DF93EC016DE00E941D
:100BE000D805CE016AE00E94D805DF91CF91089523
:100BF000CF93DF93EC010E94D805CE010E94EB0554
:100C0000DF91CF910895CF93DF93EC010E94E3052C
:100C1000CE010E94EB05DF91CF910895CF93DF9332
:100C2000EC010E94D805CE010E94EB05DF91CF9127
:100C300008952F923F924F925F926F927F928F9280
:100C40009F92AF92BF92CF92DF92EF92FF920F935B
:100C50001F93DF93CF93CDB7DEB7A2970FB6F8946B
:100C6000DEBF0FBECDBF2C015A016B0141155105EE
:100C70006105710521F460E30E94D8054CC0EE24A3
:100C8000FF248701622E7724882499241E0108946A
:100C9000211C311CC1018E0D9F1D9AA389A3C60181
:100CA000B501A40193010E941D17E9A1FAA1608377
:100CB0000894E11CF11C011D111DC601B501A40120
:100CC00093010E941D17A22EB32EC42ED52EA1145F
:100CD000B104C104D104F1F6D801C7010197A109FB
:100CE000B109280E391E12C00894E108F108010963
:100CF0001109F10160816A3010F4605D01C0695C26
:100D0000C2010E94D805089421083108E114F104B9
:100D10000105110549F7A2960FB6F894DEBF0FBE84
:100D2000CDBFCF91DF911F910F91FF90EF90DF909A
:100D3000CF90BF90AF909F908F907F906F905F907B
:100D40004F903F902F9008952AE00E941906089531
:100D5000CF93DF93EC010E94A406CE010E94EB0525
:100D6000DF91CF910895AB0160E070E00E94A4068E
:100D70000895CF93DF93EC01AB0160E070E00E9437
:100D8000A406CE010E94EB05DF91CF910895EF926A
:100D9000FF920F931F93CF93DF93EC017A018B01A6
:100DA00077FF0BC06DE20E94D80510950095F09476
:100DB000E094E11CF11C011D111DCE01B801A70139
:100DC0002AE00E941906DF91CF911F910F91FF90A9
:100DD000EF900895CF93DF93EC010E94C706CE01F8
:100DE0000E94EB05DF91CF9108959B01A901662731
:100DF00057FD6095762F0E94C7060895CF93DF9325
:100E0000EC01CB01AC01662757FD6095762FCE0132
:100E10000E94C706CE010E94EB05DF91CF91089595
:100E20002115310521F4642F0E94D80508952A3038
:100E3000310519F40E94C70608950E941906089505
:100E4000CF93DF93EC010E941007CE010E94EB05C7
:100E5000DF91CF9108958F929F92AF92BF92CF92E0
:100E6000DF92EF92FF920F931F93CF93DF93EC01EA
:100E70006A017B01122FCB01BA0120E030E040E093
:100E800050E00E945815882344F4CE016DE20E9480
:100E9000D805F7FAF094F7F8F09400E050E040E05D
:100EA00030E02FE311C0DA01F9016B2F742F8F2F7F
:100EB000922F20E030E040E251E40E945C15562F72
:100EC000472F382F292F0F5F011768F3C701B6018D
:100ED000DA01F9012B2F342F4F2F5E2F0E94F414CB
:100EE0007B01082FA92E7F2D0E94C915B62ED72E63
:100EF000882EC92ECE014B2D5D2D682D7C2D0E9494
:100F0000A406112329F0CE0160E271E00E94E305FE
:100F10006B2D7D2D882D9C2D0E94F5159B01AC011C
:100F20006E2D7F2D802F9A2D0E94F31423C020E078
:100F300030E040E251E40E94A716F62EC72E082F9B
:100F4000E92E0E94C4154B01AA2497FCA094BA2C48
:100F5000CE01B501A4010E94C706C501B4010E94DB
:100F6000F7159B01AC016F2D7C2D802F9E2D0E94CB
:100F7000F31411501123D9F6DF91CF911F910F91E6
:100F8000FF90EF90DF90CF90BF90AF909F908F90A9
:100F9000089522E00E942B070895CF93DF93EC0180
:100FA0000E94C907CE010E94EB05DF91CF91089501
:100FB0008FE592E0089510925F020895CF93DF933A
:100FC0000E94320260935B0270935C0280935D0228
:100FD00090935E0287E492E00E940905882399F1CC
:100FE0000E94320220915B0230915C0240915D02CE
:100FF00050915E02621B730B840B950B6A3F710567
:1010000081059105A8F4C0915902D0915A02CB30C4
:10101000D10574F487E492E00E941F05FE01E15AB5
:10102000FD4F80832196D0935A02C0935902D8CFA6
:10103000E0915902F0915A02E15AFD4F108210924C
:101040005A0210925902DF91CF91089580912C039A
:1010500008959AE089029001112427503D4FC9015B
:101060000895CF93DF9385E792E00E94830DCDE250
:10107000D3E0CE010E94F30D85E393E00E94E909DD
:101080008EE393E00E94CF0B81E593E00E94F60B84
:1010900086E693E00E94FD0B40916103509162034C
:1010A0008FE693E0BE0125E00E940410DF91CF910E
:1010B0000895CF93DF9385E792E00E943B1185E787
:1010C00092E00E94990DE5E3F3E0DC0189E00D90E8
:1010D00001928150E1F785E393E00E940E0A882394
:1010E00009F46CC085E393E00E94EA09813839F085
:1010F00085E393E00E94EA09803809F05FC085E348
:1011000093E00E94EA09813869F585E393E063E59D
:1011100073E00E94890C81E593E00E944B0C809360
:101120005E0382E190E012C0C0915F03D091600342
:10113000C60FD71F81E593E00E94770BFC018081E9
:101140008883809163039091640301979093640373
:10115000809363036091630370916403161617060E
:101160001CF32CC085E393E060E473E00E94AF0CB5
:101170008EE393E00E944B0C80935E0382E190E04B
:1011800012C0C0915F03D0916003C60FD71F8EE3DA
:1011900093E00E94770BFC01808188838091630338
:1011A000909164030197909364038093630360912B
:1011B000630370916403161617061CF380915F0396
:1011C00090916003DF91CF910895EF92FF920F937A
:1011D0001F93DF93CF93CDB7DEB76D970FB6F8941B
:1011E000DEBF0FBECDBF882319F486E391E007C0B0
:1011F000813019F481E391E002C08CE291E0909398
:101200006203809361038AE0680280011124075021
:101210001D4F222717FD2095322F7E010894E11CD7
:10122000F11CC70140E052EA63E170E00E94020E47
:10123000ADE2B3E0F70188E001900D928150E1F753
:101240004091610350916203CE0109966DE273E013
:1012500025E00E9404108B85809371038C85809318
:1012600072038D85809373038E859F85909375039C
:101270008093740388899989909377038093760388
:101280008A899B8990937903809378038C898093D2
:101290007A03ABE7B3E0FE01759688E001900D920A
:1012A0008150E1F78D8D8093830385E792E06FE6AF
:1012B00073E00E94E61085E792E064EF71E00E941F
:1012C000E5118823D1F085E792E00E94990D0E94F4
:1012D000EA09893889F485E792E00E94990D66E66B
:1012E00073E00E94AA0A86E693E00E94040C90E054
:1012F000882321F491E002C002C09FEF892F6D96F0
:101300000FB6F894DEBF0FBECDBFCF91DF911F9116
:101310000F91FF90EF900895EF92FF920F931F931C
:10132000CF93DF937C011092650300912C0311276A
:1013300007FD1095C80101979093640380936303A0
:101340001BC0CE01880F991F9E0143E0220F331F5F
:101350004A95E1F7820F931F87509D4FB7010E9476
:101360003812009721F481E0809365030BC0219629
:10137000D0936403C0936303C0916303D09164036B
:10138000D7FFDFCF809165038823D1F4C801880F90
:10139000991F23E0000F111F2A95E1F7800F911F7D
:1013A00087509D4FB70149E050E00E944112609183
:1013B0002C03862F8F5F80932C0380E00E94E5082A
:1013C000DF91CF911F910F91FF90EF900895FFCF84
:1013D00008950895FC0182810895FC0162830895B7
:1013E0009C012D5F3F4FC9010895FC01638308955F
:1013F0009C012C5F3F4FC9010895FC01648308954F
:101400009C012B5F3F4FC9010895FC01658308953E
:10141000FC0186810895FC0166830895FC018781A3
:101420000895FC0167830895FC0180850895FC01FF
:1014300060870895FC01DB01828112968C931297DC
:10144000878117968C931797858115968C9315979E
:10145000808518968C931897868116968C9316978C
:10146000838113968C931397848114968C9314978D
:101470000895DF93CF93CDB7DEB728970FB6F894D2
:10148000DEBF0FBECDBFDC0189E691E011969C93D3
:101490008E931B96FE01319698E001900D9291502B
:1014A000E1F728960FB6F894DEBF0FBECDBFCF91FF
:1014B000DF910895DF93CF93CDB7DEB728970FB6AE
:1014C000F894DEBF0FBECDBFDC0189E691E0119636
:1014D0009C938E931B96FE01319698E001900D929D
:1014E0009150E1F728960FB6F894DEBF0FBECDBF3E
:1014F000CF91DF91089508950895DC01ED91FC915D
:10150000119780810895DC01ED91FC911197318153
:1015100020E08281280F311DC9010895DC01ED9181
:10152000FC91119783810895DC01ED91FC91119755
:1015300084810895DC01ED91FC91119785810895D6
:10154000FC0180E00190F081E02D9481992309F461
:1015500081E00895FC01DB018081918111969C93CB
:101560008E93828112968C931297878117968C9313
:101570001797858115968C931597808518968C936F
:101580001897868116968C931697838113968C9361
:101590001397848114968C93149708959C01255F6A
:1015A0003F4FC9010895DC011296ED91FC9113970C
:1015B000308520E08185280F311DC9010895DC01A7
:1015C0001296ED91FC911397828508958BE0089512
:1015D0001F93DC0116961C911697ED91FC910190DA
:1015E000F081E02D09951150181B812F1F9108954E
:1015F000CF93DF93FC01DB01EB0122978081918186
:101600009B838A83828112968C9312978781179687
:101610008C931797858115968C93159780851896CE
:101620008C931897868116968C93169783811396C0
:101630008C931397848114968C930190F081E02D04
:101640002381808190E0A0E0B0E0B82FAA279927FD
:101650008827820F911DA11DB11D218130E040E03E
:1016600050E0A90133272227820F931FA41FB51F23
:10167000328120E040E050E0820F931FA41FB51F8D
:101680008B879C87AD87BE87848190E0A0E0B0E027
:10169000B82FAA2799278827258130E040E050E01D
:1016A000A90133272227820F931FA41FB51F27816B
:1016B000820F911DA11DB11D368120E040E050E058
:1016C000820F931FA41FB51F8F87988BA98BBA8B8E
:1016D000DF91CF91089525E731E0FC01318320832C
:1016E000089525E731E0FC013183208308950F93AD
:1016F0001F93CF93DF938B01DC011296CD91DC9188
:101700001397ED91FC910190F081E02D0995080F60
:10171000111D0C0F1D1FC801DF91CF911F910F915B
:10172000089521E631E0FC0131832083089521E60C
:1017300031E0FC01318320830895DC011296ED91A4
:10174000FC9113978181308120E0280F311DC90160
:1017500008959C01255F3F4FC9010895DF93CF9302
:10176000CDB7DEB728970FB6F894DEBF0FBECDBF5A
:10177000DC0181E591E011969C938E931B96FE010E
:10178000319698E001900D929150E1F728960FB6AE
:10179000F894DEBF0FBECDBFCF91DF910895DF93E8
:1017A000CF93CDB7DEB728970FB6F894DEBF0FBE44
:1017B000CDBFDC0181E591E011969C938E931B9641
:1017C000FE01319698E001900D929150E1F7289634
:1017D0000FB6F894DEBF0FBECDBFCF91DF91089555
:1017E00029E531E0FC0131832083089529E531E0CA
:1017F000FC0131832083089508950895DC01ED9163
:10180000FC91119780810895DC01ED91FC91119775
:1018100081810895FC0180E00190F081E02D9181AB
:10182000992309F481E00895FC01DB018081918115
:1018300011969C938E93828112968C931297878136
:1018400017968C931797858115968C93159780859D
:1018500018968C931897868116968C931697838189
:1018600013968C931397848114968C9314970895F0
:10187000CF93DF93DC011296CD91DC911397ED911C
:10188000FC910280F381E02D0995C80FD11D88815C
:10189000DF91CF910895CF93DF93DC011296CD9124
:1018A000DC911397ED91FC910280F381E02D099575
:1018B000C80FD11D8981DF91CF9108950E944B0CF3
:1018C00090E096958795817008950E944B0C90E06A
:1018D0009695879596958795817008951F93DC015D
:1018E00016961C911697ED91FC910190F081E02DD8
:1018F00009951150181B812F1F910895DC01ED915E
:10190000FC910280F381E02D09958E5F089582E0BD
:101910000895FC01DB018081918111969C938E9347
:10192000828112968C931297878117968C931797C2
:10193000858115968C931597808518968C931897AA
:10194000868116968C931697838113968C931397A2
:10195000848114968C931497089588E00895CF930A
:10196000DF93FC01DB01EB012297808191819B8356
:101970008A83828112968C931297878117968C9313
:101980001797858115968C931597808518968C935B
:101990001897868116968C931697838113968C934D
:1019A0001397848114968C930190F081E02D23810C
:1019B000808190E0A0E0B0E0B82FAA27992788277F
:1019C000820F911DA11DB11D218130E040E050E04A
:1019D000A90133272227820F931FA41FB51F32812D
:1019E00020E040E050E0820F931FA41FB51F8B87BB
:1019F0009C87AD87BE87848190E0A0E0B0E0B82FDF
:101A0000AA2799278827258130E040E050E0A901E6
:101A100033272227820F931FA41FB51F2781820F10
:101A2000911DA11DB11D368120E040E050E0820FE4
:101A3000931FA41FB51F8F87988BA98BBA8BDF913B
:101A4000CF91089508950895FC01808191810895B2
:101A5000FC01DB018081918111969C938E938281A0
:101A600012968C931297878117968C93179785817E
:101A700015968C931597808518968C931897868168
:101A800016968C931697838113968C931397848163
:101A900014968C9314970895FC01848190E0089526
:101AA000FC01808191810895FC0171836083089518
:101AB000FC011782108615820895FC01178210869A
:101AC0001282138214821582168280E090E0A08137
:101AD000B181A80FB91F1C92019684369105B9F700
:101AE0000895FC01128611860E945D0D0895FC0187
:101AF00012861186148615861782108615820E9618
:101B0000918380830895FC011286118614861586C0
:101B10001782108615820E96918380830895FC01AA
:101B200085858F5F8587882311F481E0858785858A
:101B300008950895FC01DB01838113968C9313971C
:101B4000848114968C931497828112968C931297A9
:101B5000868116968C9316978081918111969C931D
:101B60008E930895EF920F931F93FC018FE691E0FF
:101B70009183808362834383308727831287018721
:101B8000E3861F910F91EF900895EF920F931F93AB
:101B9000FC018FE691E091838083628343833087E9
:101BA000278312870187E3861F910F91EF90089595
:101BB000FC0163830895FC0183810895FC01818504
:101BC00092850895FC0183850895FC0176836583E1
:101BD0000895FC01858196810895FC01878108950F
:101BE00008950895089508950F931F93FC0140836D
:101BF00051836283738304831583268337831F9104
:101C00000F9108950F931F93FC01408351836283CA
:101C1000738304831583268337831F910F9108955F
:101C2000FC0160817181828193810895FC01408370
:101C30005183628373830895FC0164817581868179
:101C400097810895FC0144835583668377830895C3
:101C5000AF92CF92EF92FF920F93CF93DF93FC015D
:101C600080E18283A3828CE090E090878783F28674
:101C7000E186C3868BE491E091838083EF012C960B
:101C8000862F972FDC0188E00D9009928150E1F7B3
:101C9000558B448B268B078BDF91CF910F91FF9053
:101CA000EF90CF90AF900895AF92CF92EF92FF92C6
:101CB0000F93CF93DF93FC0180E18283A3828CE0BA
:101CC00090E090878783F286E186C3868BE491E07B
:101CD00091838083EF012C96862F972FDC0188E07B
:101CE0000D9009928150E1F7558B448B268B078B21
:101CF000DF91CF910F91FF90EF90CF90AF9008952B
:101D0000CF93DF93FC0180E1828381E083838CE0C9
:101D100090E0908787835287418723878BE491E007
:101D200091838083EF012C96862F972FDC0188E02A
:101D30000D9009928150E1F78EEF9FEF958B848B88
:101D4000168A178ADF91CF910895CF93DF93FC0114
:101D500080E1828381E083838CE090E090878783B9
:101D60005287418723878BE491E091838083EF0141
:101D70002C96862F972FDC0188E00D9009928150D8
:101D8000E1F78EEF9FEF958B848B168A178ADF9190
:101D9000CF910895FC01A581B681878515968C9316
:101DA000A581B681868516968C93A581B681858599
:101DB00017968C93A581B681848518968C93A581FE
:101DC000B681838919968C93A581B68182891A96EA
:101DD0008C93A581B68181891B968C93A581B68150
:101DE00080891C968C93A581B68185891D968C93DC
:101DF000A581B68184891E968C93A581B68186893A
:101E00001F968C93A581B681878950968C935097A5
:101E100008959C01245F3F4FC9010895FC01848906
:101E200095890895FC0186890895FC0187890895A4
:101E3000DC011C96862F972FFC0188E001900D9203
:101E40008150E1F70895FC01758B648B0895FC01C6
:101E5000668B0895FC01678B0895EF920F93FC0148
:101E600081E08283E38283E090E0908787833287FA
:101E70002187038785E491E0918380837587648758
:101E800046870F91EF900895EF920F93FC0181E048
:101E90008283E38283E090E0908787833287218783
:101EA000038785E491E09183808375876487468703
:101EB0000F91EF900895FC0181E08283838383E09A
:101EC00090E09087878352874187238785E491E05C
:101ED000918380837587648716860895FC0181E06D
:101EE0008283838383E090E0908787835287418752
:101EF000238785E491E091838083758764871686C4
:101F00000895FC01A581B681858515968C93A581E0
:101F1000B681848516968C93A581B68186851796A1
:101F20008C9317970895FC01848595850895FC018D
:101F3000758764870895FC0186850895FC0166878E
:101F40000895EF920F93CF93DF93FC011282E38207
:101F500089E090E0908787833287218703878FE32A
:101F600091E091838083EF012C96862F972FDC01DF
:101F700088E00D9009928150E1F7448BDF91CF9179
:101F80000F91EF900895EF920F93CF93DF93FC01A1
:101F90001282E38289E090E09087878332872187ED
:101FA00003878FE391E091838083EF012C96862F46
:101FB000972FDC0188E00D9009928150E1F7448B66
:101FC000DF91CF910F91EF900895CF93DF93FC01B4
:101FD000128281E0838389E090E090878783528733
:101FE000418723878FE391E091838083EF012C96D3
:101FF000862F972FDC0188E00D9009928150E1F740
:10200000148ADF91CF910895CF93DF93FC01128260
:1020100081E0838389E090E09087878352874187BE
:1020200023878FE391E091838083EF012C96862FA5
:10203000972FDC0188E00D9009928150E1F7148A16
:10204000DF91CF910895FC01A581B6818785159612
:102050008C93A581B681868516968C93A581B681D1
:10206000858517968C93A581B681848518968C9367
:10207000A581B681838919968C93A581B6818289C1
:102080001A968C93A581B68181891B968C93A58124
:10209000B68180891C968C93A581B68184891D9612
:1020A0008C931D9708959C01245F3F4FC9010895AB
:1020B000DC011C96862F972FFC0188E001900D9281
:1020C0008150E1F70895FC0184890895FC01648B37
:1020D0000895CF93DF93EC01ED81FE818EE780833D
:1020E000ED81FE818B8590E002962F81820F911DFC
:1020F0009183ED81FE818B858E5F9F81890F828325
:10210000E881F9810190F081E02DCE010995ED8102
:10211000FE818A818383ED81FE818B8184839F810F
:10212000492F50E04F5F5F4F20E030E080E06D814D
:102130007E81FB01E20FF31FE3818E0F2F5F3F4F84
:1021400042175307A4F74B85442379F020E030E091
:1021500050E008C0E985FA85E20FF31FE0818E0F99
:102160002F5F3F4F24173507ACF3690F711D809522
:10217000FB018583DF91CF910895CF93DF93EB012E
:102180004423B9F08881982F9D57923020F08131F7
:1021900011F0833171F487E492E04DE750E060E0A4
:1021A00070E020E030E00E941007488180E248277C
:1021B00001C0488150E060E070E087E492E020E0F8
:1021C00030E00E941007DF91CF910895EF92FF92C7
:1021D0000F931F93CF93DF938C01EB018E589F4F8A
:1021E0009E838D83CB010E946910EE24FF2411C0D1
:1021F0006D817E81E114F10419F4C80140E004C04E
:102200006E0D7F1DC80141E00E94BD100894E11CC5
:10221000F11C8F8190E004968E159F054CF78B85FD
:10222000882399F0EE24FF240BC069857A856E0D12
:102230007F1DC80141E00E94BD100894E11CF11C03
:102240008B8590E0E816F90684F38F8190E005967F
:102250006D817E81680F791FC80141E00E94BD1029
:1022600087E492E00E944305DF91CF911F910F9187
:10227000FF90EF900895DF92EF92FF920F931F93DC
:10228000CF93DF93EC018F81882321F48885882305
:1022900009F477C0CE010E94710D73C087E492E00B
:1022A0000E941F058B879A85992329F08E3719F490
:1022B000CE010E94710D8A85882391F08B858D3720
:1022C00079F487E492E00E940905882339F087E4D5
:1022D00092E00E941F0581278B8702C0098759C0A1
:1022E0008985882321F08B8581278B8719868A85AC
:1022F000833020F08C859B85890F8C878A8581307F
:1023000061F0813028F0823061F0833091F40DC0AB
:102310008B858E37F1F50A873CC08B858B83DA86F7
:1023200038C08B858C83EA8634C08B858A83FA8695
:1023300030C0853618F081E0888732C090E02C816B
:1023400030E02D5F3F4F8217930781F48C858F3FDC
:1023500029F48B858D8381E08F8302C081E088879B
:102360008A8584508E831A861C861AC0E881F9817A
:10237000E80FF91F34978B8580838A858F5F8A8762
:1023800008C0A2E0DA2E01E0F3E0EF2EE4E0FE2E3A
:1023900010E287E492E00E940905882309F07ECFCD
:1023A000DF91CF911F910F91FF90EF90DF900895F3
:1023B000CF93DF93EC0103C0CE010E943B118F81CC
:1023C0008823D1F3DF91CF910895CF92DF92EF92DE
:1023D000FF920F931F93CF93DF93EC018B0177FD57
:1023E00014C00E9432026B017C0108C0CE010E9421
:1023F0003B118F81882311F081E008C00E943202D6
:102400006C197D09601771078CF380E0DF91CF9123
:102410001F910F91FF90EF90DF90CF900895CB0127
:10242000AC01662757FD6095762F87E492E00E9405
:10243000A8040895FC0188279927E8942191203267
:10244000E9F3293010F02E30C8F32B3241F02D3251
:1024500039F4689404C00E945012820F911D21919A
:1024600020532A30C0F31EF4909581959F4F089514
:10247000FB01DC018D91019080190110D9F3990BBA
:102480000895FB01DC014150504048F001900D924D
:102490000020C9F701C01D9241505040E0F7089557
:1024A0007AE0979F902D879F802D910D112408959C
:1024B000AEE0B0E0EEE5F2E10C9480170D891E89E4
:1024C00086E08C831A8309838FEF9FE79E838D8339
:1024D0009E01275E3F4FCE0101966F89788DA9013D
:1024E0000E947B12EF81F885E00FF11F10822E967B
:1024F000E4E00C949C17ACE0B0E0E1E8F2E10C946D
:1025000073176C012B018A01FC01178216828381EB
:1025100081FD03C02FEF3FEFC1C14E010894811C24
:10252000911C6FE3362EF6019381F20193FD8591A4
:1025300093FF81912F01882309F4ADC1853239F4CD
:1025400093FD859193FF81912F01853229F490E0CD
:10255000B6010E946914E7CFEE24FF2420E0203268
:10256000B0F48B3269F08C3228F4803251F083322F
:1025700071F40BC08D3239F0803349F421602CC0E6
:102580002260246029C0286027C0206125C027FD63
:102590002CC0382F30533A3098F426FF08C08E2DC7
:1025A000880FE82EEE0CEE0CE80EE30E15C08F2D12
:1025B000880FF82EFF0CFF0CF80EF30E20620CC0F3
:1025C0008E3221F426FD67C1206406C08C3611F4DA
:1025D000206802C0883649F4F20193FD859193FF8B
:1025E00081912F01882309F0BACF982F9554933009
:1025F00018F09052933020F40C5F1F4F39820DC0B9
:10260000833631F0833771F0833509F058C01EC02E
:10261000F801808189830E5F1F4F540151E0652EC0
:10262000712C12C0F801A080B18026FD03C06FEFAD
:102630007FEF02C06E2D70E00E5F1F4FC5012C872B
:102640000E945E143C012C852F7713C0F801A080F6
:10265000B18026FD03C06FEF7FEF02C06E2D70E0EA
:102660000E5F1F4FC5012C870E9453143C012C851F
:10267000206823FF09C01FC080E290E0B6012C87CC
:102680000E946914FA942C858F2D90E068167906C3
:1026900098F311C0F50127FD859127FF81915F0116
:1026A00090E0B6012C870E9469142C85F110FA94F1
:1026B0000894610871086114710461F7E9C08436F7
:1026C00011F0893649F527FF08C0F8016081718152
:1026D000828193810C5F1F4F09C0F8016081718175
:1026E000882777FD8095982F0E5F1F4F4FE6B42EF9
:1026F000B22297FF09C090958095709561957F4FA4
:102700008F4F9F4FF0E8BF2AA4012AE030E00E94DB
:102710009514782E781843C0853731F43FEEB32EE8
:10272000B2222AE030E023C099EFB92EB2228F36D0
:1027300061F0803720F4883509F0ADC012C08037D1
:1027400039F0883709F0A7C005C028E030E00FC095
:1027500020E1B22AB4FE02C084E0B82A20E130E0D1
:1027600006C0B4FE02C0E6E0BE2A20E132E0B7FEB9
:1027700008C0F80160817181828193810C5F1F4FD5
:1027800007C0F8016081718180E090E00E5F1F4F0B
:10279000A4010E949514782E7818FFE7BF22B6FE98
:1027A0000BC02EEFB2227E1438F4B4FE07C0B2FC88
:1027B00005C08FEEB82202C0A72C01C0AE2C8B2D15
:1027C000B4FE0DC0FE01E70DF11D9081903319F4A8
:1027D000E9EEBE2207C0A394B2FE04C002C0867810
:1027E00009F0A3946B2CB3FC14C0B0FE0FC0AF145F
:1027F00010F0E72C0BC0E72CEF0CEA18AF2C06C04A
:1028000080E290E0B6010E946914A394AF14C0F373
:1028100004C0AF1410F4FA1801C0FF2464FE0FC006
:1028200080E390E0B6010E94691462FE1DC061FC65
:1028300003C088E790E00EC088E590E00BC0862DCD
:10284000867891F061FE02C08BE201C080E2B7FCA5
:102850008DE290E0B6010E94691406C080E390E02A
:10286000B6010E946914EA947E14C0F37A94F401CC
:10287000E70DF11D808190E0B6010E946914772078
:10288000A9F706C080E290E0B6010E946914FA94AC
:10289000FF20C1F748CEF60126813781C9012C9669
:1028A000E1E10C948F17FC0105906150704001101C
:1028B000D8F7809590958E0F9F1F0895FC01615069
:1028C000704001900110D8F7809590958E0F9F1F52
:1028D00008950F931F93CF93DF938C01EB018B81AE
:1028E00081FF1BC082FF0DC02E813F818C819D81A5
:1028F0002817390764F4E881F9810193F983E883A3
:1029000006C0E885F985802F0995009731F48E81FE
:102910009F8101969F838E8302C00FEF1FEFC80136
:10292000DF91CF911F910F910895FA01AA272830C6
:1029300051F1203181F1E8946F936E7F6E5F7F4F8C
:102940008F4F9F4FAF4FB1E03ED0B4E03CD0670F08
:10295000781F891F9A1FA11D680F791F8A1F911D5B
:10296000A11D6A0F711D811D911DA11D20D009F4AB
:1029700068943F912AE0269F11243019305D3193ED
:10298000DEF6CF010895462F4770405D4193B3E0D6
:102990000FD0C9F7F6CF462F4F70405D4A3318F07D
:1029A000495D31FD4052419302D0A9F7EACFB4E02E
:1029B000A6959795879577956795BA95C9F70097E6
:1029C0006105710508959B01AC010A2E0694579587
:1029D000479537952795BA95C9F7620F731F841FDE
:1029E000951FA01D08955058BB27AA270ED075C16A
:1029F00066D130F06BD120F031F49F3F11F41EF41A
:102A00005BC10EF4E095E7FB51C1E92F77D180F36C
:102A1000BA17620773078407950718F071F49EF5DB
:102A20008FC10EF4E0950B2EBA2FA02D0B01B9012A
:102A300090010C01CA01A0011124FF27591B99F034
:102A4000593F50F4503E68F11A16F040A22F232F40
:102A5000342F4427585FF3CF469537952795A79590
:102A6000F0405395C9F77EF41F16BA0B620B730B37
:102A7000840BBAF09150A1F0FF0FBB1F661F771FA8
:102A8000881FC2F70EC0BA0F621F731F841F48F45D
:102A9000879577956795B795F7959E3F08F0B3CFE3
:102AA0009395880F08F09927EE0F979587950895CD
:102AB000D9D008F481E008950CD00FC107D140F0BF
:102AC000FED030F021F45F3F19F0F0C0511139C150
:102AD000F3C014D198F39923C9F35523B1F3951B8F
:102AE000550BBB27AA2762177307840738F09F5F2F
:102AF0005F4F220F331F441FAA1FA9F333D00E2E9E
:102B00003AF0E0E830D091505040E695001CCAF70A
:102B100029D0FE2F27D0660F771F881FBB1F2617CF
:102B200037074807AB07B0E809F0BB0B802DBF01A2
:102B3000FF2793585F4F2AF09E3F510568F0B6C0BB
:102B400000C15F3FECF3983EDCF38695779567957F
:102B5000B795F7959F5FC9F7880F911D9695879553
:102B600097F90895E1E0660F771F881FBB1F621772
:102B700073078407BA0720F0621B730B840BBA0B30
:102B8000EE1F88F7E095089504D06894B111D9C07C
:102B90000895BCD088F09F5790F0B92F9927B7516E
:102BA000A0F0D1F0660F771F881F991F1AF0BA9511
:102BB000C9F712C0B13081F0C3D0B1E00895C0C0F0
:102BC000672F782F8827B85F39F0B93FCCF3869507
:102BD00077956795B395D9F73EF490958095709564
:102BE00061957F4F8F4F9F4F0895E89409C097FBE1
:102BF0003EF490958095709561957F4F8F4F9F4FD4
:102C00009923A9F0F92F96E9BB279395F695879517
:102C100077956795B795F111F8CFFAF4BB0F11F4DA
:102C200060FF1BC06F5F7F4F8F4F9F4F16C0882381
:102C300011F096E911C0772321F09EE8872F762FB7
:102C400005C0662371F096E8862F70E060E02AF0F8
:102C50009A95660F771F881FDAF7880F96958795E4
:102C600097F90895990F0008550FAA0BE0E8FEEFB9
:102C700016161706E807F907C0F012161306E40740
:102C8000F50798F0621B730B840B950B39F40A2639
:102C900061F0232B242B252B21F408950A2609F417
:102CA000A140A6958FEF811D811D089597F99F671B
:102CB00080E870E060E008959FEF80EC08950024C4
:102CC0000A941616170618060906089500240A9491
:102CD00012161306140605060895092E0394000C17
:102CE00011F4882352F0BB0F40F4BF2B11F460FFA6
:102CF00004C06F5F7F4F8F4F9F4F089557FD9058CF
:102D0000440F551F59F05F3F71F04795880F97FBAF
:102D1000991F61F09F3F79F0879508951216130669
:102D20001406551FF2CF4695F1DF08C01616170698
:102D30001806991FF1CF86957105610508940895CD
:102D4000E894BB2766277727CB0197F908950BD026
:102D5000C4CFB5DF28F0BADF18F0952309F0A6CF6D
:102D6000ABCF1124EECFCADFA0F3959FD1F3950F1F
:102D700050E0551F629FF001729FBB27F00DB11DFF
:102D8000639FAA27F00DB11DAA1F649F6627B00D8F
:102D9000A11D661F829F2227B00DA11D621F739F78
:102DA000B00DA11D621F839FA00D611D221F749F86
:102DB0003327A00D611D231F849F600D211D822FCD
:102DC000762F6A2F11249F5750408AF0E1F0882314
:102DD0004AF0EE0FFF1FBB1F661F771F881F915021
:102DE0005040A9F79E3F510570F060CFAACF5F3FDA
:102DF000ECF3983EDCF3869577956795B795F79554
:102E0000E7959F5FC1F7FE2B880F911D96958795DB
:102E100097F9089597FB092E07260AD077FD04D06D
:102E200049D006D000201AF4709561957F4F08951F
:102E3000F6F7909581959F4F0895A1E21A2EAA1B4F
:102E4000BB1BFD010DC0AA1FBB1FEE1FFF1FA2175A
:102E5000B307E407F50720F0A21BB30BE40BF50B57
:102E6000661F771F881F991F1A9469F760957095E0
:102E7000809590959B01AC01BD01CF01089597FB12
:102E8000092E05260ED057FD04D0D7DF0AD0001C2E
:102E900038F450954095309521953F4F4F4F5F4FF7
:102EA0000895F6F790958095709561957F4F8F4FB7
:102EB0009F4F0895AA1BBB1B51E107C0AA1FBB1F50
:102EC000A617B70710F0A61BB70B881F991F5A95B6
:102ED000A9F780959095BC01CD0108950790F691D2
:102EE000E02D09942F923F924F925F926F927F92C2
:102EF0008F929F92AF92BF92CF92DF92EF92FF920A
:102F00000F931F93CF93DF93CDB7DEB7CA1BDB0BB5
:102F10000FB6F894DEBF0FBECDBF09942A8839885A
:102F200048885F846E847D848C849B84AA84B98461
:102F3000C884DF80EE80FD800C811B81AA81B9816D
:102F4000CE0FD11D0FB6F894DEBF0FBECDBFED0181
:062F50000895F894FFCF84
:102F56002F25733A25735C000708090A0B2F414396
:102F66004B3A257300010000000054059E05B70585
:102F76002E0000000000E7099E05B7052F524551B7
:102F86005C2F41434B5C2F4E45575C0000000023ED
:102F96001000000000810F00000000CA0E000000B3
:102FA600007E0CAD0C000000007E0C870C000000BB
:102FB600007E0CE70900000000E60A00000000E7BA
:082FC6000900000000E709000A
:00000001FF
