:100000000C9462000C948A000C948A000C948A0070
:100010000C948A000C948A000C948A000C948A0038
:100020000C948A000C948A000C948A000C948A0028
:100030000C948A000C948A000C948A000C948A0018
:100040000C945B010C948A000C947F030C948A003E
:100050000C948A000C948A000C948A000C948A00F8
:100060000C948A000C948A000000000024002700F1
:100070002A0000000000250028002B0000000000DE
:1000800023002600290004040404040404040202DA
:100090000202020203030303030301020408102007
:1000A0004080010204081020010204081020000012
:1000B0000007000201000003040600000000000029
:1000C0000000D80411241FBECFEFD4E0DEBFCDBFA7
:1000D00011E0A0E0B1E0EAE4FAE102C005900D927F
:1000E000A432B107D9F711E0A4E2B1E001C01D923A
:1000F000AB3EB107E1F710E0C4ECD0E004C02297BA
:10010000FE010E94E80CC23CD107C9F70E945401CD
:100110000C94230D0C940000CF93DF9382E026C053
:10012000552747FD5095FA01EC5DFE4F2081FA01FD
:10013000E95DFE4F90812917B1F0692F70E030E042
:10014000261B370BDA01A85FBE4F121613062CF4DC
:1001500012968C9112979F5F03C012968C919150CA
:1001600090830E946E0280913D01815080933D01F9
:1001700040913D0147FFD4CF0E9450070E944A079B
:10018000FC0190933B0180933A0180818F3209F00A
:1001900064C086818C3509F060C0BF016F5F7F4FFE
:1001A0008CE391E041E050E00E94B9078CE391E0DC
:1001B0000E949B0780932B0160913A0170913B0153
:1001C0006D5F7F4F8CE291E043E050E00E94B90701
:1001D0008CE291E00E949B0780932A0120912B01E1
:1001E00030E0223031055CF4285F3E4F60E0813022
:1001F00009F461E0D9018C910E94E60204C02E5DF1
:100200003E4FF901808300D000D000D0EDB7FEB79B
:100210003196CFE2D1E0ADB7BEB71296DC93CE9364
:10022000119780E091E09383828380913A019091CD
:100230003B010196958384830E94D007EDB7FEB7FA
:1002400036960FB6F894FEBF0FBEEDBF8BEC91E073
:10025000BE010E9454050E944D0762E370E080E0F9
:1002600090E00E94DC01DF91CF9108958BEC91E04A
:1002700040E855E260E070E00E94190410923D01F0
:100280000EC0FF27E7FDF095E85FFE4F808161E03B
:100290000E94C70280913D018F5F80933D01E091F4
:1002A0003D01E43074F308950E9413020E94360168
:1002B0000E948C00FDCF1F920F920FB60F92112457
:1002C0002F933F938F939F93AF93BF93809142015E
:1002D00090914301A0914401B091450130914601B4
:1002E0000196A11DB11D232F2D5F2D3720F02D5715
:1002F0000196A11DB11D2093460180934201909368
:100300004301A0934401B093450180913E01909137
:100310003F01A0914001B09141010196A11DB11D85
:1003200080933E0190933F01A0934001B09341011F
:10033000BF91AF919F918F913F912F910F900FBEE1
:100340000F901F9018958FB7F8942091420130912B
:10035000430140914401509145018FBFB901CA0149
:1003600008956FB7F89486B590E0A0E0B0E0A89B40
:1003700008C00097A105B10521F480E091E0A0E05C
:10038000B0E020913E0130913F01409140015091F9
:1003900041016FBF542F432F322F2227280F391FBF
:1003A0004A1F5B1F82E0220F331F441F551F8A958F
:1003B000D1F7B901CA010895EF92FF920F931F93ED
:1003C0007B018C018FB7F894209142013091430159
:1003D00040914401509145018FBF6FB7F8948091CF
:1003E000420190914301A0914401B09145016FBF3A
:1003F000821B930BA40BB50BE816F9060A071B0723
:1004000060F71F910F91FF90EF900895019751F0C1
:10041000880F991F880F991F02972FB7F89401979B
:10042000F1F72FBF0895789484B5826084BD84B5B8
:10043000816084BD85B5826085BD85B5816085BDDF
:10044000EEE6F0E0808181608083E1E8F0E0808189
:1004500082608083808181608083E0E8F0E0808139
:1004600081608083E1EBF0E0808184608083E0EB59
:10047000F0E0808181608083EAE7F0E08081846041
:10048000808380818260808380818160808380819D
:10049000806880831092C100089580930D010895B3
:1004A000877090910D019295990F990F907C982BE0
:1004B00090937C0080917A00806480937A00809190
:1004C0007A0086FDFCCF2091780030917900932F3F
:1004D00080E030E0282B392BC90108951F93CF937A
:1004E000DF93182FEB0161E00E94C702E12FF0E0DB
:1004F000E255FF4F8491833051F4809180008068F1
:1005000080938000D0938900C09388003CC08430E1
:1005100051F480918000806280938000D0938B00A2
:10052000C0938A0030C0813039F4209729F184B516
:10053000806884BDC7BD27C0823039F42097E1F0C0
:1005400084B5806284BDC8BD1EC0863041F48091F0
:10055000B00080688093B000C093B30014C08730AF
:1005600041F48091B00080628093B000C093B400E9
:100570000AC0C038D1051CF4812F60E002C0812F71
:1005800061E00E94E602DF91CF911F910895282F2C
:1005900030E0C90186569F4FFC019491F901EA575A
:1005A000FF4FE491EE2389F0F0E0EE0FFF1FE859D2
:1005B000FF4FA591B491662329F48C9190958923DE
:1005C0008C9308958C91892B8C930895482F50E03B
:1005D000CA0182559F4FFC0194919A0126563F4FC4
:1005E000F9012491FA01EA57FF4FE491EE23C9F192
:1005F000992331F1933021F4909180009F7705C0C9
:10060000943031F4909180009F7D9093800018C0C9
:10061000913019F494B59F7704C0923021F494B5C9
:100620009F7D94BD0DC0963021F49091B0009F77CE
:1006300005C0973029F49091B0009F7D9093B00051
:10064000F0E0EE0FFF1FEE58FF4FA591B491662327
:1006500029F48C91209582238C9308958C91822B80
:100660008C930895282F30E0C90182559F4FFC01DB
:100670009491A90146565F4FFA014491F901EA5756
:10068000FF4FE491EE2319F420E030E036C09923C7
:1006900031F1933021F4909180009F7705C0943020
:1006A00031F4909180009F7D9093800018C091302C
:1006B00019F494B59F7704C0923021F494B59F7DCE
:1006C00094BD0DC0963021F49091B0009F7705C085
:1006D000973029F49091B0009F7D9093B000F0E0A6
:1006E000EE0FFF1FE458FF4FA591B4918C9120E0CD
:1006F00030E0842311F021E030E0C90108951F9219
:100700000F920FB60F9211242F933F934F935F9345
:100710006F937F938F939F93AF93BF93EF93FF93C9
:100720004091C6002091C7013091C801C9010196CE
:1007300060E870E00E94820CBC018091C901909138
:10074000CA016817790741F0295B3E4FF9014083E0
:100750007093C8016093C701FF91EF91BF91AF9172
:100760009F918F917F916F915F914F913F912F91C9
:100770000F900FBE0F901F9018958F92AF92CF924F
:10078000DF92EF92FF920F931F93DF93CF93CDB73A
:10079000DEB7FC0182E191E0918380837383628301
:1007A000558344833783268311870087F386E28647
:1007B000D586C486A68687868D85808B8E85818B1F
:1007C000CF91DF911F910F91FF90EF90DF90CF902D
:1007D000AF908F9008958F92AF92CF92DF92EF9269
:1007E000FF920F931F93DF93CF93CDB7DEB7FC013A
:1007F00082E191E091838083738362835583448394
:100800003783268311870087F386E286D586C486E0
:10081000A68687868D85808B8E85818BCF91DF9193
:100820001F910F91FF90EF90DF90CF90AF908F903E
:100830000895CF92DF92EF92FF920F931F93CF9381
:10084000DF93EC017A018B01CC80DD80CB01BA0112
:1008500022E030E040E050E00E94B70CCA01B9014C
:10086000605C7D4B804F9F4FA80197010E94B70CA1
:10087000C901DA019C01AD01215030404040504097
:10088000232F342F452F552747FD5A95F6012083F6
:10089000EE81FF8181508083EA85FB85808121E0A4
:1008A00030E0A9010E8402C0440F551F0A94E2F7FC
:1008B000842B8083EA85FB858081A9010F8402C097
:1008C000440F551F0A94E2F7842B8083EA85FB8549
:1008D0008081088802C0220F331F0A94E2F7822B1E
:1008E0008083DF91CF911F910F91FF90EF90DF9068
:1008F000CF900895FC0122813381F901E058FF4F28
:100900008081918180589F4F2E573F4FF901208160
:100910003181821B930B60E870E00E94820C089585
:10092000DC0112962D913C911397F901EE57FF4F80
:1009300080819181D901A058BF4F4D915C91119751
:100940004817590719F42FEF3FEF0CC0280F391F34
:10095000D9012C91019660E870E00E94820C91838D
:10096000808330E0C9010895DC0112968D919C913D
:100970001397FC01E058FF4F8E579F4FDC018D917C
:100980009C911197918380830895FC01A085B18586
:1009900021898C9190E0022E02C0959587950A944A
:1009A000E2F780FFF6CF0484F585E02D608308959B
:1009B00082E191E09093CC018093CB0187E491E0B8
:1009C0009093CE018093CD0185EC90E09093D0017F
:1009D0008093CF0184EC90E09093D2018093D10179
:1009E00080EC90E09093D4018093D30181EC90E06F
:1009F0009093D6018093D50186EC90E09093D80136
:100A00008093D70184E08093D90183E08093DA0159
:100A100087E08093DB0185E08093DC0108950F93EC
:100A20001F93CF93DF93EC018B0109C00F5F1F4F22
:100A3000E881F9810190F081E02DCE010995F8015E
:100A40006081662399F7DF91CF911F910F910895EF
:100A5000EF92FF920F931F93CF93DF93EC018B01E3
:100A60007A010DC0F80161918F01E881F98101904F
:100A7000F081E02DCE0109950894E108F108E11418
:100A8000F10481F7DF91CF911F910F91FF90EF90CB
:100A90000895DC01ED91FC910190F081E02D099524
:100AA00008950E9449050895DC01ED91FC910280B2
:100AB000F381E02D09950895CF93DF93EC016DE06C
:100AC0000E944905CE016AE00E944905DF91CF915D
:100AD0000895CF93DF93EC010E944905CE010E9457
:100AE0005C05DF91CF910895CF93DF93EC010E94D5
:100AF0005405CE010E945C05DF91CF910895CF93FC
:100B0000DF93EC010E944905CE010E945C05DF9154
:100B1000CF9108952F923F924F925F926F927F9262
:100B20008F929F92AF92BF92CF92DF92EF92FF92FD
:100B30000F931F93DF93CF93CDB7DEB7A2970FB676
:100B4000F894DEBF0FBECDBF2C015A016B014115D9
:100B500051056105710521F460E30E9449054CC00F
:100B6000EE24FF248701622E7724882499241E0115
:100B70000894211C311CC1018E0D9F1D9AA389A3CD
:100B8000C601B501A40193010E94950CE9A1FAA147
:100B900060830894E11CF11C011D111DC601B50103
:100BA000A40193010E94950CA22EB32EC42ED52E23
:100BB000A114B104C104D104F1F6D801C701019711
:100BC000A109B109280E391E12C00894E108F108E4
:100BD00001091109F10160816A3010F4605D01C002
:100BE000695CC2010E944905089421083108E1149A
:100BF000F1040105110549F7A2960FB6F894DEBF7E
:100C00000FBECDBFCF91DF911F910F91FF90EF905D
:100C1000DF90CF90BF90AF909F908F907F906F901C
:100C20005F904F903F902F9008952AE00E948A0590
:100C30000895CF93DF93EC010E941506CE010E9428
:100C40005C05DF91CF910895AB0160E070E00E94F8
:100C500015060895CF93DF93EC01AB0160E070E0DF
:100C60000E941506CE010E945C05DF91CF91089588
:100C7000EF92FF920F931F93CF93DF93EC017A01D2
:100C80008B0177FF0BC06DE20E944905109500951E
:100C9000F094E094E11CF11C011D111DCE01B8017E
:100CA000A7012AE00E948A05DF91CF911F910F9141
:100CB000FF90EF900895CF93DF93EC010E943806E8
:100CC000CE010E945C05DF91CF9108959B01A9019F
:100CD000662757FD6095762F0E9438060895CF93BA
:100CE000DF93EC01CB01AC01662757FD6095762FB1
:100CF000CE010E943806CE010E945C05DF91CF91A3
:100D000008952115310521F4642F0E9449050895A5
:100D10002A30310519F40E94380608950E948A0588
:100D20000895CF93DF93EC010E948106CE010E94CB
:100D30005C05DF91CF9108958F929F92AF92BF9201
:100D4000CF92DF92EF92FF920F931F93CF93DF9397
:100D5000EC016A017B01122FCB01BA0120E030E0E7
:100D600040E050E00E94D00A882344F4CE016DE2B6
:100D70000E944905F7FAF094F7F8F09400E050E08B
:100D800040E030E02FE311C0DA01F9016B2F742F3E
:100D90008F2F922F20E030E040E251E40E94D40AED
:100DA000562F472F382F292F0F5F011768F3C701E0
:100DB000B601DA01F9012B2F342F4F2F5E2F0E943D
:100DC0006C0A7B01082FA92E7F2D0E94410BB62EA5
:100DD000D72E882EC92ECE014B2D5D2D682D7C2D52
:100DE0000E941506112329F0CE0168E171E00E94EE
:100DF00054056B2D7D2D882D9C2D0E946D0B9B0124
:100E0000AC016E2D7F2D802F9A2D0E946B0A23C07E
:100E100020E030E040E251E40E941F0CF62EC72E85
:100E2000082FE92E0E943C0B4B01AA2497FCA094AA
:100E3000BA2CCE01B501A4010E943806C501B40147
:100E40000E946F0B9B01AC016F2D7C2D802F9E2D7E
:100E50000E946B0A11501123D9F6DF91CF911F9197
:100E60000F91FF90EF90DF90CF90BF90AF909F9049
:100E70008F90089522E00E949C060895CF93DF93FF
:100E8000EC010E943A07CE010E945C05DF91CF91F0
:100E90000895FFCF8DED91E008951092DD01089542
:100EA000CF93DF930E94A3016093E5017093E60165
:100EB0008093E7019093E8018BEC91E00E947A0423
:100EC0008823B1F10E94A3012091E5013091E60150
:100ED0004091E7015091E801621B730B840B950B65
:100EE000683E23E0720720E0820720E09207A8F422
:100EF000C091E901D091EA01C730D10574F48BECBF
:100F000091E00E949004FE01E352FE4F80832196FF
:100F1000D093EA01C093E901D5CFE091E901F091C6
:100F2000EA01E352FE4F10821092EA011092E901A9
:100F3000DF91CF910895FC0188279927E8942191AA
:100F40002032E9F3293010F02E30C8F32B3241F073
:100F50002D3239F4689404C00E94C807820F911D95
:100F6000219120532A30C0F31EF4909581959F4F14
:100F70000895FB01DC014150504048F001900D9272
:100F80000020C9F701C01D9241505040E0F708957C
:100F90007AE0979F902D879F802D910D11240895C1
:100FA000AEE0B0E0E6EDF7E00C94FA0C0D891E8996
:100FB00086E08C831A8309838FEF9FE79E838D835E
:100FC0009E01275E3F4FCE0101966F89788DA90162
:100FD0000E94F307EF81F885E00FF11F10822E9633
:100FE000E4E00C94160DACE0B0E0E9EFF7E00C940F
:100FF000ED0C6C012B018A01FC01178216828381A2
:1010000081FD03C02FEF3FEFC1C14E010894811C49
:10101000911C6FE3362EF6019381F20193FD8591C9
:1010200093FF81912F01882309F4ADC1853239F4F2
:1010300093FD859193FF81912F01853229F490E0F2
:10104000B6010E94E109E7CFEE24FF2420E0203220
:10105000B0F48B3269F08C3228F4803251F0833254
:1010600071F40BC08D3239F0803349F421602CC00B
:101070002260246029C0286027C0206125C027FD88
:101080002CC0382F30533A3098F426FF08C08E2DEC
:10109000880FE82EEE0CEE0CE80EE30E15C08F2D37
:1010A000880FF82EFF0CFF0CF80EF30E20620CC018
:1010B0008E3221F426FD67C1206406C08C3611F4FF
:1010C000206802C0883649F4F20193FD859193FFB0
:1010D00081912F01882309F0BACF982F955493302E
:1010E00018F09052933020F40C5F1F4F39820DC0DE
:1010F000833631F0833771F0833509F058C01EC054
:10110000F801808189830E5F1F4F540151E0652EE5
:10111000712C12C0F801A080B18026FD03C06FEFD2
:101120007FEF02C06E2D70E00E5F1F4FC5012C8750
:101130000E94D6093C012C852F7713C0F801A080AE
:10114000B18026FD03C06FEF7FEF02C06E2D70E00F
:101150000E5F1F4FC5012C870E94CB093C012C85D7
:10116000206823FF09C01FC080E290E0B6012C87F1
:101170000E94E109FA942C858F2D90E0681679067B
:1011800098F311C0F50127FD859127FF81915F013B
:1011900090E0B6012C870E94E1092C85F110FA94A9
:1011A0000894610871086114710461F7E9C084361C
:1011B00011F0893649F527FF08C0F8016081718177
:1011C000828193810C5F1F4F09C0F801608171819A
:1011D000882777FD8095982F0E5F1F4F4FE6B42E1E
:1011E000B22297FF09C090958095709561957F4FC9
:1011F0008F4F9F4FF0E8BF2AA4012AE030E00E9401
:101200000D0A782E781843C0853731F43FEEB32E9F
:10121000B2222AE030E023C099EFB92EB2228F36F5
:1012200061F0803720F4883509F0ADC012C08037F6
:1012300039F0883709F0A7C005C028E030E00FC0BA
:1012400020E1B22AB4FE02C084E0B82A20E130E0F6
:1012500006C0B4FE02C0E6E0BE2A20E132E0B7FEDE
:1012600008C0F80160817181828193810C5F1F4FFA
:1012700007C0F8016081718180E090E00E5F1F4F30
:10128000A4010E940D0A782E7818FFE7BF22B6FE4F
:101290000BC02EEFB2227E1438F4B4FE07C0B2FCAD
:1012A00005C08FEEB82202C0A72C01C0AE2C8B2D3A
:1012B000B4FE0DC0FE01E70DF11D9081903319F4CD
:1012C000E9EEBE2207C0A394B2FE04C002C0867835
:1012D00009F0A3946B2CB3FC14C0B0FE0FC0AF1484
:1012E00010F0E72C0BC0E72CEF0CEA18AF2C06C06F
:1012F00080E290E0B6010E94E109A394AF14C0F32C
:1013000004C0AF1410F4FA1801C0FF2464FE0FC02B
:1013100080E390E0B6010E94E10962FE1DC061FC1D
:1013200003C088E790E00EC088E590E00BC0862DF2
:10133000867891F061FE02C08BE201C080E2B7FCCA
:101340008DE290E0B6010E94E10906C080E390E0E2
:10135000B6010E94E109EA947E14C0F37A94F40184
:10136000E70DF11D808190E0B6010E94E109772030
:10137000A9F706C080E290E0B6010E94E109FA9464
:10138000FF20C1F748CEF60126813781C9012C968E
:10139000E1E10C94090DFC010590615070400110D1
:1013A000D8F7809590958E0F9F1F0895FC0161508E
:1013B000704001900110D8F7809590958E0F9F1F77
:1013C00008950F931F93CF93DF938C01EB018B81D3
:1013D00081FF1BC082FF0DC02E813F818C819D81CA
:1013E0002817390764F4E881F9810193F983E883C8
:1013F00006C0E885F985802F0995009731F48E8124
:101400009F8101969F838E8302C00FEF1FEFC8015B
:10141000DF91CF911F910F910895FA01AA272830EB
:1014200051F1203181F1E8946F936E7F6E5F7F4FB1
:101430008F4F9F4FAF4FB1E03ED0B4E03CD0670F2D
:10144000781F891F9A1FA11D680F791F8A1F911D80
:10145000A11D6A0F711D811D911DA11D20D009F4D0
:1014600068943F912AE0269F11243019305D319312
:10147000DEF6CF010895462F4770405D4193B3E0FB
:101480000FD0C9F7F6CF462F4F70405D4A3318F0A2
:10149000495D31FD4052419302D0A9F7EACFB4E053
:1014A000A6959795879577956795BA95C9F700970B
:1014B0006105710508959B01AC010A2E06945795AC
:1014C000479537952795BA95C9F7620F731F841F03
:1014D000951FA01D08955058BB27AA270ED075C18F
:1014E00066D130F06BD120F031F49F3F11F41EF43F
:1014F0005BC10EF4E095E7FB51C1E92F77D180F392
:10150000BA17620773078407950718F071F49EF500
:101510008FC10EF4E0950B2EBA2FA02D0B01B9014F
:1015200090010C01CA01A0011124FF27591B99F059
:10153000593F50F4503E68F11A16F040A22F232F65
:10154000342F4427585FF3CF469537952795A795B5
:10155000F0405395C9F77EF41F16BA0B620B730B5C
:10156000840BBAF09150A1F0FF0FBB1F661F771FCD
:10157000881FC2F70EC0BA0F621F731F841F48F482
:10158000879577956795B795F7959E3F08F0B3CF08
:101590009395880F08F09927EE0F979587950895F2
:1015A000D9D008F481E008950CD00FC107D140F0E4
:1015B000FED030F021F45F3F19F0F0C0511139C175
:1015C000F3C014D198F39923C9F35523B1F3951BB4
:1015D000550BBB27AA2762177307840738F09F5F54
:1015E0005F4F220F331F441FAA1FA9F333D00E2EC3
:1015F0003AF0E0E830D091505040E695001CCAF730
:1016000029D0FE2F27D0660F771F881FBB1F2617F4
:1016100037074807AB07B0E809F0BB0B802DBF01C7
:10162000FF2793585F4F2AF09E3F510568F0B6C0E0
:1016300000C15F3FECF3983EDCF3869577956795A4
:10164000B795F7959F5FC9F7880F911D9695879578
:1016500097F90895E1E0660F771F881FBB1F621797
:1016600073078407BA0720F0621B730B840BBA0B55
:10167000EE1F88F7E095089504D06894B111D9C0A1
:101680000895BCD088F09F5790F0B92F9927B75193
:10169000A0F0D1F0660F771F881F991F1AF0BA9536
:1016A000C9F712C0B13081F0C3D0B1E00895C0C015
:1016B000672F782F8827B85F39F0B93FCCF386952C
:1016C00077956795B395D9F73EF490958095709589
:1016D00061957F4F8F4F9F4F0895E89409C097FB06
:1016E0003EF490958095709561957F4F8F4F9F4FF9
:1016F0009923A9F0F92F96E9BB279395F69587953D
:1017000077956795B795F111F8CFFAF4BB0F11F4FF
:1017100060FF1BC06F5F7F4F8F4F9F4F16C08823A6
:1017200011F096E911C0772321F09EE8872F762FDC
:1017300005C0662371F096E8862F70E060E02AF01D
:101740009A95660F771F881FDAF7880F9695879509
:1017500097F90895990F0008550FAA0BE0E8FEEFDE
:1017600016161706E807F907C0F012161306E40765
:10177000F50798F0621B730B840B950B39F40A265E
:1017800061F0232B242B252B21F408950A2609F43C
:10179000A140A6958FEF811D811D089597F99F6740
:1017A00080E870E060E008959FEF80EC08950024E9
:1017B0000A941616170618060906089500240A94B6
:1017C00012161306140605060895092E0394000C3C
:1017D00011F4882352F0BB0F40F4BF2B11F460FFCB
:1017E00004C06F5F7F4F8F4F9F4F089557FD9058F4
:1017F000440F551F59F05F3F71F04795880F97FBD5
:10180000991F61F09F3F79F087950895121613068E
:101810001406551FF2CF4695F1DF08C016161706BD
:101820001806991FF1CF86957105610508940895F2
:10183000E894BB2766277727CB0197F908950BD04B
:10184000C4CFB5DF28F0BADF18F0952309F0A6CF92
:10185000ABCF1124EECFCADFA0F3959FD1F3950F44
:1018600050E0551F629FF001729FBB27F00DB11D24
:10187000639FAA27F00DB11DAA1F649F6627B00DB4
:10188000A11D661F829F2227B00DA11D621F739F9D
:10189000B00DA11D621F839FA00D611D221F749FAB
:1018A0003327A00D611D231F849F600D211D822FF2
:1018B000762F6A2F11249F5750408AF0E1F0882339
:1018C0004AF0EE0FFF1FBB1F661F771F881F915046
:1018D0005040A9F79E3F510570F060CFAACF5F3FFF
:1018E000ECF3983EDCF3869577956795B795F79579
:1018F000E7959F5FC1F7FE2B880F911D9695879501
:1019000097F9089597FB092E07260AD077FD04D092
:1019100049D006D000201AF4709561957F4F089544
:10192000F6F7909581959F4F0895A1E21A2EAA1B74
:10193000BB1BFD010DC0AA1FBB1FEE1FFF1FA2177F
:10194000B307E407F50720F0A21BB30BE40BF50B7C
:10195000661F771F881F991F1A9469F76095709505
:10196000809590959B01AC01BD01CF01089597FB37
:10197000092E05260ED057FD04D0D7DF0AD0001C53
:1019800038F450954095309521953F4F4F4F5F4F1C
:101990000895F6F790958095709561957F4F8F4FDC
:1019A0009F4F0895AA1BBB1B51E107C0AA1FBB1F75
:1019B000A617B70710F0A61BB70B881F991F5A95DB
:1019C000A9F780959095BC01CD010895EE0FFF1FFA
:1019D0000590F491E02D09942F923F924F925F92DF
:1019E0006F927F928F929F92AF92BF92CF92DF922F
:1019F000EF92FF920F931F93CF93DF93CDB7DEB794
:101A0000CA1BDB0B0FB6F894DEBF0FBECDBF099427
:101A10002A88398848885F846E847D848C849B847E
:101A2000AA84B984C884DF80EE80FD800C811B818C
:101A3000AA81B981CE0FD11D0FB6F894DEBF0FBEBB
:0A1A4000CDBFED010895F894FFCF2B
:101A4A002F41434B3A2573000708090A0B0100008E
:101A5A000000C5040F0528052E00000000004907F4
:041A6A000F05280537
:00000001FF
