:100000000C9463000C94090B0C94360B0C948B002D
:100010000C948B000C948B000C948B000C948B0034
:100020000C948B000C948B000C948B000C948B0024
:100030000C948B000C948B000C948B000C948B0014
:100040000C94630B0C948B000C9473080C948B0031
:100050000C948B000C948B000C948B000C948B00F4
:100060000C948B000C948B000000000024002700EF
:100070002A0000000000250028002B0000000000DE
:1000800023002600290004040404040404040202DA
:100090000202020203030303030301020408102007
:1000A0004080010204081020010204081020000012
:1000B0000007000201000003040600000000000029
:1000C00000000A06700911241FBECFEFD4E0DEBF86
:1000D000CDBF11E0A0E0B1E0E2E9FAE102C0059095
:1000E0000D92AE3AB107D9F713E0AEEAB1E001C024
:1000F0001D92A033B107E1F710E0C6ECD0E004C0D8
:100100002297FE010E940C0DC23CD107C9F70E9444
:100110006C080C94470D0C940000AEE0B0E0E3E9ED
:10012000F0E00C941E0D0D891E898EE08C831A83DD
:1001300009838FEF9FE79E838D839E01275E3F4F4C
:10014000CE0101966F89788DA9010E94B000EF81E0
:10015000F885E00FF11F10822E96E4E00C943A0D22
:10016000ACE0B0E0E6EBF0E00C94110D6C012B017B
:100170008A01FC0117821682838181FD03C02FEF63
:100180003FEFC1C14E010894811C911C6FE3362ED4
:10019000F6019381F20193FD859193FF81912F01E7
:1001A000882309F4ADC1853239F493FD859193FF1D
:1001B00081912F01853229F490E0B6010E949E02C0
:1001C000E7CFEE24FF2420E02032B0F48B3269F038
:1001D0008C3228F4803251F0833271F40BC08D32AE
:1001E00039F0803349F421602CC02260246029C09A
:1001F000286027C0206125C027FD2CC0382F305330
:100200003A3098F426FF08C08E2D880FE82EEE0CA9
:10021000EE0CE80EE30E15C08F2D880FF82EFF0CA4
:10022000FF0CF80EF30E20620CC08E3221F426FD76
:1002300067C1206406C08C3611F4206802C088367D
:1002400049F4F20193FD859193FF81912F01882359
:1002500009F0BACF982F9554933018F090529330FC
:1002600020F40C5F1F4F39820DC0833631F0833785
:1002700071F0833509F058C01EC0F8018081898370
:100280000E5F1F4F540151E0652E712C12C0F80112
:10029000A080B18026FD03C06FEF7FEF02C06E2DFE
:1002A00070E00E5F1F4FC5012C870E9493023C0136
:1002B0002C852F7713C0F801A080B18026FD03C0E4
:1002C0006FEF7FEF02C06E2D70E00E5F1F4FC50114
:1002D0002C870E9488023C012C85206823FF09C0DE
:1002E0001FC080E290E0B6012C870E949E02FA9423
:1002F0002C858F2D90E06816790698F311C0F501D2
:1003000027FD859127FF81915F0190E0B6012C8741
:100310000E949E022C85F110FA94089461087108DD
:100320006114710461F7E9C0843611F0893649F52A
:1003300027FF08C0F80160817181828193810C5F81
:100340001F4F09C0F80160817181882777FD809572
:10035000982F0E5F1F4F4FE6B42EB22297FF09C0B1
:1003600090958095709561957F4F8F4F9F4FF0E8E6
:10037000BF2AA4012AE030E00E94CA02782E781831
:1003800043C0853731F43FEEB32EB2222AE030E08D
:1003900023C099EFB92EB2228F3661F0803720F456
:1003A000883509F0ADC012C0803739F0883709F0C0
:1003B000A7C005C028E030E00FC020E1B22AB4FE9B
:1003C00002C084E0B82A20E130E006C0B4FE02C0DA
:1003D000E6E0BE2A20E132E0B7FE08C0F801608105
:1003E0007181828193810C5F1F4F07C0F80160818A
:1003F000718180E090E00E5F1F4FA4010E94CA024D
:10040000782E7818FFE7BF22B6FE0BC02EEFB2227F
:100410007E1438F4B4FE07C0B2FC05C08FEEB822DB
:1004200002C0A72C01C0AE2C8B2DB4FE0DC0FE0166
:10043000E70DF11D9081903319F4E9EEBE2207C05B
:10044000A394B2FE04C002C0867809F0A3946B2C7A
:10045000B3FC14C0B0FE0FC0AF1410F0E72C0BC0FB
:10046000E72CEF0CEA18AF2C06C080E290E0B60152
:100470000E949E02A394AF14C0F304C0AF1410F402
:10048000FA1801C0FF2464FE0FC080E390E0B601BB
:100490000E949E0262FE1DC061FC03C088E790E0DE
:1004A0000EC088E590E00BC0862D867891F061FE45
:1004B00002C08BE201C080E2B7FC8DE290E0B601A1
:1004C0000E949E0206C080E390E0B6010E949E0258
:1004D000EA947E14C0F37A94F401E70DF11D808153
:1004E00090E0B6010E949E027720A9F706C080E244
:1004F00090E0B6010E949E02FA94FF20C1F748CE18
:10050000F60126813781C9012C96E1E10C942D0D6D
:10051000FC010590615070400110D8F780959095CE
:100520008E0F9F1F0895FC016150704001900110D3
:10053000D8F7809590958E0F9F1F08950F931F9366
:10054000CF93DF938C01EB018B8181FF1BC082FF76
:100550000DC02E813F818C819D812817390764F45D
:10056000E881F9810193F983E88306C0E885F9857C
:10057000802F0995009731F48E819F8101969F838A
:100580008E8302C00FEF1FEFC801DF91CF911F9143
:100590000F910895FA01AA27283051F1203181F1F5
:1005A000E8946F936E7F6E5F7F4F8F4F9F4FAF4F7B
:1005B000B1E03ED0B4E03CD0670F781F891F9A1F8E
:1005C000A11D680F791F8A1F911DA11D6A0F711D42
:1005D000811D911DA11D20D009F468943F912AE04E
:1005E000269F11243019305D3193DEF6CF01089536
:1005F000462F4770405D4193B3E00FD0C9F7F6CF67
:10060000462F4F70405D4A3318F0495D31FD40522E
:10061000419302D0A9F7EACFB4E0A69597958795C4
:1006200077956795BA95C9F70097610571050895A3
:100630009B01AC010A2E069457954795379527954F
:10064000BA95C9F7620F731F841F951FA01D0895E7
:100650000895FC0182810895DF93CF93CDB7DEB773
:1006600028970FB6F894DEBF0FBECDBFDC0182EA3B
:1006700091E011969C938E931B96FE01319698E023
:1006800001900D929150E1F728960FB6F894DEBFD5
:100690000FBECDBFCF91DF9108950895DC01ED919C
:1006A000FC91119784810895FC01DB018081918187
:1006B00011969C938E93828112968C9312978781C8
:1006C00017968C931797858115968C93159780852F
:1006D00018968C931897868116968C93169783811B
:1006E00013968C931397848114968C931497089582
:1006F0008BE008950895FC01178210861282138200
:1007000014821582168280E090E0A081B181A80F4A
:10071000B91F1C92019684369105B9F70895FC0122
:10072000128611860E947B030895FC0112861186B1
:10073000148615861782108615820E969183808303
:10074000089508950F931F93FC01408351836283A2
:10075000738304831583268337831F910F91089534
:10076000CF93DF93FC0180E1828381E083838CE07F
:1007700090E0908787835287418723878CE991E0B7
:1007800091838083EF012C96862F972FDC0188E0E0
:100790000D9009928150E1F78EEF9FEF958B848B3E
:1007A000168A178ADF91CF910895FC01A581B68141
:1007B000878515968C93A581B681868516968C9330
:1007C000A581B681858517968C93A581B681848590
:1007D00018968C93A581B681838919968C93A581EF
:1007E000B68182891A968C93A581B68181891B96E0
:1007F0008C93A581B68180891C968C93A581B68146
:1008000085891D968C93A581B68184891E968C93CB
:10081000A581B68186891F968C93A581B68187892B
:1008200050968C9350970895CF93DF93EC01ED8110
:10083000FE818EE78083ED81FE818B8590E00296BC
:100840002F81820F911D9183ED81FE818B858E5FBB
:100850009F81890F8283E881F9810190F081E02DE9
:10086000CE010995ED81FE818A818383ED81FE8130
:100870008B8184839F81492F50E04F5F5F4F20E041
:1008800030E080E06D817E81FB01E20FF31FE381A8
:100890008E0F2F5F3F4F42175307A4F74B8544231A
:1008A00079F020E030E050E008C0E985FA85E20FF9
:1008B000F31FE0818E0F2F5F3F4F24173507ACF3F6
:1008C000690F711D8095FB018583DF91CF9108959C
:1008D000CF93DF93EB014423B9F08881982F9D5784
:1008E000923020F0813111F0833171F481E193E095
:1008F0004DE750E060E070E020E030E00E94C90A7F
:10090000488180E2482701C0488150E060E070E003
:1009100081E193E020E030E00E94C90ADF91CF91AD
:100920000895EF92FF920F931F93CF93DF938C0163
:10093000EB018E589F4F9E838D83CB010E94140440
:10094000EE24FF2411C06D817E81E114F10419F4BD
:10095000C80140E004C06E0D7F1DC80141E00E9447
:1009600068040894E11CF11C8F8190E004968E15B8
:100970009F054CF78B85882399F0EE24FF240BC04C
:1009800069857A856E0D7F1DC80141E00E9468046B
:100990000894E11CF11C8B8590E0E816F90684F3BD
:1009A0008F8190E005966D817E81680F791FC80167
:1009B00041E00E94680481E193E00E944C09DF91CC
:1009C000CF911F910F91FF90EF900895DF92EF92DA
:1009D000FF920F931F93CF93DF93EC018F818823B6
:1009E00021F48885882309F477C0CE010E948F0303
:1009F00073C081E193E00E9428098B879A8599232F
:100A000029F08E3719F4CE010E948F038A8588233E
:100A100091F08B858D3779F481E193E00E94120982
:100A2000882339F081E193E00E94280981278B8790
:100A300002C0098759C08985882321F08B858127C9
:100A40008B8719868A85833020F08C859B85890F5A
:100A50008C878A85813061F0813028F0823061F0A6
:100A6000833091F40DC08B858E37F1F50A873CC039
:100A70008B858B83DA8638C08B858C83EA8634C07D
:100A80008B858A83FA8630C0853618F081E08887A6
:100A900032C090E02C8130E02D5F3F4F82179307EA
:100AA00081F48C858F3F29F48B858D8381E08F8342
:100AB00002C081E088878A8584508E831A861C86CE
:100AC0001AC0E881F981E80FF91F34978B8580837C
:100AD0008A858F5F8A8708C0A2E0DA2E01E0F3E002
:100AE000EF2EE4E0FE2E10E281E193E00E94120975
:100AF000882309F07ECFDF91CF911F910F91FF9056
:100B0000EF90DF900895CF92DF92EF92FF920F93D4
:100B10001F93CF93DF93EC018B0177FD14C00E94EC
:100B2000AB0B6B017C0108C0CE010E94E6048F81F3
:100B3000882311F081E008C00E94AB0B6C197D097D
:100B4000601771078CF380E0DF91CF911F910F91B7
:100B5000FF90EF90DF90CF900895CB01AC01662716
:100B600057FD6095762F81E193E00E94B1080895CA
:100B7000DF93CF93CDB7DEB768970FB6F894DEBF9B
:100B80000FBECDBFAC019093460280934502CE01CB
:100B900001966DE372E022E00E94B0038B818093A6
:100BA0006E028C8180936F028D81809370028E81A2
:100BB0009F819093720280937102888599859093AA
:100BC0007402809373028A859B859093760280934A
:100BD00075028C8580937702A8E7B2E0FE013D960E
:100BE00088E001900D928150E1F78D899E89909364
:100BF0008102809380028F8980938202888D809306
:100C0000830268960FB6F894DEBF0FBECDBFCF91BA
:100C1000DF9108950F931F93CF93DF9389EB91E0BA
:100C20000E949503CDE3D2E0CE0140E052EA63E1B9
:100C300070E00FEE1BEE28E030E40E94A20387E490
:100C400092E00E94280380E592E00E942C0383E654
:100C500092E00E947A0340914502509146028CE650
:100C600092E0BE0122E00E94B00384E892E00E947C
:100C70004D03DF91CF911F910F9108958DE061E0B9
:100C80000E945A0C0895BF92CF92DF92EF92FF928A
:100C90000F931F93CF93DF93182FEB01CC0FDD1F22
:100CA00001E0BB24B3946A01EE24D7FCE094FE2C4F
:100CB0000AC0812F602F0E945A0C0B25C701B60174
:100CC0000E94B90B21971C161D069CF3DF91CF9152
:100CD0001F910F91FF90EF90DF90CF90BF900895FC
:100CE00081E08093B60181E193E060E071E00E94D1
:100CF000FE09089589EB91E060E875E20E94AD0578
:100D000081E193E040E855E260E070E00E94B108C4
:100D100081E06EE376E040E050E00E94D90A8DE089
:100D200061E00E943B0C8CE061E00E943B0C8DE096
:100D300061E00E943B0C81E060E00E943B0C82E09D
:100D400060E00E943B0C83E060E00E943B0C84E08A
:100D500060E00E943B0C8DE061E00E945A0C8DE047
:100D600090E061E070E044E650E00E9443060895A0
:100D700089EB91E06CE672E00E94910489EB91E0CE
:100D800064EF71E00E948305882361F189EB91E0B3
:100D90000E94A1030E9429038B3879F589EB91E029
:100DA0000E94A10364E872E00E94540384E892E088
:100DB0000E944E03882359F48DE090E065E070E0D6
:100DC00042E350E00E94430621E030E017C08CE08F
:100DD00090E063E070E044EF51E00E94430620E0C1
:100DE00030E00CC08CE090E062E070E042E350E064
:100DF0000E9443062FEF3FEF01C00895C9010895F7
:100E000064E170E080E090E00E94B90B83B7817FDD
:100E1000846083BF83B7816083BF81E06EE376E047
:100E200040E050E00E94D90A83B7816083BF889573
:100E300083B78E7F83BF83B78E7F83BF1092B60147
:100E400080E00E94F90A81E193E063E171E00E9491
:100E5000FE0908950F931F93DF93CF93CDB7DEB7AD
:100E6000C054D0400FB6F894DEBF0FBECDBF809106
:100E7000B601882361F08DE060E00E945A0C0E9468
:100E8000000762E370E080E090E00E94B90B81E12E
:100E900093E06CE171E00E94E9090091AE011091CC
:100EA000AF0181E00E941D0C800F911F62E070E095
:100EB0000E94A60C7093AF016093AE010091B00147
:100EC0001091B10182E00E941D0C800F911F62E021
:100ED00070E00E94A60C7093B1016093B001009184
:100EE000B2011091B30183E00E941D0C800F911F8D
:100EF00062E070E00E94A60C7093B3016093B201AF
:100F00000091B4011091B50184E00E941D0C800F86
:100F1000911F62E070E00E94A60C6093B401709390
:100F2000B5018091B7019091B801843091050CF41E
:100F3000B8C08DB79EB70C970FB6F8949EBF0FBE82
:100F40008DBFEDB7FEB731968E010F5F1F4FADB766
:100F5000BEB712961C930E93119789E291E093838A
:100F600082838091AE019091AF01958384838091BB
:100F7000B0019091B101978386838091B2019091E5
:100F8000B30191878087628773870E948D008DB738
:100F90009EB70C960FB6F8949EBF0FBE8DBF81E131
:100FA00093E065E371E00E94E909C8010E94B80579
:100FB0000E94B8068C01009729F481E193E060E477
:100FC00071E007C08130910539F481E193E069E473
:100FD00071E00E94FE090BC081E193E062E571E0DF
:100FE0000E94E90981E193E0B8010E94B70A81E11A
:100FF00093E06AE571E00E94E9096091AE017091A9
:10100000AF0181E193E00E94B70A81E193E064E6D9
:1010100071E00E94E9096091B0017091B10181E134
:1010200093E00E94B70A81E193E06FE671E00E94CD
:10103000E9096091B2017091B30181E193E00E94EE
:10104000B70A81E193E06AE771E00E94E9096091E3
:10105000B4017091B50181E193E00E94B70A81E18A
:1010600093E065E871E00E94FE0964E670E080E0CC
:1010700090E00E94B90B1092B8011092B701109243
:10108000AF011092AE011092B1011092B001109216
:10109000B3011092B2011092B5011092B4010E94F6
:1010A00070068091B7019091B80101969093B801B4
:1010B0008093B70164E670E080E090E00E94B90B95
:1010C000C05CDF4F0FB6F894DEBF0FBECDBFCF912F
:1010D000DF911F910F9108950E94E30B0E947A0601
:1010E0000E942A07FDCF1F920F920FB60F92112474
:1010F0002F933F934F935F936F937F938F939F9320
:10110000AF93BF93EF93FF934091C60020910D03DF
:1011100030910E03C901019660E870E00E94A60CB0
:10112000BC0180910F03909110036817790741F07B
:1011300023573D4FF901408370930E0360930D03D5
:10114000FF91EF91BF91AF919F918F917F916F919F
:101150005F914F913F912F910F900FBE0F901F9075
:101160001895CF92DF92EF92FF920F931F93CF9338
:10117000DF93EC017A018B01CC80DD80CB01BA01D9
:1011800022E030E040E050E00E94DB0CCA01B901EF
:10119000605C7D4B804F9F4FA80197010E94DB0C44
:1011A000C901DA019C01AD0121503040404050405E
:1011B000232F342F452F552747FD5A95F6012083BD
:1011C000EE81FF8181508083EA85FB85808121E06B
:1011D00030E0A9010E8402C0440F551F0A94E2F7C3
:1011E000842B8083EA85FB858081A9010F8402C05E
:1011F000440F551F0A94E2F7842B8083EA85FB8510
:101200008081088802C0220F331F0A94E2F7822BE4
:101210008083DF91CF911F910F91FF90EF90DF902E
:10122000CF900895FC0122813381F901E058FF4FEE
:101230008081918180589F4F2E573F4FF901208127
:101240003181821B930B60E870E00E94A60C089528
:10125000DC0112962D913C911397F901EE57FF4F47
:1012600080819181D901A058BF4F4D915C91119718
:101270004817590719F42FEF3FEF0CC0280F391FFB
:10128000D9012C91019660E870E00E94A60C918330
:10129000808330E0C9010895DC0112968D919C9104
:1012A0001397FC01E058FF4F8E579F4FDC018D9143
:1012B0009C911197918380830895FC01A085B1854D
:1012C00021898C9190E0022E02C0959587950A9411
:1012D000E2F780FFF6CF0484F585E02D6083089562
:1012E00088EA91E090931203809311038DE892E0D5
:1012F000909314038093130385EC90E0909316036E
:101300008093150384EC90E0909318038093170367
:1013100080EC90E090931A038093190381EC90E0A5
:1013200090931C0380931B0386EC90E090931E0324
:1013300080931D0384E080931F0383E08093200348
:1013400087E08093210385E08093220308950F9323
:101350001F93CF93DF93EC018B0109C00F5F1F4FE9
:10136000E881F9810190F081E02DCE010995F80125
:101370006081662399F7DF91CF911F910F910895B6
:10138000EF92FF920F931F93CF93DF93EC018B01AA
:101390007A010DC0F80161918F01E881F981019016
:1013A000F081E02DCE0109950894E108F108E114DF
:1013B000F10481F7DF91CF911F910F91FF90EF9092
:1013C0000895DC01ED91FC910190F081E02D0995EB
:1013D0000895DC01ED91FC910280F381E02D0995E7
:1013E0000895CF93DF93EC016DE00E94E109CE01F7
:1013F0006AE00E94E109DF91CF910895CF93DF93D6
:10140000EC010E94E909CE010E94F109DF91CF9120
:1014100008952F923F924F925F926F927F928F9298
:101420009F92AF92BF92CF92DF92EF92FF920F9373
:101430001F93DF93CF93CDB7DEB7A2970FB6F89483
:10144000DEBF0FBECDBF2C015A016B014115510506
:101450006105710521F460E30E94E1094CC0EE24AE
:10146000FF248701622E7724882499241E01089482
:10147000211C311CC1018E0D9F1D9AA389A3C60199
:10148000B501A40193010E94B90CE9A1FAA16083FE
:101490000894E11CF11C011D111DC601B501A40138
:1014A00093010E94B90CA22EB32EC42ED52EA114E6
:1014B000B104C104D104F1F6D801C7010197A10913
:1014C000B109280E391E12C00894E108F10801097B
:1014D0001109F10160816A3010F4605D01C0695C3E
:1014E000C2010E94E109089421083108E114F104C5
:1014F0000105110549F7A2960FB6F894DEBF0FBE9D
:10150000CDBFCF91DF911F910F91FF90EF90DF90B2
:10151000CF90BF90AF909F908F907F906F905F9093
:101520004F903F902F900895EF92FF920F931F934B
:10153000CF93DF93EC017A018B0177FF0BC06DE253
:101540000E94E10910950095F094E094E11CF11CD3
:10155000011D111DCE01B801A7012AE00E94090A50
:10156000DF91CF911F910F91FF90EF900895CF934E
:10157000DF93EC01CB01AC01662757FD6095762F18
:10158000CE010E94940ACE010E94F109DF91CF9111
:1015900008952115310521F4642F0E94E109089571
:1015A0002A30310519F40E94940A08950E94090A0C
:1015B00008958230E8F4E82FF0E0EE0FFF1FED5DB4
:1015C000FC4F71836083813041F0809169008C7F92
:1015D000842B80936900E89A089580916900440FF4
:1015E000551F440F551F837F842B80936900E99A10
:1015F0000895823068F4813011F0E89801C0E998CC
:10160000E82FF0E0EE0FFF1FED5DFC4F118210821E
:1016100008951F920F920FB60F9211242F933F93AC
:101620004F935F936F937F938F939F93AF93BF93EA
:10163000EF93FF938091230390912403009729F067
:10164000E0912303F09124030995FF91EF91BF915D
:10165000AF919F918F917F916F915F914F913F914A
:101660002F910F900FBE0F901F9018951F920F9201
:101670000FB60F9211242F933F934F935F936F9365
:101680007F938F939F93AF93BF93EF93FF9380913B
:10169000250390912603009729F0E0912503F0910E
:1016A00026030995FF91EF91BF91AF919F918F9183
:1016B0007F916F915F914F913F912F910F900FBE4E
:1016C0000F901F9018951F920F920FB60F92112432
:1016D0002F933F938F939F93AF93BF9380912B034F
:1016E00090912C03A0912D03B0912E0330912F03E4
:1016F0000196A11DB11D232F2D5F2D3720F02D57F1
:101700000196A11DB11D20932F0380932B0390936D
:101710002C03A0932D03B0932E0380912703909167
:101720002803A0912903B0912A030196A11DB11DA0
:101730008093270390932803A0932903B0932A034F
:10174000BF91AF919F918F913F912F910F900FBEBD
:101750000F901F9018958FB7F89420912B0330911C
:101760002C0340912D0350912E038FBFB901CA0164
:101770000895EF92FF920F931F937B018C018FB717
:10178000F89420912B0330912C0340912D0350911C
:101790002E038FBF6FB7F89480912B0390912C0389
:1017A000A0912D03B0912E036FBF821B930BA40B4E
:1017B000B50BE816F9060A071B0760F71F910F9192
:1017C000FF90EF900895789484B5826084BD84B5CD
:1017D000816084BD85B5826085BD85B5816085BD2C
:1017E000EEE6F0E0808181608083E1E8F0E08081D6
:1017F00082608083808181608083E0E8F0E0808186
:1018000081608083E1EBF0E0808184608083E0EBA5
:10181000F0E0808181608083EAE7F0E0808184608D
:1018200080838081826080838081816080838081E9
:10183000806880831092C10008958770909197010D
:101840009295990F990F907C982B90937C008091A2
:101850007A00806480937A0080917A0086FDFCCFC4
:101860002091780030917900932F80E030E0282B90
:10187000392BC9010895282F30E0C90186569F4FA2
:10188000FC019491F901EA57FF4FE491EE2389F0AE
:10189000F0E0EE0FFF1FE859FF4FA591B4916623CA
:1018A00029F48C91909589238C9308958C91892BA0
:1018B0008C930895482F50E0CA0182559F4FFC0138
:1018C00094919A0126563F4FF9012491FA01EA5763
:1018D000FF4FE491EE23C9F1992331F1933021F4C4
:1018E000909180009F7705C0943031F490918000F2
:1018F0009F7D9093800018C0913019F494B59F7724
:1019000004C0923021F494B59F7D94BD0DC09630F3
:1019100021F49091B0009F7705C0973029F4909101
:10192000B0009F7D9093B000F0E0EE0FFF1FEE58E7
:10193000FF4FA591B491662329F48C9120958223C1
:101940008C9308958C91822B8C93089597FB092E8C
:1019500007260AD077FD04D049D006D000201AF41B
:10196000709561957F4F0895F6F7909581959F4FFB
:101970000895A1E21A2EAA1BBB1BFD010DC0AA1FD0
:10198000BB1FEE1FFF1FA217B307E407F50720F0E8
:10199000A21BB30BE40BF50B661F771F881F991F63
:1019A0001A9469F760957095809590959B01AC01AC
:1019B000BD01CF01089597FB092E05260ED057FDD6
:1019C00004D0D7DF0AD0001C38F4509540953095EC
:1019D00021953F4F4F4F5F4F0895F6F790958095B3
:1019E000709561957F4F8F4F9F4F0895AA1BBB1B2A
:1019F00051E107C0AA1FBB1FA617B70710F0A61B0F
:101A0000B70B881F991F5A95A9F780959095BC012F
:101A1000CD010895EE0FFF1F0590F491E02D09947C
:101A20002F923F924F925F926F927F928F929F92EE
:101A3000AF92BF92CF92DF92EF92FF920F931F93DC
:101A4000CF93DF93CDB7DEB7CA1BDB0B0FB6F8948D
:101A5000DEBF0FBECDBF09942A88398848885F84CD
:101A60006E847D848C849B84AA84B984C884DF803E
:101A7000EE80FD800C811B81AA81B981CE0FD11D22
:101A80000FB6F894DEBF0FBECDBFED010895F894F8
:021A9000FFCF86
:101A9200707265706172656420666F7220736C6526
:101AA200657000576F6B6520757021005265616427
:101AB200696E67202E2E2E200025693A25693A2567
:101AC200693A25690053656E64696E672E2E2E0091
:101AD20045727265757220300053756363657320B9
:101AE200310045727265757220006C757856616CB2
:101AF200203D200074656D7056616C203D2000739E
:101B0200757056616C31203D200073757056616CA2
:101B120032203D2000476F696E6720746F20736C1E
:101B22006565702E2E2E000100000000D503000016
:0E1B320000007803000000005D09A709C0094B
:00000001FF
