:100000000C9462000C9422040C944F040C948A000B
:100010000C948A000C948A000C948A000C948A0038
:100020000C948A000C948A000C948A000C948A0028
:100030000C948A000C948A000C948A000C948A0018
:100040000C947C040C948A000C94D9010C948A00C2
:100050000C948A000C948A000C948A000C948A00F8
:100060000C948A000C948A000000000024002700F1
:100070002A0000000000250028002B0000000000DE
:1000800023002600290004040404040404040202DA
:100090000202020203030303030301020408102007
:1000A0004080010204081020010204081020000012
:1000B0000007000201000003040600000000000029
:1000C0000000F20211241FBECFEFD4E0DEBFCDBF8F
:1000D00011E0A0E0B1E0E6E5FDE002C005900D9280
:1000E000A833B107D9F711E0A8E3B1E001C01D9230
:1000F000A43EB107E1F710E0C4ECD0E004C02297C1
:10010000FE010E94A606C23CD107C9F70E948F01DA
:100110000C94AA060C940000EF92FF920F931F9389
:10012000CF93DF937C018A016417750714F0EB010C
:100130001BC0EB01BE018E2D0E946E0564E670E0CF
:1001400080E090E00E9426052596C017D1077CF438
:10015000F1CFBE018E2D0E946E0564E670E080E056
:1001600090E00E94260525970C171D0794F3DF9158
:10017000CF911F910F91FF90EF90089540E855E2C5
:1001800060E070E082EC91E00E942F0261E08091DB
:100190002B010E94C70540E050E066E971E081E074
:1001A0000E94EC0361E080912B010E94EC054FEF6F
:1001B00050E060E070E080912D0190912E010E944E
:1001C0008C000895CF93DF9364E170E080E090E0CD
:1001D0000E942605C3E0D0E061E080912B010E94DF
:1001E000EC056AEF70E080E090E00E94260560E098
:1001F00080912B010E94EC056AEF70E080E090E0B6
:100200000E942605219741F760E080912B010E9412
:10021000EC0540E450E06FEF70E080912D0190918B
:100220002E010E948C0083B7817F846083BF83B7D7
:10023000816083BF40E050E066E971E081E00E94A8
:10024000EC0383B7816083BF889583B78E7F83BFBC
:1002500083B78E7F83BF109239011092380180E0FE
:100260000E940F04DF91CF9108950F931F93809107
:10027000380190913901892B11F00E94E200009120
:100280003C0110913D0180912F010E945005209169
:100290003A0130913B01B9016F5F7F4F800F911F91
:1002A0000E94400670933D0160933C01233031056C
:1002B00024F160E071E082EC91E00E94040360911F
:1002C0003C0170913D0182EC91E00E94E10367E006
:1002D00071E082EC91E00E94240364E670E080E02B
:1002E00090E00E94260510923B0110923A0181E0B5
:1002F00090E0909339018093380180913A01909178
:100300003B01019690933B0180933A016DE471E0CB
:1003100080E090E00E9426051F910F9108950E94B1
:10032000EC040E94BE000E943501FDCF61E0809187
:100330002B010E94EC0582EC91E00E94940288233C
:1003400031F062E271E082EC91E00E9424034FEF11
:1003500050E060E470E080912D0190912E010E94A8
:100360008C0008950F931F93CF93DF93482FFB01C9
:100370008B0100581F4FD801CD91DC91CE01019621
:1003800060E870E00E9440069C01EE57FF4F8081BC
:100390009181E258F0402817390731F0CE0FDF1F66
:1003A0004883F80131832083DF91CF911F910F9112
:1003B00008951F920F920FB60F9211242F933F931F
:1003C0004F935F936F937F938F939F93AF93BF935D
:1003D000EF93FF938091C6006EE371E00E94B2013B
:1003E000FF91EF91BF91AF919F918F917F916F910D
:1003F0005F914F913F912F910F900FBE0F901F90E3
:1004000018958F92AF92CF92DF92EF92FF920F9357
:100410001F93CF93DF93CDB7DEB7FC0186E391E066
:1004200091838083738362835583448337832683D8
:1004300011870087F386E286D586C486A6868786DE
:100440008D85808B8E85818BDF91CF911F910F9150
:10045000FF90EF90DF90CF90AF908F900895AF9284
:10046000BF92CF92DF92EF92FF920F931F93CF93A1
:10047000DF936A017B01EC01AC80BD80CB01BA0146
:1004800022E030E040E050E00E947506205C3D4BE9
:10049000404F5F4FCA01B901A70196010E9475063E
:1004A0002150304040405040BB2757FDBA95A52F02
:1004B000942F832F2F5F3F4F4F4F5F4FF501808366
:1004C000EE81FF8121502083EA85FB85208141E078
:1004D00050E0CA010E8402C0880F991F0A94E2F707
:1004E000282B2083EA85FB852081CA010F8402C066
:1004F000880F991F0A94E2F7282B2083EA85FB8551
:100500008081088802C0440F551F0A94E2F7842BAB
:100510008083DF91CF911F910F91FF90EF90DF903B
:10052000CF90BF90AF900895CF93DF93EC01EA8115
:10053000FB81E058FF4F8191919180589F4F20811E
:100540003181821B930B60E870E00E94400699277E
:10055000DF91CF910895FC01A085B1858189282F75
:1005600033278C919927022E02C0959587950A947E
:10057000E2F780FFF6CF0484F585E02D60830895CF
:100580008F92AF92CF92DF92EF92FF920F931F93D1
:100590000197F9F46F5F7F4FE1F485E08F9387E077
:1005A0008F9343E0842E34E0A32E26ECC22ED12C70
:1005B00091ECE92EF12C00EC10E024EC30E045EC5D
:1005C00050E06EE371E082EC91E00E9401020F9036
:1005D0000F901F910F91FF90EF90DF90CF90AF9011
:1005E0008F9008956FEF7FEF81E090E00E94C0024E
:1005F0000895DC01ED91FC910190F081E02D0995C9
:1006000008950E94F90208950F931F93CF93DF93EB
:100610008C01EB0104C02196C8010E94010368818E
:100620006623C9F7DF91CF911F910F9108950F9322
:100630001F938C016DE00E9401036AE0C8010E94D3
:1006400001031F910F9108950F931F938C010E9436
:100650000403C8010E9417031F910F9108952F9260
:100660003F924F925F926F927F928F929F92AF9242
:10067000BF92CF92DF92EF92FF920F931F93CF938F
:10068000DF93CDB7DEB7A2970FB6F894DEBF0FBEEB
:10069000CDBF9AA389A36A017B014115510561056C
:1006A000710521F460E30E94010347C08824992466
:1006B0005401422E5524662477241E010894211CDF
:1006C000311C8101080D191DC701B601A30192015A
:1006D0000E945306F80160830894811C911CA11CA0
:1006E000B11CC701B601A30192010E945306690122
:1006F0007A01211531054105510519F77401089456
:10070000E108F108E20CF31C13C008948108910879
:10071000A108B108F70160816A3010F4605D01C082
:10072000695C89A19AA10E9401030894E108F1087B
:1007300081149104A104B10441F7A2960FB6F89474
:10074000DEBF0FBECDBFDF91CF911F910F91FF9004
:10075000EF90DF90CF90BF90AF909F908F907F9061
:100760006F905F904F903F902F900895EF92FF927F
:100770000F931F93CF93DF93EC017A018B0177FFE7
:100780000BC06DE20E94010310950095F094E09477
:10079000E11CF11C011D111D2AE0B801A701CE01C9
:1007A0000E942F03DF91CF911F910F91FF90EF9047
:1007B0000895AB01662757FD6095762F0E94B6031A
:1007C00008950F931F938C010E94D903C8010E94C2
:1007D00017031F910F910895823000F5E82FFF272E
:1007E000EE0FFF1FEC52FE4F71836083882319F0D8
:1007F0008130A1F408C0809169008C7F842B8093A4
:100800006900E89A089580916900837F440F551F1D
:10081000440F551F842B80936900E99A0895823014
:1008200080F4882319F0813021F402C0E89801C0D7
:10083000E998E82FFF27EE0FFF1FEC52FE4F1182C1
:10084000108208951F920F920FB60F9211242F93CA
:100850003F934F935F936F937F938F939F93AF9348
:10086000BF93EF93FF938091D4019091D501892B91
:1008700029F0E091D401F091D5010995FF91EF9114
:10088000BF91AF919F918F917F916F915F914F91A8
:100890003F912F910F900FBE0F901F9018951F92B0
:1008A0000F920FB60F9211242F933F934F935F93A4
:1008B0006F937F938F939F93AF93BF93EF93FF9328
:1008C0008091D6019091D701892B29F0E091D60132
:1008D000F091D7010995FF91EF91BF91AF919F9151
:1008E0008F917F916F915F914F913F912F910F90D9
:1008F0000FBE0F901F9018951F920F920FB60F9278
:1009000011242F938F939F93AF93BF938091D8011E
:100910009091D901A091DA01B091DB010196A11D5E
:10092000B11D8093D8019093D901A093DA01B093BF
:10093000DB018091DC019091DD01A091DE01B0919D
:10094000DF018050904CAF4FBF4F8093DC019093FC
:10095000DD01A093DE01B093DF0127C08091DC01AF
:100960009091DD01A091DE01B091DF0180589E439E
:10097000A040B0408093DC019093DD01A093DE01A4
:10098000B093DF018091E0019091E101A091E2013B
:10099000B091E3010196A11DB11D8093E0019093F8
:1009A000E101A093E201B093E3018091DC01909119
:1009B000DD01A091DE01B091DF0181589E43A0408E
:1009C000B04060F6BF91AF919F918F912F910F90A2
:1009D0000FBE0F901F901895789484B5826084BDE7
:1009E00084B5816084BD85B5826085BD85B5816033
:1009F00085BDEEE6F0E0808181608083E1E8F0E093
:100A0000808182608083808181608083E0E8F0E083
:100A1000808181608083E1EBF0E08081846080836D
:100A2000E0EBF0E0808181608083EAE7F0E08081A4
:100A30008460808380818260808380818160808304
:100A40008081806880831092C1000895EF92FF92A8
:100A50000F931F937B018C018FB7F8944091E001B5
:100A60005091E1016091E2017091E3018FBF2FB7D6
:100A7000F8948091E0019091E101A091E201B091A0
:100A8000E3012FBF841B950BA60BB70BE816F906E5
:100A90000A071B0760F71F910F91FF90EF900895D1
:100AA000909131019295990F990F907C8770982BB6
:100AB00090937C0080917A00806480937A0080918A
:100AC0007A0086FDFCCF20917800809179009927EB
:100AD000982F88273327822B932B08951F93CF932A
:100AE000DF93182FEB0161E00E94C705E12FFF277C
:100AF000E255FF4FC895802D833051F480918000DE
:100B0000806880938000D0938900C09388003BC0A8
:100B1000843051F480918000806280938000D09373
:100B20008B00C0938A002FC0813039F4209729F1BF
:100B300084B5806884BDC7BD26C0823039F4209753
:100B4000E1F084B5806284BDC8BD1DC0863041F42B
:100B50008091B00080688093B000C093B30013C050
:100B6000873041F48091B00080628093B000C093E0
:100B7000B40009C0C038D10514F460E001C061E0E0
:100B8000812F0E94EC05DF91CF911F910895282FAE
:100B90003327C90186569F4FFC01C895902D2A57CF
:100BA0003F4FF901C895802D8823A9F0E82FFF2732
:100BB000EE0FFF1FE859FF4FC895A02D3196C8953D
:100BC000B02D662329F48C91909589238C930895F8
:100BD0008C91892B8C930895482F5527CA018255F3
:100BE0009F4FFC01C895202DCA0186569F4FFC01DE
:100BF000C895902D4A575F4FFA01C895302D332381
:100C000009F43DC0222331F1233021F4809180008A
:100C10008F7705C0243031F4809180008F7D8093E0
:100C2000800018C0213019F484B58F7704C02230B9
:100C300021F484B58F7D84BD0DC0263021F48091D0
:100C4000B0008F7705C0273029F48091B0008F7DE8
:100C50008093B000E32FFF27EE0FFF1FEE58FF4FEA
:100C6000C895A02D3196C895B02D662329F48C9196
:100C7000909589238C9308958C91892B8C9308955A
:100C800097FB092E07260AD077FD04D049D006D05D
:100C900000201AF4709561957F4F0895F6F79095AE
:100CA00081959F4F0895A1E21A2EAA1BBB1BFD013F
:100CB0000DC0AA1FBB1FEE1FFF1FA217B307E4073B
:100CC000F50720F0A21BB30BE40BF50B661F771F93
:100CD000881F991F1A9469F7609570958095909573
:100CE0009B01AC01BD01CF01089597FB092E05269C
:100CF0000ED057FD04D0D7DF0AD0001C38F4509531
:100D00004095309521953F4F4F4F5F4F0895F6F72F
:100D100090958095709561957F4F8F4F9F4F089567
:100D2000AA1BBB1B51E107C0AA1FBB1FA617B70711
:100D300010F0A61BB70B881F991F5A95A9F780952D
:100D40009095BC01CD010895EE0FFF1F0590F49121
:060D5000E02D0994FFCF25
:100D56004C7578203D200054696D65723A20456EC9
:100D6600746572696E6720536C656570206D6F647B
:100D76006500576F6B6520757021000D0009000234
:080D8600000100000000AB02B7
:00000001FF
